{
  "_format": "hh-sol-artifact-1",
  "contractName": "PS",
  "sourceName": "contracts/PS.sol",
  "abi": [
    {
      "inputs": [],
      "stateMutability": "nonpayable",
      "type": "constructor"
    },
    {
      "anonymous": false,
      "inputs": [
        {
          "indexed": true,
          "internalType": "address",
          "name": "owner",
          "type": "address"
        },
        {
          "indexed": true,
          "internalType": "address",
          "name": "approved",
          "type": "address"
        },
        {
          "indexed": true,
          "internalType": "uint256",
          "name": "tokenId",
          "type": "uint256"
        }
      ],
      "name": "Approval",
      "type": "event"
    },
    {
      "anonymous": false,
      "inputs": [
        {
          "indexed": true,
          "internalType": "address",
          "name": "owner",
          "type": "address"
        },
        {
          "indexed": true,
          "internalType": "address",
          "name": "operator",
          "type": "address"
        },
        {
          "indexed": false,
          "internalType": "bool",
          "name": "approved",
          "type": "bool"
        }
      ],
      "name": "ApprovalForAll",
      "type": "event"
    },
    {
      "anonymous": false,
      "inputs": [
        {
          "indexed": true,
          "internalType": "address",
          "name": "previousOwner",
          "type": "address"
        },
        {
          "indexed": true,
          "internalType": "address",
          "name": "newOwner",
          "type": "address"
        }
      ],
      "name": "OwnershipTransferred",
      "type": "event"
    },
    {
      "anonymous": false,
      "inputs": [
        {
          "indexed": false,
          "internalType": "address",
          "name": "account",
          "type": "address"
        }
      ],
      "name": "Paused",
      "type": "event"
    },
    {
      "anonymous": false,
      "inputs": [
        {
          "indexed": false,
          "internalType": "address",
          "name": "from",
          "type": "address"
        },
        {
          "indexed": false,
          "internalType": "address",
          "name": "to",
          "type": "address"
        },
        {
          "indexed": false,
          "internalType": "uint256",
          "name": "amount",
          "type": "uint256"
        }
      ],
      "name": "Sent",
      "type": "event"
    },
    {
      "anonymous": false,
      "inputs": [
        {
          "indexed": true,
          "internalType": "address",
          "name": "from",
          "type": "address"
        },
        {
          "indexed": true,
          "internalType": "address",
          "name": "to",
          "type": "address"
        },
        {
          "indexed": true,
          "internalType": "uint256",
          "name": "tokenId",
          "type": "uint256"
        }
      ],
      "name": "Transfer",
      "type": "event"
    },
    {
      "anonymous": false,
      "inputs": [
        {
          "indexed": false,
          "internalType": "address",
          "name": "account",
          "type": "address"
        }
      ],
      "name": "Unpaused",
      "type": "event"
    },
    {
      "inputs": [],
      "name": "_baseTokenURI",
      "outputs": [
        {
          "internalType": "string",
          "name": "",
          "type": "string"
        }
      ],
      "stateMutability": "view",
      "type": "function"
    },
    {
      "inputs": [
        {
          "internalType": "address",
          "name": "to",
          "type": "address"
        },
        {
          "internalType": "uint256",
          "name": "tokenId",
          "type": "uint256"
        }
      ],
      "name": "approve",
      "outputs": [],
      "stateMutability": "nonpayable",
      "type": "function"
    },
    {
      "inputs": [
        {
          "internalType": "address",
          "name": "owner",
          "type": "address"
        }
      ],
      "name": "balanceOf",
      "outputs": [
        {
          "internalType": "uint256",
          "name": "",
          "type": "uint256"
        }
      ],
      "stateMutability": "view",
      "type": "function"
    },
    {
      "inputs": [
        {
          "internalType": "address",
          "name": "",
          "type": "address"
        }
      ],
      "name": "balances",
      "outputs": [
        {
          "internalType": "uint256",
          "name": "",
          "type": "uint256"
        }
      ],
      "stateMutability": "view",
      "type": "function"
    },
    {
      "inputs": [
        {
          "internalType": "uint256",
          "name": "tokenId",
          "type": "uint256"
        }
      ],
      "name": "getApproved",
      "outputs": [
        {
          "internalType": "address",
          "name": "",
          "type": "address"
        }
      ],
      "stateMutability": "view",
      "type": "function"
    },
    {
      "inputs": [
        {
          "internalType": "address",
          "name": "owner",
          "type": "address"
        },
        {
          "internalType": "address",
          "name": "operator",
          "type": "address"
        }
      ],
      "name": "isApprovedForAll",
      "outputs": [
        {
          "internalType": "bool",
          "name": "",
          "type": "bool"
        }
      ],
      "stateMutability": "view",
      "type": "function"
    },
    {
      "inputs": [
        {
          "internalType": "address",
          "name": "recipient",
          "type": "address"
        }
      ],
      "name": "mintNFTForUser",
      "outputs": [
        {
          "internalType": "uint256",
          "name": "",
          "type": "uint256"
        }
      ],
      "stateMutability": "nonpayable",
      "type": "function"
    },
    {
      "inputs": [],
      "name": "name",
      "outputs": [
        {
          "internalType": "string",
          "name": "",
          "type": "string"
        }
      ],
      "stateMutability": "view",
      "type": "function"
    },
    {
      "inputs": [],
      "name": "owner",
      "outputs": [
        {
          "internalType": "address",
          "name": "",
          "type": "address"
        }
      ],
      "stateMutability": "view",
      "type": "function"
    },
    {
      "inputs": [
        {
          "internalType": "uint256",
          "name": "tokenId",
          "type": "uint256"
        }
      ],
      "name": "ownerOf",
      "outputs": [
        {
          "internalType": "address",
          "name": "",
          "type": "address"
        }
      ],
      "stateMutability": "view",
      "type": "function"
    },
    {
      "inputs": [],
      "name": "pause",
      "outputs": [],
      "stateMutability": "nonpayable",
      "type": "function"
    },
    {
      "inputs": [],
      "name": "paused",
      "outputs": [
        {
          "internalType": "bool",
          "name": "",
          "type": "bool"
        }
      ],
      "stateMutability": "view",
      "type": "function"
    },
    {
      "inputs": [
        {
          "internalType": "address",
          "name": "recipient",
          "type": "address"
        }
      ],
      "name": "presales",
      "outputs": [
        {
          "internalType": "uint256",
          "name": "",
          "type": "uint256"
        }
      ],
      "stateMutability": "nonpayable",
      "type": "function"
    },
    {
      "inputs": [],
      "name": "renounceOwnership",
      "outputs": [],
      "stateMutability": "nonpayable",
      "type": "function"
    },
    {
      "inputs": [
        {
          "internalType": "address",
          "name": "from",
          "type": "address"
        },
        {
          "internalType": "address",
          "name": "to",
          "type": "address"
        },
        {
          "internalType": "uint256",
          "name": "tokenId",
          "type": "uint256"
        }
      ],
      "name": "safeTransferFrom",
      "outputs": [],
      "stateMutability": "nonpayable",
      "type": "function"
    },
    {
      "inputs": [
        {
          "internalType": "address",
          "name": "from",
          "type": "address"
        },
        {
          "internalType": "address",
          "name": "to",
          "type": "address"
        },
        {
          "internalType": "uint256",
          "name": "tokenId",
          "type": "uint256"
        },
        {
          "internalType": "bytes",
          "name": "_data",
          "type": "bytes"
        }
      ],
      "name": "safeTransferFrom",
      "outputs": [],
      "stateMutability": "nonpayable",
      "type": "function"
    },
    {
      "inputs": [
        {
          "internalType": "address",
          "name": "receiver",
          "type": "address"
        },
        {
          "internalType": "uint256",
          "name": "amount",
          "type": "uint256"
        }
      ],
      "name": "send",
      "outputs": [],
      "stateMutability": "nonpayable",
      "type": "function"
    },
    {
      "inputs": [
        {
          "internalType": "address",
          "name": "operator",
          "type": "address"
        },
        {
          "internalType": "bool",
          "name": "approved",
          "type": "bool"
        }
      ],
      "name": "setApprovalForAll",
      "outputs": [],
      "stateMutability": "nonpayable",
      "type": "function"
    },
    {
      "inputs": [
        {
          "internalType": "string",
          "name": "baseURI",
          "type": "string"
        }
      ],
      "name": "setBaseURI",
      "outputs": [],
      "stateMutability": "nonpayable",
      "type": "function"
    },
    {
      "inputs": [
        {
          "internalType": "bytes4",
          "name": "interfaceId",
          "type": "bytes4"
        }
      ],
      "name": "supportsInterface",
      "outputs": [
        {
          "internalType": "bool",
          "name": "",
          "type": "bool"
        }
      ],
      "stateMutability": "view",
      "type": "function"
    },
    {
      "inputs": [],
      "name": "symbol",
      "outputs": [
        {
          "internalType": "string",
          "name": "",
          "type": "string"
        }
      ],
      "stateMutability": "view",
      "type": "function"
    },
    {
      "inputs": [
        {
          "internalType": "uint256",
          "name": "index",
          "type": "uint256"
        }
      ],
      "name": "tokenByIndex",
      "outputs": [
        {
          "internalType": "uint256",
          "name": "",
          "type": "uint256"
        }
      ],
      "stateMutability": "view",
      "type": "function"
    },
    {
      "inputs": [
        {
          "internalType": "address",
          "name": "owner",
          "type": "address"
        },
        {
          "internalType": "uint256",
          "name": "index",
          "type": "uint256"
        }
      ],
      "name": "tokenOfOwnerByIndex",
      "outputs": [
        {
          "internalType": "uint256",
          "name": "",
          "type": "uint256"
        }
      ],
      "stateMutability": "view",
      "type": "function"
    },
    {
      "inputs": [
        {
          "internalType": "uint256",
          "name": "tokenId",
          "type": "uint256"
        }
      ],
      "name": "tokenURI",
      "outputs": [
        {
          "internalType": "string",
          "name": "",
          "type": "string"
        }
      ],
      "stateMutability": "view",
      "type": "function"
    },
    {
      "inputs": [],
      "name": "totalSupply",
      "outputs": [
        {
          "internalType": "uint256",
          "name": "",
          "type": "uint256"
        }
      ],
      "stateMutability": "view",
      "type": "function"
    },
    {
      "inputs": [
        {
          "internalType": "address",
          "name": "from",
          "type": "address"
        },
        {
          "internalType": "address",
          "name": "to",
          "type": "address"
        },
        {
          "internalType": "uint256",
          "name": "tokenId",
          "type": "uint256"
        }
      ],
      "name": "transferFrom",
      "outputs": [],
      "stateMutability": "nonpayable",
      "type": "function"
    },
    {
      "inputs": [
        {
          "internalType": "address",
          "name": "newOwner",
          "type": "address"
        }
      ],
      "name": "transferOwnership",
      "outputs": [],
      "stateMutability": "nonpayable",
      "type": "function"
    },
    {
      "inputs": [],
      "name": "unpause",
      "outputs": [],
      "stateMutability": "nonpayable",
      "type": "function"
    },
    {
      "inputs": [],
      "name": "user",
      "outputs": [
        {
          "internalType": "address",
          "name": "",
          "type": "address"
        }
      ],
      "stateMutability": "view",
      "type": "function"
    }
  ],
  "bytecode": "0x60806040526040518060400160405280602081526020017f68747470733a2f2f6170692e636f6f6c636174736e66742e636f6d2f6361742f815250600c908051906020019062000051929190620002b0565b5073b55fd66a86612976d79010c2f6b90275b241f1f8600d60006101000a81548173ffffffffffffffffffffffffffffffffffffffff021916908373ffffffffffffffffffffffffffffffffffffffff160217905550660110d9316ec000600e55348015620000bf57600080fd5b506040518060400160405280600281526020017f50530000000000000000000000000000000000000000000000000000000000008152506040518060400160405280600381526020017f5053740000000000000000000000000000000000000000000000000000000000815250816000908051906020019062000144929190620002b0565b5080600190805190602001906200015d929190620002b0565b5050506200018062000174620001e260201b60201c565b620001ea60201b60201c565b6000600a60146101000a81548160ff02191690831515021790555033600f60006101000a81548173ffffffffffffffffffffffffffffffffffffffff021916908373ffffffffffffffffffffffffffffffffffffffff160217905550620003c5565b600033905090565b6000600a60009054906101000a900473ffffffffffffffffffffffffffffffffffffffff16905081600a60006101000a81548173ffffffffffffffffffffffffffffffffffffffff021916908373ffffffffffffffffffffffffffffffffffffffff1602179055508173ffffffffffffffffffffffffffffffffffffffff168173ffffffffffffffffffffffffffffffffffffffff167f8be0079c531659141344cd1fd0a4f28419497f9722a3daafe3b4186f6b6457e060405160405180910390a35050565b828054620002be9062000360565b90600052602060002090601f016020900481019282620002e257600085556200032e565b82601f10620002fd57805160ff19168380011785556200032e565b828001600101855582156200032e579182015b828111156200032d57825182559160200191906001019062000310565b5b5090506200033d919062000341565b5090565b5b808211156200035c57600081600090555060010162000342565b5090565b600060028204905060018216806200037957607f821691505b6020821081141562000390576200038f62000396565b5b50919050565b7f4e487b7100000000000000000000000000000000000000000000000000000000600052602260045260246000fd5b613f3480620003d56000396000f3fe608060405234801561001057600080fd5b50600436106101cf5760003560e01c80636352211e11610104578063a22cb465116100a2578063d0679d3411610071578063d0679d341461051c578063e985e9c514610538578063efcd708f14610568578063f2fde38b14610598576101cf565b8063a22cb46514610496578063b88d4fde146104b2578063c87b56dd146104ce578063cfc86f7b146104fe576101cf565b80637d7f981d116100de5780637d7f981d146104205780638456cb59146104505780638da5cb5b1461045a57806395d89b4114610478576101cf565b80636352211e146103b657806370a08231146103e6578063715018a614610416576101cf565b80632f745c59116101715780634f6ccce71161014b5780634f6ccce71461032e5780634f8632ba1461035e57806355f804b31461037c5780635c975abb14610398576101cf565b80632f745c59146102d85780633f4ba83a1461030857806342842e0e14610312576101cf565b8063095ea7b3116101ad578063095ea7b31461025257806318160ddd1461026e57806323b872dd1461028c57806327e235e3146102a8576101cf565b806301ffc9a7146101d457806306fdde0314610204578063081812fc14610222575b600080fd5b6101ee60048036038101906101e99190612cbb565b6105b4565b6040516101fb919061320b565b60405180910390f35b61020c61062e565b6040516102199190613226565b60405180910390f35b61023c60048036038101906102379190612d4e565b6106c0565b604051610249919061316d565b60405180910390f35b61026c60048036038101906102679190612c7f565b610745565b005b61027661085d565b6040516102839190613508565b60405180910390f35b6102a660048036038101906102a19190612b79565b61086a565b005b6102c260048036038101906102bd9190612b14565b6108ca565b6040516102cf9190613508565b60405180910390f35b6102f260048036038101906102ed9190612c7f565b6108e2565b6040516102ff9190613508565b60405180910390f35b610310610987565b005b61032c60048036038101906103279190612b79565b610a0d565b005b61034860048036038101906103439190612d4e565b610a2d565b6040516103559190613508565b60405180910390f35b610366610ac4565b604051610373919061316d565b60405180910390f35b61039660048036038101906103919190612d0d565b610aea565b005b6103a0610b80565b6040516103ad919061320b565b60405180910390f35b6103d060048036038101906103cb9190612d4e565b610b97565b6040516103dd919061316d565b60405180910390f35b61040060048036038101906103fb9190612b14565b610c49565b60405161040d9190613508565b60405180910390f35b61041e610d01565b005b61043a60048036038101906104359190612b14565b610d89565b6040516104479190613508565b60405180910390f35b610458610e76565b005b610462610efc565b60405161046f919061316d565b60405180910390f35b610480610f26565b60405161048d9190613226565b60405180910390f35b6104b060048036038101906104ab9190612c43565b610fb8565b005b6104cc60048036038101906104c79190612bc8565b610fce565b005b6104e860048036038101906104e39190612d4e565b611030565b6040516104f59190613226565b60405180910390f35b6105066110d7565b6040516105139190613226565b60405180910390f35b61053660048036038101906105319190612c7f565b611165565b005b610552600480360381019061054d9190612b3d565b6112d1565b60405161055f919061320b565b60405180910390f35b610582600480360381019061057d9190612b14565b611365565b60405161058f9190613508565b60405180910390f35b6105b260048036038101906105ad9190612b14565b611421565b005b60007f780e9d63000000000000000000000000000000000000000000000000000000007bffffffffffffffffffffffffffffffffffffffffffffffffffffffff1916827bffffffffffffffffffffffffffffffffffffffffffffffffffffffff19161480610627575061062682611519565b5b9050919050565b60606000805461063d9061375e565b80601f01602080910402602001604051908101604052809291908181526020018280546106699061375e565b80156106b65780601f1061068b576101008083540402835291602001916106b6565b820191906000526020600020905b81548152906001019060200180831161069957829003601f168201915b5050505050905090565b60006106cb826115fb565b61070a576040517f08c379a000000000000000000000000000000000000000000000000000000000815260040161070190613428565b60405180910390fd5b6004600083815260200190815260200160002060009054906101000a900473ffffffffffffffffffffffffffffffffffffffff169050919050565b600061075082610b97565b90508073ffffffffffffffffffffffffffffffffffffffff168373ffffffffffffffffffffffffffffffffffffffff1614156107c1576040517f08c379a00000000000000000000000000000000000000000000000000000000081526004016107b8906134a8565b60405180910390fd5b8073ffffffffffffffffffffffffffffffffffffffff166107e0611667565b73ffffffffffffffffffffffffffffffffffffffff16148061080f575061080e81610809611667565b6112d1565b5b61084e576040517f08c379a0000000000000000000000000000000000000000000000000000000008152600401610845906133a8565b60405180910390fd5b610858838361166f565b505050565b6000600880549050905090565b61087b610875611667565b82611728565b6108ba576040517f08c379a00000000000000000000000000000000000000000000000000000000081526004016108b1906134c8565b60405180910390fd5b6108c5838383611806565b505050565b60106020528060005260406000206000915090505481565b60006108ed83610c49565b821061092e576040517f08c379a000000000000000000000000000000000000000000000000000000000815260040161092590613288565b60405180910390fd5b600660008473ffffffffffffffffffffffffffffffffffffffff1673ffffffffffffffffffffffffffffffffffffffff168152602001908152602001600020600083815260200190815260200160002054905092915050565b61098f611667565b73ffffffffffffffffffffffffffffffffffffffff166109ad610efc565b73ffffffffffffffffffffffffffffffffffffffff1614610a03576040517f08c379a00000000000000000000000000000000000000000000000000000000081526004016109fa90613468565b60405180910390fd5b610a0b611a6d565b565b610a2883838360405180602001604052806000815250610fce565b505050565b6000610a3761085d565b8210610a78576040517f08c379a0000000000000000000000000000000000000000000000000000000008152600401610a6f906134e8565b60405180910390fd5b60088281548110610ab2577f4e487b7100000000000000000000000000000000000000000000000000000000600052603260045260246000fd5b90600052602060002001549050919050565b600f60009054906101000a900473ffffffffffffffffffffffffffffffffffffffff1681565b610af2611667565b73ffffffffffffffffffffffffffffffffffffffff16610b10610efc565b73ffffffffffffffffffffffffffffffffffffffff1614610b66576040517f08c379a0000000000000000000000000000000000000000000000000000000008152600401610b5d90613468565b60405180910390fd5b80600c9080519060200190610b7c929190612938565b5050565b6000600a60149054906101000a900460ff16905090565b6000806002600084815260200190815260200160002060009054906101000a900473ffffffffffffffffffffffffffffffffffffffff169050600073ffffffffffffffffffffffffffffffffffffffff168173ffffffffffffffffffffffffffffffffffffffff161415610c40576040517f08c379a0000000000000000000000000000000000000000000000000000000008152600401610c37906133e8565b60405180910390fd5b80915050919050565b60008073ffffffffffffffffffffffffffffffffffffffff168273ffffffffffffffffffffffffffffffffffffffff161415610cba576040517f08c379a0000000000000000000000000000000000000000000000000000000008152600401610cb1906133c8565b60405180910390fd5b600360008373ffffffffffffffffffffffffffffffffffffffff1673ffffffffffffffffffffffffffffffffffffffff168152602001908152602001600020549050919050565b610d09611667565b73ffffffffffffffffffffffffffffffffffffffff16610d27610efc565b73ffffffffffffffffffffffffffffffffffffffff1614610d7d576040517f08c379a0000000000000000000000000000000000000000000000000000000008152600401610d7490613468565b60405180910390fd5b610d876000611b0f565b565b6000610d93610b80565b15610dd3576040517f08c379a0000000000000000000000000000000000000000000000000000000008152600401610dca90613388565b60405180910390fd5b610ddd600b611bd5565b6000610de9600b611beb565b9050601f610df561085d565b10610e35576040517f08c379a0000000000000000000000000000000000000000000000000000000008152600401610e2c90613268565b60405180910390fd5b610e3f8382611bf9565b610e6d600d60009054906101000a900473ffffffffffffffffffffffffffffffffffffffff16600e54611165565b80915050919050565b610e7e611667565b73ffffffffffffffffffffffffffffffffffffffff16610e9c610efc565b73ffffffffffffffffffffffffffffffffffffffff1614610ef2576040517f08c379a0000000000000000000000000000000000000000000000000000000008152600401610ee990613468565b60405180910390fd5b610efa611dd3565b565b6000600a60009054906101000a900473ffffffffffffffffffffffffffffffffffffffff16905090565b606060018054610f359061375e565b80601f0160208091040260200160405190810160405280929190818152602001828054610f619061375e565b8015610fae5780601f10610f8357610100808354040283529160200191610fae565b820191906000526020600020905b815481529060010190602001808311610f9157829003601f168201915b5050505050905090565b610fca610fc3611667565b8383611e76565b5050565b610fdf610fd9611667565b83611728565b61101e576040517f08c379a0000000000000000000000000000000000000000000000000000000008152600401611015906134c8565b60405180910390fd5b61102a84848484611fe3565b50505050565b606061103b826115fb565b61107a576040517f08c379a000000000000000000000000000000000000000000000000000000000815260040161107190613488565b60405180910390fd5b600061108461203f565b905060008151116110a457604051806020016040528060008152506110cf565b806110ae846120d1565b6040516020016110bf929190613149565b6040516020818303038152906040525b915050919050565b600c80546110e49061375e565b80601f01602080910402602001604051908101604052809291908181526020018280546111109061375e565b801561115d5780601f106111325761010080835404028352916020019161115d565b820191906000526020600020905b81548152906001019060200180831161114057829003601f168201915b505050505081565b601060003373ffffffffffffffffffffffffffffffffffffffff1673ffffffffffffffffffffffffffffffffffffffff1681526020019081526020016000205481106111e6576040517f08c379a00000000000000000000000000000000000000000000000000000000081526004016111dd90613448565b60405180910390fd5b80601060003373ffffffffffffffffffffffffffffffffffffffff1673ffffffffffffffffffffffffffffffffffffffff16815260200190815260200160002060008282546112359190613674565b9250508190555080601060008473ffffffffffffffffffffffffffffffffffffffff1673ffffffffffffffffffffffffffffffffffffffff168152602001908152602001600020600082825461128b91906135ed565b925050819055507f3990db2d31862302a685e8086b5755072a6e2b5b780af1ee81ece35ee3cd33453383836040516112c593929190613188565b60405180910390a15050565b6000600560008473ffffffffffffffffffffffffffffffffffffffff1673ffffffffffffffffffffffffffffffffffffffff16815260200190815260200160002060008373ffffffffffffffffffffffffffffffffffffffff1673ffffffffffffffffffffffffffffffffffffffff16815260200190815260200160002060009054906101000a900460ff16905092915050565b600061136f611667565b73ffffffffffffffffffffffffffffffffffffffff1661138d610efc565b73ffffffffffffffffffffffffffffffffffffffff16146113e3576040517f08c379a00000000000000000000000000000000000000000000000000000000081526004016113da90613468565b60405180910390fd5b6000600581101561141a576113f8600b611bd5565b6000611404600b611beb565b90506114108482611bf9565b809250505061141c565b505b919050565b611429611667565b73ffffffffffffffffffffffffffffffffffffffff16611447610efc565b73ffffffffffffffffffffffffffffffffffffffff161461149d576040517f08c379a000000000000000000000000000000000000000000000000000000000815260040161149490613468565b60405180910390fd5b600073ffffffffffffffffffffffffffffffffffffffff168173ffffffffffffffffffffffffffffffffffffffff16141561150d576040517f08c379a0000000000000000000000000000000000000000000000000000000008152600401611504906132c8565b60405180910390fd5b61151681611b0f565b50565b60007f80ac58cd000000000000000000000000000000000000000000000000000000007bffffffffffffffffffffffffffffffffffffffffffffffffffffffff1916827bffffffffffffffffffffffffffffffffffffffffffffffffffffffff191614806115e457507f5b5e139f000000000000000000000000000000000000000000000000000000007bffffffffffffffffffffffffffffffffffffffffffffffffffffffff1916827bffffffffffffffffffffffffffffffffffffffffffffffffffffffff1916145b806115f457506115f38261227e565b5b9050919050565b60008073ffffffffffffffffffffffffffffffffffffffff166002600084815260200190815260200160002060009054906101000a900473ffffffffffffffffffffffffffffffffffffffff1673ffffffffffffffffffffffffffffffffffffffff1614159050919050565b600033905090565b816004600083815260200190815260200160002060006101000a81548173ffffffffffffffffffffffffffffffffffffffff021916908373ffffffffffffffffffffffffffffffffffffffff160217905550808273ffffffffffffffffffffffffffffffffffffffff166116e283610b97565b73ffffffffffffffffffffffffffffffffffffffff167f8c5be1e5ebec7d5bd14f71427d1e84f3dd0314c0f7b2291e5b200ac8c7c3b92560405160405180910390a45050565b6000611733826115fb565b611772576040517f08c379a000000000000000000000000000000000000000000000000000000000815260040161176990613368565b60405180910390fd5b600061177d83610b97565b90508073ffffffffffffffffffffffffffffffffffffffff168473ffffffffffffffffffffffffffffffffffffffff1614806117bf57506117be81856112d1565b5b806117fd57508373ffffffffffffffffffffffffffffffffffffffff166117e5846106c0565b73ffffffffffffffffffffffffffffffffffffffff16145b91505092915050565b8273ffffffffffffffffffffffffffffffffffffffff1661182682610b97565b73ffffffffffffffffffffffffffffffffffffffff161461187c576040517f08c379a0000000000000000000000000000000000000000000000000000000008152600401611873906132e8565b60405180910390fd5b600073ffffffffffffffffffffffffffffffffffffffff168273ffffffffffffffffffffffffffffffffffffffff1614156118ec576040517f08c379a00000000000000000000000000000000000000000000000000000000081526004016118e390613328565b60405180910390fd5b6118f78383836122e8565b61190260008261166f565b6001600360008573ffffffffffffffffffffffffffffffffffffffff1673ffffffffffffffffffffffffffffffffffffffff16815260200190815260200160002060008282546119529190613674565b925050819055506001600360008473ffffffffffffffffffffffffffffffffffffffff1673ffffffffffffffffffffffffffffffffffffffff16815260200190815260200160002060008282546119a991906135ed565b92505081905550816002600083815260200190815260200160002060006101000a81548173ffffffffffffffffffffffffffffffffffffffff021916908373ffffffffffffffffffffffffffffffffffffffff160217905550808273ffffffffffffffffffffffffffffffffffffffff168473ffffffffffffffffffffffffffffffffffffffff167fddf252ad1be2c89b69c2b068fc378daa952ba7f163c4a11628f55a4df523b3ef60405160405180910390a4611a688383836123fc565b505050565b611a75610b80565b611ab4576040517f08c379a0000000000000000000000000000000000000000000000000000000008152600401611aab90613248565b60405180910390fd5b6000600a60146101000a81548160ff0219169083151502179055507f5db9ee0a495bf2e6ff9c91a7834c1ba4fdd244a5e8aa4e537bd38aeae4b073aa611af8611667565b604051611b05919061316d565b60405180910390a1565b6000600a60009054906101000a900473ffffffffffffffffffffffffffffffffffffffff16905081600a60006101000a81548173ffffffffffffffffffffffffffffffffffffffff021916908373ffffffffffffffffffffffffffffffffffffffff1602179055508173ffffffffffffffffffffffffffffffffffffffff168173ffffffffffffffffffffffffffffffffffffffff167f8be0079c531659141344cd1fd0a4f28419497f9722a3daafe3b4186f6b6457e060405160405180910390a35050565b6001816000016000828254019250508190555050565b600081600001549050919050565b600073ffffffffffffffffffffffffffffffffffffffff168273ffffffffffffffffffffffffffffffffffffffff161415611c69576040517f08c379a0000000000000000000000000000000000000000000000000000000008152600401611c6090613408565b60405180910390fd5b611c72816115fb565b15611cb2576040517f08c379a0000000000000000000000000000000000000000000000000000000008152600401611ca990613308565b60405180910390fd5b611cbe600083836122e8565b6001600360008473ffffffffffffffffffffffffffffffffffffffff1673ffffffffffffffffffffffffffffffffffffffff1681526020019081526020016000206000828254611d0e91906135ed565b92505081905550816002600083815260200190815260200160002060006101000a81548173ffffffffffffffffffffffffffffffffffffffff021916908373ffffffffffffffffffffffffffffffffffffffff160217905550808273ffffffffffffffffffffffffffffffffffffffff16600073ffffffffffffffffffffffffffffffffffffffff167fddf252ad1be2c89b69c2b068fc378daa952ba7f163c4a11628f55a4df523b3ef60405160405180910390a4611dcf600083836123fc565b5050565b611ddb610b80565b15611e1b576040517f08c379a0000000000000000000000000000000000000000000000000000000008152600401611e1290613388565b60405180910390fd5b6001600a60146101000a81548160ff0219169083151502179055507f62e78cea01bee320cd4e420270b5ea74000d11b0c9f74754ebdbfc544b05a258611e5f611667565b604051611e6c919061316d565b60405180910390a1565b8173ffffffffffffffffffffffffffffffffffffffff168373ffffffffffffffffffffffffffffffffffffffff161415611ee5576040517f08c379a0000000000000000000000000000000000000000000000000000000008152600401611edc90613348565b60405180910390fd5b80600560008573ffffffffffffffffffffffffffffffffffffffff1673ffffffffffffffffffffffffffffffffffffffff16815260200190815260200160002060008473ffffffffffffffffffffffffffffffffffffffff1673ffffffffffffffffffffffffffffffffffffffff16815260200190815260200160002060006101000a81548160ff0219169083151502179055508173ffffffffffffffffffffffffffffffffffffffff168373ffffffffffffffffffffffffffffffffffffffff167f17307eab39ab6107e8899845ad3d59bd9653f200f220920489ca2b5937696c3183604051611fd6919061320b565b60405180910390a3505050565b611fee848484611806565b611ffa84848484612401565b612039576040517f08c379a0000000000000000000000000000000000000000000000000000000008152600401612030906132a8565b60405180910390fd5b50505050565b6060600c805461204e9061375e565b80601f016020809104026020016040519081016040528092919081815260200182805461207a9061375e565b80156120c75780601f1061209c576101008083540402835291602001916120c7565b820191906000526020600020905b8154815290600101906020018083116120aa57829003601f168201915b5050505050905090565b60606000821415612119576040518060400160405280600181526020017f30000000000000000000000000000000000000000000000000000000000000008152509050612279565b600082905060005b6000821461214b578080612134906137c1565b915050600a826121449190613643565b9150612121565b60008167ffffffffffffffff81111561218d577f4e487b7100000000000000000000000000000000000000000000000000000000600052604160045260246000fd5b6040519080825280601f01601f1916602001820160405280156121bf5781602001600182028036833780820191505090505b5090505b60008514612272576001826121d89190613674565b9150600a856121e7919061380a565b60306121f391906135ed565b60f81b81838151811061222f577f4e487b7100000000000000000000000000000000000000000000000000000000600052603260045260246000fd5b60200101907effffffffffffffffffffffffffffffffffffffffffffffffffffffffffffff1916908160001a905350600a8561226b9190613643565b94506121c3565b8093505050505b919050565b60007f01ffc9a7000000000000000000000000000000000000000000000000000000007bffffffffffffffffffffffffffffffffffffffffffffffffffffffff1916827bffffffffffffffffffffffffffffffffffffffffffffffffffffffff1916149050919050565b6122f3838383612598565b600073ffffffffffffffffffffffffffffffffffffffff168373ffffffffffffffffffffffffffffffffffffffff161415612336576123318161259d565b612375565b8173ffffffffffffffffffffffffffffffffffffffff168373ffffffffffffffffffffffffffffffffffffffff16146123745761237383826125e6565b5b5b600073ffffffffffffffffffffffffffffffffffffffff168273ffffffffffffffffffffffffffffffffffffffff1614156123b8576123b381612753565b6123f7565b8273ffffffffffffffffffffffffffffffffffffffff168273ffffffffffffffffffffffffffffffffffffffff16146123f6576123f58282612896565b5b5b505050565b505050565b60006124228473ffffffffffffffffffffffffffffffffffffffff16612915565b1561258b578373ffffffffffffffffffffffffffffffffffffffff1663150b7a0261244b611667565b8786866040518563ffffffff1660e01b815260040161246d94939291906131bf565b602060405180830381600087803b15801561248757600080fd5b505af19250505080156124b857506040513d601f19601f820116820180604052508101906124b59190612ce4565b60015b61253b573d80600081146124e8576040519150601f19603f3d011682016040523d82523d6000602084013e6124ed565b606091505b50600081511415612533576040517f08c379a000000000000000000000000000000000000000000000000000000000815260040161252a906132a8565b60405180910390fd5b805181602001fd5b63150b7a0260e01b7bffffffffffffffffffffffffffffffffffffffffffffffffffffffff1916817bffffffffffffffffffffffffffffffffffffffffffffffffffffffff191614915050612590565b600190505b949350505050565b505050565b6008805490506009600083815260200190815260200160002081905550600881908060018154018082558091505060019003906000526020600020016000909190919091505550565b600060016125f384610c49565b6125fd9190613674565b90506000600760008481526020019081526020016000205490508181146126e2576000600660008673ffffffffffffffffffffffffffffffffffffffff1673ffffffffffffffffffffffffffffffffffffffff168152602001908152602001600020600084815260200190815260200160002054905080600660008773ffffffffffffffffffffffffffffffffffffffff1673ffffffffffffffffffffffffffffffffffffffff168152602001908152602001600020600084815260200190815260200160002081905550816007600083815260200190815260200160002081905550505b6007600084815260200190815260200160002060009055600660008573ffffffffffffffffffffffffffffffffffffffff1673ffffffffffffffffffffffffffffffffffffffff16815260200190815260200160002060008381526020019081526020016000206000905550505050565b600060016008805490506127679190613674565b90506000600960008481526020019081526020016000205490506000600883815481106127bd577f4e487b7100000000000000000000000000000000000000000000000000000000600052603260045260246000fd5b906000526020600020015490508060088381548110612805577f4e487b7100000000000000000000000000000000000000000000000000000000600052603260045260246000fd5b90600052602060002001819055508160096000838152602001908152602001600020819055506009600085815260200190815260200160002060009055600880548061287a577f4e487b7100000000000000000000000000000000000000000000000000000000600052603160045260246000fd5b6001900381819060005260206000200160009055905550505050565b60006128a183610c49565b905081600660008573ffffffffffffffffffffffffffffffffffffffff1673ffffffffffffffffffffffffffffffffffffffff168152602001908152602001600020600083815260200190815260200160002081905550806007600084815260200190815260200160002081905550505050565b6000808273ffffffffffffffffffffffffffffffffffffffff163b119050919050565b8280546129449061375e565b90600052602060002090601f01602090048101928261296657600085556129ad565b82601f1061297f57805160ff19168380011785556129ad565b828001600101855582156129ad579182015b828111156129ac578251825591602001919060010190612991565b5b5090506129ba91906129be565b5090565b5b808211156129d75760008160009055506001016129bf565b5090565b60006129ee6129e984613548565b613523565b905082815260208101848484011115612a0657600080fd5b612a1184828561371c565b509392505050565b6000612a2c612a2784613579565b613523565b905082815260208101848484011115612a4457600080fd5b612a4f84828561371c565b509392505050565b600081359050612a6681613ea2565b92915050565b600081359050612a7b81613eb9565b92915050565b600081359050612a9081613ed0565b92915050565b600081519050612aa581613ed0565b92915050565b600082601f830112612abc57600080fd5b8135612acc8482602086016129db565b91505092915050565b600082601f830112612ae657600080fd5b8135612af6848260208601612a19565b91505092915050565b600081359050612b0e81613ee7565b92915050565b600060208284031215612b2657600080fd5b6000612b3484828501612a57565b91505092915050565b60008060408385031215612b5057600080fd5b6000612b5e85828601612a57565b9250506020612b6f85828601612a57565b9150509250929050565b600080600060608486031215612b8e57600080fd5b6000612b9c86828701612a57565b9350506020612bad86828701612a57565b9250506040612bbe86828701612aff565b9150509250925092565b60008060008060808587031215612bde57600080fd5b6000612bec87828801612a57565b9450506020612bfd87828801612a57565b9350506040612c0e87828801612aff565b925050606085013567ffffffffffffffff811115612c2b57600080fd5b612c3787828801612aab565b91505092959194509250565b60008060408385031215612c5657600080fd5b6000612c6485828601612a57565b9250506020612c7585828601612a6c565b9150509250929050565b60008060408385031215612c9257600080fd5b6000612ca085828601612a57565b9250506020612cb185828601612aff565b9150509250929050565b600060208284031215612ccd57600080fd5b6000612cdb84828501612a81565b91505092915050565b600060208284031215612cf657600080fd5b6000612d0484828501612a96565b91505092915050565b600060208284031215612d1f57600080fd5b600082013567ffffffffffffffff811115612d3957600080fd5b612d4584828501612ad5565b91505092915050565b600060208284031215612d6057600080fd5b6000612d6e84828501612aff565b91505092915050565b612d80816136a8565b82525050565b612d8f816136ba565b82525050565b6000612da0826135aa565b612daa81856135c0565b9350612dba81856020860161372b565b612dc3816138f7565b840191505092915050565b6000612dd9826135b5565b612de381856135d1565b9350612df381856020860161372b565b612dfc816138f7565b840191505092915050565b6000612e12826135b5565b612e1c81856135e2565b9350612e2c81856020860161372b565b80840191505092915050565b6000612e456014836135d1565b9150612e5082613908565b602082019050919050565b6000612e68601d836135d1565b9150612e7382613931565b602082019050919050565b6000612e8b602b836135d1565b9150612e968261395a565b604082019050919050565b6000612eae6032836135d1565b9150612eb9826139a9565b604082019050919050565b6000612ed16026836135d1565b9150612edc826139f8565b604082019050919050565b6000612ef46025836135d1565b9150612eff82613a47565b604082019050919050565b6000612f17601c836135d1565b9150612f2282613a96565b602082019050919050565b6000612f3a6024836135d1565b9150612f4582613abf565b604082019050919050565b6000612f5d6019836135d1565b9150612f6882613b0e565b602082019050919050565b6000612f80602c836135d1565b9150612f8b82613b37565b604082019050919050565b6000612fa36010836135d1565b9150612fae82613b86565b602082019050919050565b6000612fc66038836135d1565b9150612fd182613baf565b604082019050919050565b6000612fe9602a836135d1565b9150612ff482613bfe565b604082019050919050565b600061300c6029836135d1565b915061301782613c4d565b604082019050919050565b600061302f6020836135d1565b915061303a82613c9c565b602082019050919050565b6000613052602c836135d1565b915061305d82613cc5565b604082019050919050565b60006130756016836135d1565b915061308082613d14565b602082019050919050565b60006130986020836135d1565b91506130a382613d3d565b602082019050919050565b60006130bb602f836135d1565b91506130c682613d66565b604082019050919050565b60006130de6021836135d1565b91506130e982613db5565b604082019050919050565b60006131016031836135d1565b915061310c82613e04565b604082019050919050565b6000613124602c836135d1565b915061312f82613e53565b604082019050919050565b61314381613712565b82525050565b60006131558285612e07565b91506131618284612e07565b91508190509392505050565b60006020820190506131826000830184612d77565b92915050565b600060608201905061319d6000830186612d77565b6131aa6020830185612d77565b6131b7604083018461313a565b949350505050565b60006080820190506131d46000830187612d77565b6131e16020830186612d77565b6131ee604083018561313a565b81810360608301526132008184612d95565b905095945050505050565b60006020820190506132206000830184612d86565b92915050565b600060208201905081810360008301526132408184612dce565b905092915050565b6000602082019050818103600083015261326181612e38565b9050919050565b6000602082019050818103600083015261328181612e5b565b9050919050565b600060208201905081810360008301526132a181612e7e565b9050919050565b600060208201905081810360008301526132c181612ea1565b9050919050565b600060208201905081810360008301526132e181612ec4565b9050919050565b6000602082019050818103600083015261330181612ee7565b9050919050565b6000602082019050818103600083015261332181612f0a565b9050919050565b6000602082019050818103600083015261334181612f2d565b9050919050565b6000602082019050818103600083015261336181612f50565b9050919050565b6000602082019050818103600083015261338181612f73565b9050919050565b600060208201905081810360008301526133a181612f96565b9050919050565b600060208201905081810360008301526133c181612fb9565b9050919050565b600060208201905081810360008301526133e181612fdc565b9050919050565b6000602082019050818103600083015261340181612fff565b9050919050565b6000602082019050818103600083015261342181613022565b9050919050565b6000602082019050818103600083015261344181613045565b9050919050565b6000602082019050818103600083015261346181613068565b9050919050565b600060208201905081810360008301526134818161308b565b9050919050565b600060208201905081810360008301526134a1816130ae565b9050919050565b600060208201905081810360008301526134c1816130d1565b9050919050565b600060208201905081810360008301526134e1816130f4565b9050919050565b6000602082019050818103600083015261350181613117565b9050919050565b600060208201905061351d600083018461313a565b92915050565b600061352d61353e565b90506135398282613790565b919050565b6000604051905090565b600067ffffffffffffffff821115613563576135626138c8565b5b61356c826138f7565b9050602081019050919050565b600067ffffffffffffffff821115613594576135936138c8565b5b61359d826138f7565b9050602081019050919050565b600081519050919050565b600081519050919050565b600082825260208201905092915050565b600082825260208201905092915050565b600081905092915050565b60006135f882613712565b915061360383613712565b9250827fffffffffffffffffffffffffffffffffffffffffffffffffffffffffffffffff038211156136385761363761383b565b5b828201905092915050565b600061364e82613712565b915061365983613712565b9250826136695761366861386a565b5b828204905092915050565b600061367f82613712565b915061368a83613712565b92508282101561369d5761369c61383b565b5b828203905092915050565b60006136b3826136f2565b9050919050565b60008115159050919050565b60007fffffffff0000000000000000000000000000000000000000000000000000000082169050919050565b600073ffffffffffffffffffffffffffffffffffffffff82169050919050565b6000819050919050565b82818337600083830152505050565b60005b8381101561374957808201518184015260208101905061372e565b83811115613758576000848401525b50505050565b6000600282049050600182168061377657607f821691505b6020821081141561378a57613789613899565b5b50919050565b613799826138f7565b810181811067ffffffffffffffff821117156137b8576137b76138c8565b5b80604052505050565b60006137cc82613712565b91507fffffffffffffffffffffffffffffffffffffffffffffffffffffffffffffffff8214156137ff576137fe61383b565b5b600182019050919050565b600061381582613712565b915061382083613712565b9250826138305761382f61386a565b5b828206905092915050565b7f4e487b7100000000000000000000000000000000000000000000000000000000600052601160045260246000fd5b7f4e487b7100000000000000000000000000000000000000000000000000000000600052601260045260246000fd5b7f4e487b7100000000000000000000000000000000000000000000000000000000600052602260045260246000fd5b7f4e487b7100000000000000000000000000000000000000000000000000000000600052604160045260246000fd5b6000601f19601f8301169050919050565b7f5061757361626c653a206e6f7420706175736564000000000000000000000000600082015250565b7f4572726f72202d203330204e465420616c7265616479206d696e746564000000600082015250565b7f455243373231456e756d657261626c653a206f776e657220696e646578206f7560008201527f74206f6620626f756e6473000000000000000000000000000000000000000000602082015250565b7f4552433732313a207472616e7366657220746f206e6f6e20455243373231526560008201527f63656976657220696d706c656d656e7465720000000000000000000000000000602082015250565b7f4f776e61626c653a206e6577206f776e657220697320746865207a65726f206160008201527f6464726573730000000000000000000000000000000000000000000000000000602082015250565b7f4552433732313a207472616e736665722066726f6d20696e636f72726563742060008201527f6f776e6572000000000000000000000000000000000000000000000000000000602082015250565b7f4552433732313a20746f6b656e20616c7265616479206d696e74656400000000600082015250565b7f4552433732313a207472616e7366657220746f20746865207a65726f2061646460008201527f7265737300000000000000000000000000000000000000000000000000000000602082015250565b7f4552433732313a20617070726f766520746f2063616c6c657200000000000000600082015250565b7f4552433732313a206f70657261746f7220717565727920666f72206e6f6e657860008201527f697374656e7420746f6b656e0000000000000000000000000000000000000000602082015250565b7f5061757361626c653a2070617573656400000000000000000000000000000000600082015250565b7f4552433732313a20617070726f76652063616c6c6572206973206e6f74206f7760008201527f6e6572206e6f7220617070726f76656420666f7220616c6c0000000000000000602082015250565b7f4552433732313a2062616c616e636520717565727920666f7220746865207a6560008201527f726f206164647265737300000000000000000000000000000000000000000000602082015250565b7f4552433732313a206f776e657220717565727920666f72206e6f6e657869737460008201527f656e7420746f6b656e0000000000000000000000000000000000000000000000602082015250565b7f4552433732313a206d696e7420746f20746865207a65726f2061646472657373600082015250565b7f4552433732313a20617070726f76656420717565727920666f72206e6f6e657860008201527f697374656e7420746f6b656e0000000000000000000000000000000000000000602082015250565b7f496e73756666696369656e742042616c616e6365212100000000000000000000600082015250565b7f4f776e61626c653a2063616c6c6572206973206e6f7420746865206f776e6572600082015250565b7f4552433732314d657461646174613a2055524920717565727920666f72206e6f60008201527f6e6578697374656e7420746f6b656e0000000000000000000000000000000000602082015250565b7f4552433732313a20617070726f76616c20746f2063757272656e74206f776e6560008201527f7200000000000000000000000000000000000000000000000000000000000000602082015250565b7f4552433732313a207472616e736665722063616c6c6572206973206e6f74206f60008201527f776e6572206e6f7220617070726f766564000000000000000000000000000000602082015250565b7f455243373231456e756d657261626c653a20676c6f62616c20696e646578206f60008201527f7574206f6620626f756e64730000000000000000000000000000000000000000602082015250565b613eab816136a8565b8114613eb657600080fd5b50565b613ec2816136ba565b8114613ecd57600080fd5b50565b613ed9816136c6565b8114613ee457600080fd5b50565b613ef081613712565b8114613efb57600080fd5b5056fea2646970667358221220eb395110aa1c8f89713fb654a0df3b8e0d08f7bd56f5e43bf329769583fcbb3a64736f6c63430008010033",
  "linkReferences": {},
  "deployedLinkReferences": {}
}