{
  "_format": "hh-sol-artifact-1",
  "contractName": "PS",
  "sourceName": "contracts/PS.sol",
  "abi": [
    {
      "inputs": [],
      "stateMutability": "nonpayable",
      "type": "constructor"
    },
    {
      "anonymous": false,
      "inputs": [
        {
          "indexed": true,
          "internalType": "address",
          "name": "owner",
          "type": "address"
        },
        {
          "indexed": true,
          "internalType": "address",
          "name": "approved",
          "type": "address"
        },
        {
          "indexed": true,
          "internalType": "uint256",
          "name": "tokenId",
          "type": "uint256"
        }
      ],
      "name": "Approval",
      "type": "event"
    },
    {
      "anonymous": false,
      "inputs": [
        {
          "indexed": true,
          "internalType": "address",
          "name": "owner",
          "type": "address"
        },
        {
          "indexed": true,
          "internalType": "address",
          "name": "operator",
          "type": "address"
        },
        {
          "indexed": false,
          "internalType": "bool",
          "name": "approved",
          "type": "bool"
        }
      ],
      "name": "ApprovalForAll",
      "type": "event"
    },
    {
      "anonymous": false,
      "inputs": [
        {
          "indexed": true,
          "internalType": "address",
          "name": "previousOwner",
          "type": "address"
        },
        {
          "indexed": true,
          "internalType": "address",
          "name": "newOwner",
          "type": "address"
        }
      ],
      "name": "OwnershipTransferred",
      "type": "event"
    },
    {
      "anonymous": false,
      "inputs": [
        {
          "indexed": true,
          "internalType": "address",
          "name": "from",
          "type": "address"
        },
        {
          "indexed": true,
          "internalType": "address",
          "name": "to",
          "type": "address"
        },
        {
          "indexed": true,
          "internalType": "uint256",
          "name": "tokenId",
          "type": "uint256"
        }
      ],
      "name": "Transfer",
      "type": "event"
    },
    {
      "inputs": [],
      "name": "_baseTokenURI",
      "outputs": [
        {
          "internalType": "string",
          "name": "",
          "type": "string"
        }
      ],
      "stateMutability": "view",
      "type": "function"
    },
    {
      "inputs": [
        {
          "internalType": "address",
          "name": "to",
          "type": "address"
        },
        {
          "internalType": "uint256",
          "name": "tokenId",
          "type": "uint256"
        }
      ],
      "name": "approve",
      "outputs": [],
      "stateMutability": "nonpayable",
      "type": "function"
    },
    {
      "inputs": [
        {
          "internalType": "address",
          "name": "owner",
          "type": "address"
        }
      ],
      "name": "balanceOf",
      "outputs": [
        {
          "internalType": "uint256",
          "name": "",
          "type": "uint256"
        }
      ],
      "stateMutability": "view",
      "type": "function"
    },
    {
      "inputs": [
        {
          "internalType": "uint256",
          "name": "tokenId",
          "type": "uint256"
        }
      ],
      "name": "getApproved",
      "outputs": [
        {
          "internalType": "address",
          "name": "",
          "type": "address"
        }
      ],
      "stateMutability": "view",
      "type": "function"
    },
    {
      "inputs": [
        {
          "internalType": "address",
          "name": "owner",
          "type": "address"
        },
        {
          "internalType": "address",
          "name": "operator",
          "type": "address"
        }
      ],
      "name": "isApprovedForAll",
      "outputs": [
        {
          "internalType": "bool",
          "name": "",
          "type": "bool"
        }
      ],
      "stateMutability": "view",
      "type": "function"
    },
    {
      "inputs": [
        {
          "internalType": "address",
          "name": "recipient",
          "type": "address"
        }
      ],
      "name": "mintNFTForUser",
      "outputs": [
        {
          "internalType": "uint256",
          "name": "",
          "type": "uint256"
        }
      ],
      "stateMutability": "payable",
      "type": "function"
    },
    {
      "inputs": [],
      "name": "name",
      "outputs": [
        {
          "internalType": "string",
          "name": "",
          "type": "string"
        }
      ],
      "stateMutability": "view",
      "type": "function"
    },
    {
      "inputs": [],
      "name": "owner",
      "outputs": [
        {
          "internalType": "address",
          "name": "",
          "type": "address"
        }
      ],
      "stateMutability": "view",
      "type": "function"
    },
    {
      "inputs": [
        {
          "internalType": "uint256",
          "name": "tokenId",
          "type": "uint256"
        }
      ],
      "name": "ownerOf",
      "outputs": [
        {
          "internalType": "address",
          "name": "",
          "type": "address"
        }
      ],
      "stateMutability": "view",
      "type": "function"
    },
    {
      "inputs": [
        {
          "internalType": "address",
          "name": "recipient",
          "type": "address"
        }
      ],
      "name": "presales",
      "outputs": [],
      "stateMutability": "nonpayable",
      "type": "function"
    },
    {
      "inputs": [],
      "name": "renounceOwnership",
      "outputs": [],
      "stateMutability": "nonpayable",
      "type": "function"
    },
    {
      "inputs": [
        {
          "internalType": "address",
          "name": "from",
          "type": "address"
        },
        {
          "internalType": "address",
          "name": "to",
          "type": "address"
        },
        {
          "internalType": "uint256",
          "name": "tokenId",
          "type": "uint256"
        }
      ],
      "name": "safeTransferFrom",
      "outputs": [],
      "stateMutability": "nonpayable",
      "type": "function"
    },
    {
      "inputs": [
        {
          "internalType": "address",
          "name": "from",
          "type": "address"
        },
        {
          "internalType": "address",
          "name": "to",
          "type": "address"
        },
        {
          "internalType": "uint256",
          "name": "tokenId",
          "type": "uint256"
        },
        {
          "internalType": "bytes",
          "name": "_data",
          "type": "bytes"
        }
      ],
      "name": "safeTransferFrom",
      "outputs": [],
      "stateMutability": "nonpayable",
      "type": "function"
    },
    {
      "inputs": [],
      "name": "sendEther",
      "outputs": [],
      "stateMutability": "payable",
      "type": "function"
    },
    {
      "inputs": [
        {
          "internalType": "address",
          "name": "operator",
          "type": "address"
        },
        {
          "internalType": "bool",
          "name": "approved",
          "type": "bool"
        }
      ],
      "name": "setApprovalForAll",
      "outputs": [],
      "stateMutability": "nonpayable",
      "type": "function"
    },
    {
      "inputs": [
        {
          "internalType": "string",
          "name": "baseURI",
          "type": "string"
        }
      ],
      "name": "setBaseURI",
      "outputs": [],
      "stateMutability": "nonpayable",
      "type": "function"
    },
    {
      "inputs": [
        {
          "internalType": "bool",
          "name": "_paused",
          "type": "bool"
        }
      ],
      "name": "setPaused",
      "outputs": [],
      "stateMutability": "nonpayable",
      "type": "function"
    },
    {
      "inputs": [
        {
          "internalType": "bytes4",
          "name": "interfaceId",
          "type": "bytes4"
        }
      ],
      "name": "supportsInterface",
      "outputs": [
        {
          "internalType": "bool",
          "name": "",
          "type": "bool"
        }
      ],
      "stateMutability": "view",
      "type": "function"
    },
    {
      "inputs": [],
      "name": "symbol",
      "outputs": [
        {
          "internalType": "string",
          "name": "",
          "type": "string"
        }
      ],
      "stateMutability": "view",
      "type": "function"
    },
    {
      "inputs": [
        {
          "internalType": "uint256",
          "name": "index",
          "type": "uint256"
        }
      ],
      "name": "tokenByIndex",
      "outputs": [
        {
          "internalType": "uint256",
          "name": "",
          "type": "uint256"
        }
      ],
      "stateMutability": "view",
      "type": "function"
    },
    {
      "inputs": [
        {
          "internalType": "address",
          "name": "owner",
          "type": "address"
        },
        {
          "internalType": "uint256",
          "name": "index",
          "type": "uint256"
        }
      ],
      "name": "tokenOfOwnerByIndex",
      "outputs": [
        {
          "internalType": "uint256",
          "name": "",
          "type": "uint256"
        }
      ],
      "stateMutability": "view",
      "type": "function"
    },
    {
      "inputs": [
        {
          "internalType": "uint256",
          "name": "tokenId",
          "type": "uint256"
        }
      ],
      "name": "tokenURI",
      "outputs": [
        {
          "internalType": "string",
          "name": "",
          "type": "string"
        }
      ],
      "stateMutability": "view",
      "type": "function"
    },
    {
      "inputs": [],
      "name": "totalSupply",
      "outputs": [
        {
          "internalType": "uint256",
          "name": "",
          "type": "uint256"
        }
      ],
      "stateMutability": "view",
      "type": "function"
    },
    {
      "inputs": [
        {
          "internalType": "address",
          "name": "from",
          "type": "address"
        },
        {
          "internalType": "address",
          "name": "to",
          "type": "address"
        },
        {
          "internalType": "uint256",
          "name": "tokenId",
          "type": "uint256"
        }
      ],
      "name": "transferFrom",
      "outputs": [],
      "stateMutability": "nonpayable",
      "type": "function"
    },
    {
      "inputs": [
        {
          "internalType": "address",
          "name": "newOwner",
          "type": "address"
        }
      ],
      "name": "transferOwnership",
      "outputs": [],
      "stateMutability": "nonpayable",
      "type": "function"
    }
  ],
  "bytecode": "0x60806040526040518060400160405280602081526020017f68747470733a2f2f6170692e636f6f6c636174736e66742e636f6d2f6361742f815250600c90805190602001906200005192919062000254565b5073b55fd66a86612976d79010c2f6b90275b241f1f8600d60006101000a81548173ffffffffffffffffffffffffffffffffffffffff021916908373ffffffffffffffffffffffffffffffffffffffff160217905550660110d9316ec000600e55348015620000bf57600080fd5b506040518060400160405280600281526020017f50530000000000000000000000000000000000000000000000000000000000008152506040518060400160405280600381526020017f505374000000000000000000000000000000000000000000000000000000000081525081600090805190602001906200014492919062000254565b5080600190805190602001906200015d92919062000254565b50505062000180620001746200018660201b60201c565b6200018e60201b60201c565b62000369565b600033905090565b6000600a60009054906101000a900473ffffffffffffffffffffffffffffffffffffffff16905081600a60006101000a81548173ffffffffffffffffffffffffffffffffffffffff021916908373ffffffffffffffffffffffffffffffffffffffff1602179055508173ffffffffffffffffffffffffffffffffffffffff168173ffffffffffffffffffffffffffffffffffffffff167f8be0079c531659141344cd1fd0a4f28419497f9722a3daafe3b4186f6b6457e060405160405180910390a35050565b828054620002629062000304565b90600052602060002090601f016020900481019282620002865760008555620002d2565b82601f10620002a157805160ff1916838001178555620002d2565b82800160010185558215620002d2579182015b82811115620002d1578251825591602001919060010190620002b4565b5b509050620002e19190620002e5565b5090565b5b8082111562000300576000816000905550600101620002e6565b5090565b600060028204905060018216806200031d57607f821691505b602082108114156200033457620003336200033a565b5b50919050565b7f4e487b7100000000000000000000000000000000000000000000000000000000600052602260045260246000fd5b613c1380620003796000396000f3fe6080604052600436106101665760003560e01c80636352211e116100d1578063a22cb4651161008a578063cfc86f7b11610064578063cfc86f7b14610532578063e985e9c51461055d578063efcd708f1461059a578063f2fde38b146105c357610166565b8063a22cb465146104a3578063b88d4fde146104cc578063c87b56dd146104f557610166565b80636352211e1461038c57806370a08231146103c9578063715018a6146104065780637d7f981d1461041d5780638da5cb5b1461044d57806395d89b411461047857610166565b806318160ddd1161012357806318160ddd1461026c57806323b872dd146102975780632f745c59146102c057806342842e0e146102fd5780634f6ccce71461032657806355f804b31461036357610166565b806301ffc9a71461016b57806306fdde03146101a8578063081812fc146101d3578063095ea7b3146102105780630e29df221461023957806316c38b3c14610243575b600080fd5b34801561017757600080fd5b50610192600480360381019061018d9190612a17565b6105ec565b60405161019f9190612f0d565b60405180910390f35b3480156101b457600080fd5b506101bd610666565b6040516101ca9190612f28565b60405180910390f35b3480156101df57600080fd5b506101fa60048036038101906101f59190612aaa565b6106f8565b6040516102079190612ea6565b60405180910390f35b34801561021c57600080fd5b50610237600480360381019061023291906129b2565b61077d565b005b610241610895565b005b34801561024f57600080fd5b5061026a600480360381019061026591906129ee565b610908565b005b34801561027857600080fd5b506102816109b5565b60405161028e91906131ea565b60405180910390f35b3480156102a357600080fd5b506102be60048036038101906102b991906128ac565b6109c2565b005b3480156102cc57600080fd5b506102e760048036038101906102e291906129b2565b610a22565b6040516102f491906131ea565b60405180910390f35b34801561030957600080fd5b50610324600480360381019061031f91906128ac565b610ac7565b005b34801561033257600080fd5b5061034d60048036038101906103489190612aaa565b610ae7565b60405161035a91906131ea565b60405180910390f35b34801561036f57600080fd5b5061038a60048036038101906103859190612a69565b610b7e565b005b34801561039857600080fd5b506103b360048036038101906103ae9190612aaa565b610c14565b6040516103c09190612ea6565b60405180910390f35b3480156103d557600080fd5b506103f060048036038101906103eb9190612847565b610cc6565b6040516103fd91906131ea565b60405180910390f35b34801561041257600080fd5b5061041b610d7e565b005b61043760048036038101906104329190612847565b610e06565b60405161044491906131ea565b60405180910390f35b34801561045957600080fd5b50610462610eda565b60405161046f9190612ea6565b60405180910390f35b34801561048457600080fd5b5061048d610f04565b60405161049a9190612f28565b60405180910390f35b3480156104af57600080fd5b506104ca60048036038101906104c59190612976565b610f96565b005b3480156104d857600080fd5b506104f360048036038101906104ee91906128fb565b610fac565b005b34801561050157600080fd5b5061051c60048036038101906105179190612aaa565b61100e565b6040516105299190612f28565b60405180910390f35b34801561053e57600080fd5b506105476110b5565b6040516105549190612f28565b60405180910390f35b34801561056957600080fd5b50610584600480360381019061057f9190612870565b611143565b6040516105919190612f0d565b60405180910390f35b3480156105a657600080fd5b506105c160048036038101906105bc9190612847565b6111d7565b005b3480156105cf57600080fd5b506105ea60048036038101906105e59190612847565b611299565b005b60007f780e9d63000000000000000000000000000000000000000000000000000000007bffffffffffffffffffffffffffffffffffffffffffffffffffffffff1916827bffffffffffffffffffffffffffffffffffffffffffffffffffffffff1916148061065f575061065e82611391565b5b9050919050565b60606000805461067590613440565b80601f01602080910402602001604051908101604052809291908181526020018280546106a190613440565b80156106ee5780601f106106c3576101008083540402835291602001916106ee565b820191906000526020600020905b8154815290600101906020018083116106d157829003601f168201915b5050505050905090565b600061070382611473565b610742576040517f08c379a00000000000000000000000000000000000000000000000000000000081526004016107399061310a565b60405180910390fd5b6004600083815260200190815260200160002060009054906101000a900473ffffffffffffffffffffffffffffffffffffffff169050919050565b600061078882610c14565b90508073ffffffffffffffffffffffffffffffffffffffff168373ffffffffffffffffffffffffffffffffffffffff1614156107f9576040517f08c379a00000000000000000000000000000000000000000000000000000000081526004016107f09061316a565b60405180910390fd5b8073ffffffffffffffffffffffffffffffffffffffff166108186114df565b73ffffffffffffffffffffffffffffffffffffffff1614806108475750610846816108416114df565b611143565b5b610886576040517f08c379a000000000000000000000000000000000000000000000000000000000815260040161087d9061308a565b60405180910390fd5b61089083836114e7565b505050565b6000600d60009054906101000a900473ffffffffffffffffffffffffffffffffffffffff1690508073ffffffffffffffffffffffffffffffffffffffff166108fc600e549081150290604051600060405180830381858888f19350505050158015610904573d6000803e3d6000fd5b5050565b600d60009054906101000a900473ffffffffffffffffffffffffffffffffffffffff1673ffffffffffffffffffffffffffffffffffffffff163373ffffffffffffffffffffffffffffffffffffffff1614610998576040517f08c379a000000000000000000000000000000000000000000000000000000000815260040161098f9061304a565b60405180910390fd5b80600f60006101000a81548160ff02191690831515021790555050565b6000600880549050905090565b6109d36109cd6114df565b826115a0565b610a12576040517f08c379a0000000000000000000000000000000000000000000000000000000008152600401610a09906131aa565b60405180910390fd5b610a1d83838361167e565b505050565b6000610a2d83610cc6565b8210610a6e576040517f08c379a0000000000000000000000000000000000000000000000000000000008152600401610a6590612f4a565b60405180910390fd5b600660008473ffffffffffffffffffffffffffffffffffffffff1673ffffffffffffffffffffffffffffffffffffffff168152602001908152602001600020600083815260200190815260200160002054905092915050565b610ae283838360405180602001604052806000815250610fac565b505050565b6000610af16109b5565b8210610b32576040517f08c379a0000000000000000000000000000000000000000000000000000000008152600401610b29906131ca565b60405180910390fd5b60088281548110610b6c577f4e487b7100000000000000000000000000000000000000000000000000000000600052603260045260246000fd5b90600052602060002001549050919050565b610b866114df565b73ffffffffffffffffffffffffffffffffffffffff16610ba4610eda565b73ffffffffffffffffffffffffffffffffffffffff1614610bfa576040517f08c379a0000000000000000000000000000000000000000000000000000000008152600401610bf19061312a565b60405180910390fd5b80600c9080519060200190610c1092919061266b565b5050565b6000806002600084815260200190815260200160002060009054906101000a900473ffffffffffffffffffffffffffffffffffffffff169050600073ffffffffffffffffffffffffffffffffffffffff168173ffffffffffffffffffffffffffffffffffffffff161415610cbd576040517f08c379a0000000000000000000000000000000000000000000000000000000008152600401610cb4906130ca565b60405180910390fd5b80915050919050565b60008073ffffffffffffffffffffffffffffffffffffffff168273ffffffffffffffffffffffffffffffffffffffff161415610d37576040517f08c379a0000000000000000000000000000000000000000000000000000000008152600401610d2e906130aa565b60405180910390fd5b600360008373ffffffffffffffffffffffffffffffffffffffff1673ffffffffffffffffffffffffffffffffffffffff168152602001908152602001600020549050919050565b610d866114df565b73ffffffffffffffffffffffffffffffffffffffff16610da4610eda565b73ffffffffffffffffffffffffffffffffffffffff1614610dfa576040517f08c379a0000000000000000000000000000000000000000000000000000000008152600401610df19061312a565b60405180910390fd5b610e0460006118e5565b565b6000801515600f60009054906101000a900460ff16151514610e5d576040517f08c379a0000000000000000000000000000000000000000000000000000000008152600401610e5490612f8a565b60405180910390fd5b610e65610895565b610e6f600b6119ab565b6000610e7b600b6119c1565b9050601f610e876109b5565b10610ec7576040517f08c379a0000000000000000000000000000000000000000000000000000000008152600401610ebe9061318a565b60405180910390fd5b610ed183826119cf565b80915050919050565b6000600a60009054906101000a900473ffffffffffffffffffffffffffffffffffffffff16905090565b606060018054610f1390613440565b80601f0160208091040260200160405190810160405280929190818152602001828054610f3f90613440565b8015610f8c5780601f10610f6157610100808354040283529160200191610f8c565b820191906000526020600020905b815481529060010190602001808311610f6f57829003601f168201915b5050505050905090565b610fa8610fa16114df565b8383611ba9565b5050565b610fbd610fb76114df565b836115a0565b610ffc576040517f08c379a0000000000000000000000000000000000000000000000000000000008152600401610ff3906131aa565b60405180910390fd5b61100884848484611d16565b50505050565b606061101982611473565b611058576040517f08c379a000000000000000000000000000000000000000000000000000000000815260040161104f9061314a565b60405180910390fd5b6000611062611d72565b9050600081511161108257604051806020016040528060008152506110ad565b8061108c84611e04565b60405160200161109d929190612e82565b6040516020818303038152906040525b915050919050565b600c80546110c290613440565b80601f01602080910402602001604051908101604052809291908181526020018280546110ee90613440565b801561113b5780601f106111105761010080835404028352916020019161113b565b820191906000526020600020905b81548152906001019060200180831161111e57829003601f168201915b505050505081565b6000600560008473ffffffffffffffffffffffffffffffffffffffff1673ffffffffffffffffffffffffffffffffffffffff16815260200190815260200160002060008373ffffffffffffffffffffffffffffffffffffffff1673ffffffffffffffffffffffffffffffffffffffff16815260200190815260200160002060009054906101000a900460ff16905092915050565b6111df6114df565b73ffffffffffffffffffffffffffffffffffffffff166111fd610eda565b73ffffffffffffffffffffffffffffffffffffffff1614611253576040517f08c379a000000000000000000000000000000000000000000000000000000000815260040161124a9061312a565b60405180910390fd5b60005b600581101561129557611269600b6119ab565b6000611275600b6119c1565b905061128183826119cf565b50808061128d906134a3565b915050611256565b5050565b6112a16114df565b73ffffffffffffffffffffffffffffffffffffffff166112bf610eda565b73ffffffffffffffffffffffffffffffffffffffff1614611315576040517f08c379a000000000000000000000000000000000000000000000000000000000815260040161130c9061312a565b60405180910390fd5b600073ffffffffffffffffffffffffffffffffffffffff168173ffffffffffffffffffffffffffffffffffffffff161415611385576040517f08c379a000000000000000000000000000000000000000000000000000000000815260040161137c90612faa565b60405180910390fd5b61138e816118e5565b50565b60007f80ac58cd000000000000000000000000000000000000000000000000000000007bffffffffffffffffffffffffffffffffffffffffffffffffffffffff1916827bffffffffffffffffffffffffffffffffffffffffffffffffffffffff1916148061145c57507f5b5e139f000000000000000000000000000000000000000000000000000000007bffffffffffffffffffffffffffffffffffffffffffffffffffffffff1916827bffffffffffffffffffffffffffffffffffffffffffffffffffffffff1916145b8061146c575061146b82611fb1565b5b9050919050565b60008073ffffffffffffffffffffffffffffffffffffffff166002600084815260200190815260200160002060009054906101000a900473ffffffffffffffffffffffffffffffffffffffff1673ffffffffffffffffffffffffffffffffffffffff1614159050919050565b600033905090565b816004600083815260200190815260200160002060006101000a81548173ffffffffffffffffffffffffffffffffffffffff021916908373ffffffffffffffffffffffffffffffffffffffff160217905550808273ffffffffffffffffffffffffffffffffffffffff1661155a83610c14565b73ffffffffffffffffffffffffffffffffffffffff167f8c5be1e5ebec7d5bd14f71427d1e84f3dd0314c0f7b2291e5b200ac8c7c3b92560405160405180910390a45050565b60006115ab82611473565b6115ea576040517f08c379a00000000000000000000000000000000000000000000000000000000081526004016115e19061306a565b60405180910390fd5b60006115f583610c14565b90508073ffffffffffffffffffffffffffffffffffffffff168473ffffffffffffffffffffffffffffffffffffffff16148061163757506116368185611143565b5b8061167557508373ffffffffffffffffffffffffffffffffffffffff1661165d846106f8565b73ffffffffffffffffffffffffffffffffffffffff16145b91505092915050565b8273ffffffffffffffffffffffffffffffffffffffff1661169e82610c14565b73ffffffffffffffffffffffffffffffffffffffff16146116f4576040517f08c379a00000000000000000000000000000000000000000000000000000000081526004016116eb90612fca565b60405180910390fd5b600073ffffffffffffffffffffffffffffffffffffffff168273ffffffffffffffffffffffffffffffffffffffff161415611764576040517f08c379a000000000000000000000000000000000000000000000000000000000815260040161175b9061300a565b60405180910390fd5b61176f83838361201b565b61177a6000826114e7565b6001600360008573ffffffffffffffffffffffffffffffffffffffff1673ffffffffffffffffffffffffffffffffffffffff16815260200190815260200160002060008282546117ca9190613356565b925050819055506001600360008473ffffffffffffffffffffffffffffffffffffffff1673ffffffffffffffffffffffffffffffffffffffff168152602001908152602001600020600082825461182191906132cf565b92505081905550816002600083815260200190815260200160002060006101000a81548173ffffffffffffffffffffffffffffffffffffffff021916908373ffffffffffffffffffffffffffffffffffffffff160217905550808273ffffffffffffffffffffffffffffffffffffffff168473ffffffffffffffffffffffffffffffffffffffff167fddf252ad1be2c89b69c2b068fc378daa952ba7f163c4a11628f55a4df523b3ef60405160405180910390a46118e083838361212f565b505050565b6000600a60009054906101000a900473ffffffffffffffffffffffffffffffffffffffff16905081600a60006101000a81548173ffffffffffffffffffffffffffffffffffffffff021916908373ffffffffffffffffffffffffffffffffffffffff1602179055508173ffffffffffffffffffffffffffffffffffffffff168173ffffffffffffffffffffffffffffffffffffffff167f8be0079c531659141344cd1fd0a4f28419497f9722a3daafe3b4186f6b6457e060405160405180910390a35050565b6001816000016000828254019250508190555050565b600081600001549050919050565b600073ffffffffffffffffffffffffffffffffffffffff168273ffffffffffffffffffffffffffffffffffffffff161415611a3f576040517f08c379a0000000000000000000000000000000000000000000000000000000008152600401611a36906130ea565b60405180910390fd5b611a4881611473565b15611a88576040517f08c379a0000000000000000000000000000000000000000000000000000000008152600401611a7f90612fea565b60405180910390fd5b611a946000838361201b565b6001600360008473ffffffffffffffffffffffffffffffffffffffff1673ffffffffffffffffffffffffffffffffffffffff1681526020019081526020016000206000828254611ae491906132cf565b92505081905550816002600083815260200190815260200160002060006101000a81548173ffffffffffffffffffffffffffffffffffffffff021916908373ffffffffffffffffffffffffffffffffffffffff160217905550808273ffffffffffffffffffffffffffffffffffffffff16600073ffffffffffffffffffffffffffffffffffffffff167fddf252ad1be2c89b69c2b068fc378daa952ba7f163c4a11628f55a4df523b3ef60405160405180910390a4611ba56000838361212f565b5050565b8173ffffffffffffffffffffffffffffffffffffffff168373ffffffffffffffffffffffffffffffffffffffff161415611c18576040517f08c379a0000000000000000000000000000000000000000000000000000000008152600401611c0f9061302a565b60405180910390fd5b80600560008573ffffffffffffffffffffffffffffffffffffffff1673ffffffffffffffffffffffffffffffffffffffff16815260200190815260200160002060008473ffffffffffffffffffffffffffffffffffffffff1673ffffffffffffffffffffffffffffffffffffffff16815260200190815260200160002060006101000a81548160ff0219169083151502179055508173ffffffffffffffffffffffffffffffffffffffff168373ffffffffffffffffffffffffffffffffffffffff167f17307eab39ab6107e8899845ad3d59bd9653f200f220920489ca2b5937696c3183604051611d099190612f0d565b60405180910390a3505050565b611d2184848461167e565b611d2d84848484612134565b611d6c576040517f08c379a0000000000000000000000000000000000000000000000000000000008152600401611d6390612f6a565b60405180910390fd5b50505050565b6060600c8054611d8190613440565b80601f0160208091040260200160405190810160405280929190818152602001828054611dad90613440565b8015611dfa5780601f10611dcf57610100808354040283529160200191611dfa565b820191906000526020600020905b815481529060010190602001808311611ddd57829003601f168201915b5050505050905090565b60606000821415611e4c576040518060400160405280600181526020017f30000000000000000000000000000000000000000000000000000000000000008152509050611fac565b600082905060005b60008214611e7e578080611e67906134a3565b915050600a82611e779190613325565b9150611e54565b60008167ffffffffffffffff811115611ec0577f4e487b7100000000000000000000000000000000000000000000000000000000600052604160045260246000fd5b6040519080825280601f01601f191660200182016040528015611ef25781602001600182028036833780820191505090505b5090505b60008514611fa557600182611f0b9190613356565b9150600a85611f1a91906134ec565b6030611f2691906132cf565b60f81b818381518110611f62577f4e487b7100000000000000000000000000000000000000000000000000000000600052603260045260246000fd5b60200101907effffffffffffffffffffffffffffffffffffffffffffffffffffffffffffff1916908160001a905350600a85611f9e9190613325565b9450611ef6565b8093505050505b919050565b60007f01ffc9a7000000000000000000000000000000000000000000000000000000007bffffffffffffffffffffffffffffffffffffffffffffffffffffffff1916827bffffffffffffffffffffffffffffffffffffffffffffffffffffffff1916149050919050565b6120268383836122cb565b600073ffffffffffffffffffffffffffffffffffffffff168373ffffffffffffffffffffffffffffffffffffffff16141561206957612064816122d0565b6120a8565b8173ffffffffffffffffffffffffffffffffffffffff168373ffffffffffffffffffffffffffffffffffffffff16146120a7576120a68382612319565b5b5b600073ffffffffffffffffffffffffffffffffffffffff168273ffffffffffffffffffffffffffffffffffffffff1614156120eb576120e681612486565b61212a565b8273ffffffffffffffffffffffffffffffffffffffff168273ffffffffffffffffffffffffffffffffffffffff16146121295761212882826125c9565b5b5b505050565b505050565b60006121558473ffffffffffffffffffffffffffffffffffffffff16612648565b156122be578373ffffffffffffffffffffffffffffffffffffffff1663150b7a0261217e6114df565b8786866040518563ffffffff1660e01b81526004016121a09493929190612ec1565b602060405180830381600087803b1580156121ba57600080fd5b505af19250505080156121eb57506040513d601f19601f820116820180604052508101906121e89190612a40565b60015b61226e573d806000811461221b576040519150601f19603f3d011682016040523d82523d6000602084013e612220565b606091505b50600081511415612266576040517f08c379a000000000000000000000000000000000000000000000000000000000815260040161225d90612f6a565b60405180910390fd5b805181602001fd5b63150b7a0260e01b7bffffffffffffffffffffffffffffffffffffffffffffffffffffffff1916817bffffffffffffffffffffffffffffffffffffffffffffffffffffffff1916149150506122c3565b600190505b949350505050565b505050565b6008805490506009600083815260200190815260200160002081905550600881908060018154018082558091505060019003906000526020600020016000909190919091505550565b6000600161232684610cc6565b6123309190613356565b9050600060076000848152602001908152602001600020549050818114612415576000600660008673ffffffffffffffffffffffffffffffffffffffff1673ffffffffffffffffffffffffffffffffffffffff168152602001908152602001600020600084815260200190815260200160002054905080600660008773ffffffffffffffffffffffffffffffffffffffff1673ffffffffffffffffffffffffffffffffffffffff168152602001908152602001600020600084815260200190815260200160002081905550816007600083815260200190815260200160002081905550505b6007600084815260200190815260200160002060009055600660008573ffffffffffffffffffffffffffffffffffffffff1673ffffffffffffffffffffffffffffffffffffffff16815260200190815260200160002060008381526020019081526020016000206000905550505050565b6000600160088054905061249a9190613356565b90506000600960008481526020019081526020016000205490506000600883815481106124f0577f4e487b7100000000000000000000000000000000000000000000000000000000600052603260045260246000fd5b906000526020600020015490508060088381548110612538577f4e487b7100000000000000000000000000000000000000000000000000000000600052603260045260246000fd5b9060005260206000200181905550816009600083815260200190815260200160002081905550600960008581526020019081526020016000206000905560088054806125ad577f4e487b7100000000000000000000000000000000000000000000000000000000600052603160045260246000fd5b6001900381819060005260206000200160009055905550505050565b60006125d483610cc6565b905081600660008573ffffffffffffffffffffffffffffffffffffffff1673ffffffffffffffffffffffffffffffffffffffff168152602001908152602001600020600083815260200190815260200160002081905550806007600084815260200190815260200160002081905550505050565b6000808273ffffffffffffffffffffffffffffffffffffffff163b119050919050565b82805461267790613440565b90600052602060002090601f01602090048101928261269957600085556126e0565b82601f106126b257805160ff19168380011785556126e0565b828001600101855582156126e0579182015b828111156126df5782518255916020019190600101906126c4565b5b5090506126ed91906126f1565b5090565b5b8082111561270a5760008160009055506001016126f2565b5090565b600061272161271c8461322a565b613205565b90508281526020810184848401111561273957600080fd5b6127448482856133fe565b509392505050565b600061275f61275a8461325b565b613205565b90508281526020810184848401111561277757600080fd5b6127828482856133fe565b509392505050565b60008135905061279981613b81565b92915050565b6000813590506127ae81613b98565b92915050565b6000813590506127c381613baf565b92915050565b6000815190506127d881613baf565b92915050565b600082601f8301126127ef57600080fd5b81356127ff84826020860161270e565b91505092915050565b600082601f83011261281957600080fd5b813561282984826020860161274c565b91505092915050565b60008135905061284181613bc6565b92915050565b60006020828403121561285957600080fd5b60006128678482850161278a565b91505092915050565b6000806040838503121561288357600080fd5b60006128918582860161278a565b92505060206128a28582860161278a565b9150509250929050565b6000806000606084860312156128c157600080fd5b60006128cf8682870161278a565b93505060206128e08682870161278a565b92505060406128f186828701612832565b9150509250925092565b6000806000806080858703121561291157600080fd5b600061291f8782880161278a565b94505060206129308782880161278a565b935050604061294187828801612832565b925050606085013567ffffffffffffffff81111561295e57600080fd5b61296a878288016127de565b91505092959194509250565b6000806040838503121561298957600080fd5b60006129978582860161278a565b92505060206129a88582860161279f565b9150509250929050565b600080604083850312156129c557600080fd5b60006129d38582860161278a565b92505060206129e485828601612832565b9150509250929050565b600060208284031215612a0057600080fd5b6000612a0e8482850161279f565b91505092915050565b600060208284031215612a2957600080fd5b6000612a37848285016127b4565b91505092915050565b600060208284031215612a5257600080fd5b6000612a60848285016127c9565b91505092915050565b600060208284031215612a7b57600080fd5b600082013567ffffffffffffffff811115612a9557600080fd5b612aa184828501612808565b91505092915050565b600060208284031215612abc57600080fd5b6000612aca84828501612832565b91505092915050565b612adc8161338a565b82525050565b612aeb8161339c565b82525050565b6000612afc8261328c565b612b0681856132a2565b9350612b1681856020860161340d565b612b1f816135d9565b840191505092915050565b6000612b3582613297565b612b3f81856132b3565b9350612b4f81856020860161340d565b612b58816135d9565b840191505092915050565b6000612b6e82613297565b612b7881856132c4565b9350612b8881856020860161340d565b80840191505092915050565b6000612ba1602b836132b3565b9150612bac826135ea565b604082019050919050565b6000612bc46032836132b3565b9150612bcf82613639565b604082019050919050565b6000612be76012836132b3565b9150612bf282613688565b602082019050919050565b6000612c0a6026836132b3565b9150612c15826136b1565b604082019050919050565b6000612c2d6025836132b3565b9150612c3882613700565b604082019050919050565b6000612c50601c836132b3565b9150612c5b8261374f565b602082019050919050565b6000612c736024836132b3565b9150612c7e82613778565b604082019050919050565b6000612c966019836132b3565b9150612ca1826137c7565b602082019050919050565b6000612cb96015836132b3565b9150612cc4826137f0565b602082019050919050565b6000612cdc602c836132b3565b9150612ce782613819565b604082019050919050565b6000612cff6038836132b3565b9150612d0a82613868565b604082019050919050565b6000612d22602a836132b3565b9150612d2d826138b7565b604082019050919050565b6000612d456029836132b3565b9150612d5082613906565b604082019050919050565b6000612d686020836132b3565b9150612d7382613955565b602082019050919050565b6000612d8b602c836132b3565b9150612d968261397e565b604082019050919050565b6000612dae6020836132b3565b9150612db9826139cd565b602082019050919050565b6000612dd1602f836132b3565b9150612ddc826139f6565b604082019050919050565b6000612df46021836132b3565b9150612dff82613a45565b604082019050919050565b6000612e176021836132b3565b9150612e2282613a94565b604082019050919050565b6000612e3a6031836132b3565b9150612e4582613ae3565b604082019050919050565b6000612e5d602c836132b3565b9150612e6882613b32565b604082019050919050565b612e7c816133f4565b82525050565b6000612e8e8285612b63565b9150612e9a8284612b63565b91508190509392505050565b6000602082019050612ebb6000830184612ad3565b92915050565b6000608082019050612ed66000830187612ad3565b612ee36020830186612ad3565b612ef06040830185612e73565b8181036060830152612f028184612af1565b905095945050505050565b6000602082019050612f226000830184612ae2565b92915050565b60006020820190508181036000830152612f428184612b2a565b905092915050565b60006020820190508181036000830152612f6381612b94565b9050919050565b60006020820190508181036000830152612f8381612bb7565b9050919050565b60006020820190508181036000830152612fa381612bda565b9050919050565b60006020820190508181036000830152612fc381612bfd565b9050919050565b60006020820190508181036000830152612fe381612c20565b9050919050565b6000602082019050818103600083015261300381612c43565b9050919050565b6000602082019050818103600083015261302381612c66565b9050919050565b6000602082019050818103600083015261304381612c89565b9050919050565b6000602082019050818103600083015261306381612cac565b9050919050565b6000602082019050818103600083015261308381612ccf565b9050919050565b600060208201905081810360008301526130a381612cf2565b9050919050565b600060208201905081810360008301526130c381612d15565b9050919050565b600060208201905081810360008301526130e381612d38565b9050919050565b6000602082019050818103600083015261310381612d5b565b9050919050565b6000602082019050818103600083015261312381612d7e565b9050919050565b6000602082019050818103600083015261314381612da1565b9050919050565b6000602082019050818103600083015261316381612dc4565b9050919050565b6000602082019050818103600083015261318381612de7565b9050919050565b600060208201905081810360008301526131a381612e0a565b9050919050565b600060208201905081810360008301526131c381612e2d565b9050919050565b600060208201905081810360008301526131e381612e50565b9050919050565b60006020820190506131ff6000830184612e73565b92915050565b600061320f613220565b905061321b8282613472565b919050565b6000604051905090565b600067ffffffffffffffff821115613245576132446135aa565b5b61324e826135d9565b9050602081019050919050565b600067ffffffffffffffff821115613276576132756135aa565b5b61327f826135d9565b9050602081019050919050565b600081519050919050565b600081519050919050565b600082825260208201905092915050565b600082825260208201905092915050565b600081905092915050565b60006132da826133f4565b91506132e5836133f4565b9250827fffffffffffffffffffffffffffffffffffffffffffffffffffffffffffffffff0382111561331a5761331961351d565b5b828201905092915050565b6000613330826133f4565b915061333b836133f4565b92508261334b5761334a61354c565b5b828204905092915050565b6000613361826133f4565b915061336c836133f4565b92508282101561337f5761337e61351d565b5b828203905092915050565b6000613395826133d4565b9050919050565b60008115159050919050565b60007fffffffff0000000000000000000000000000000000000000000000000000000082169050919050565b600073ffffffffffffffffffffffffffffffffffffffff82169050919050565b6000819050919050565b82818337600083830152505050565b60005b8381101561342b578082015181840152602081019050613410565b8381111561343a576000848401525b50505050565b6000600282049050600182168061345857607f821691505b6020821081141561346c5761346b61357b565b5b50919050565b61347b826135d9565b810181811067ffffffffffffffff8211171561349a576134996135aa565b5b80604052505050565b60006134ae826133f4565b91507fffffffffffffffffffffffffffffffffffffffffffffffffffffffffffffffff8214156134e1576134e061351d565b5b600182019050919050565b60006134f7826133f4565b9150613502836133f4565b9250826135125761351161354c565b5b828206905092915050565b7f4e487b7100000000000000000000000000000000000000000000000000000000600052601160045260246000fd5b7f4e487b7100000000000000000000000000000000000000000000000000000000600052601260045260246000fd5b7f4e487b7100000000000000000000000000000000000000000000000000000000600052602260045260246000fd5b7f4e487b7100000000000000000000000000000000000000000000000000000000600052604160045260246000fd5b6000601f19601f8301169050919050565b7f455243373231456e756d657261626c653a206f776e657220696e646578206f7560008201527f74206f6620626f756e6473000000000000000000000000000000000000000000602082015250565b7f4552433732313a207472616e7366657220746f206e6f6e20455243373231526560008201527f63656976657220696d706c656d656e7465720000000000000000000000000000602082015250565b7f436f6e7472616374205061757365642021210000000000000000000000000000600082015250565b7f4f776e61626c653a206e6577206f776e657220697320746865207a65726f206160008201527f6464726573730000000000000000000000000000000000000000000000000000602082015250565b7f4552433732313a207472616e736665722066726f6d20696e636f72726563742060008201527f6f776e6572000000000000000000000000000000000000000000000000000000602082015250565b7f4552433732313a20746f6b656e20616c7265616479206d696e74656400000000600082015250565b7f4552433732313a207472616e7366657220746f20746865207a65726f2061646460008201527f7265737300000000000000000000000000000000000000000000000000000000602082015250565b7f4552433732313a20617070726f766520746f2063616c6c657200000000000000600082015250565b7f596f7520617265206e6f7420746865206f776e65720000000000000000000000600082015250565b7f4552433732313a206f70657261746f7220717565727920666f72206e6f6e657860008201527f697374656e7420746f6b656e0000000000000000000000000000000000000000602082015250565b7f4552433732313a20617070726f76652063616c6c6572206973206e6f74206f7760008201527f6e6572206e6f7220617070726f76656420666f7220616c6c0000000000000000602082015250565b7f4552433732313a2062616c616e636520717565727920666f7220746865207a6560008201527f726f206164647265737300000000000000000000000000000000000000000000602082015250565b7f4552433732313a206f776e657220717565727920666f72206e6f6e657869737460008201527f656e7420746f6b656e0000000000000000000000000000000000000000000000602082015250565b7f4552433732313a206d696e7420746f20746865207a65726f2061646472657373600082015250565b7f4552433732313a20617070726f76656420717565727920666f72206e6f6e657860008201527f697374656e7420746f6b656e0000000000000000000000000000000000000000602082015250565b7f4f776e61626c653a2063616c6c6572206973206e6f7420746865206f776e6572600082015250565b7f4552433732314d657461646174613a2055524920717565727920666f72206e6f60008201527f6e6578697374656e7420746f6b656e0000000000000000000000000000000000602082015250565b7f4552433732313a20617070726f76616c20746f2063757272656e74206f776e6560008201527f7200000000000000000000000000000000000000000000000000000000000000602082015250565b7f4572726f72202d203330204e465420616c7265616479206d696e7465642e202160008201527f2100000000000000000000000000000000000000000000000000000000000000602082015250565b7f4552433732313a207472616e736665722063616c6c6572206973206e6f74206f60008201527f776e6572206e6f7220617070726f766564000000000000000000000000000000602082015250565b7f455243373231456e756d657261626c653a20676c6f62616c20696e646578206f60008201527f7574206f6620626f756e64730000000000000000000000000000000000000000602082015250565b613b8a8161338a565b8114613b9557600080fd5b50565b613ba18161339c565b8114613bac57600080fd5b50565b613bb8816133a8565b8114613bc357600080fd5b50565b613bcf816133f4565b8114613bda57600080fd5b5056fea264697066735822122024d229f9f9ba2eb22deec44fa890fd8b7ab600a39bc12640c586765a4b9c019064736f6c63430008010033",
  "linkReferences": {},
  "deployedLinkReferences": {}
}