{
  "_format": "hh-sol-artifact-1",
  "contractName": "PS",
  "sourceName": "contracts/PS.sol",
  "abi": [
    {
      "inputs": [],
      "stateMutability": "nonpayable",
      "type": "constructor"
    },
    {
      "anonymous": false,
      "inputs": [
        {
          "indexed": true,
          "internalType": "address",
          "name": "owner",
          "type": "address"
        },
        {
          "indexed": true,
          "internalType": "address",
          "name": "approved",
          "type": "address"
        },
        {
          "indexed": true,
          "internalType": "uint256",
          "name": "tokenId",
          "type": "uint256"
        }
      ],
      "name": "Approval",
      "type": "event"
    },
    {
      "anonymous": false,
      "inputs": [
        {
          "indexed": true,
          "internalType": "address",
          "name": "owner",
          "type": "address"
        },
        {
          "indexed": true,
          "internalType": "address",
          "name": "operator",
          "type": "address"
        },
        {
          "indexed": false,
          "internalType": "bool",
          "name": "approved",
          "type": "bool"
        }
      ],
      "name": "ApprovalForAll",
      "type": "event"
    },
    {
      "anonymous": false,
      "inputs": [
        {
          "indexed": true,
          "internalType": "address",
          "name": "previousOwner",
          "type": "address"
        },
        {
          "indexed": true,
          "internalType": "address",
          "name": "newOwner",
          "type": "address"
        }
      ],
      "name": "OwnershipTransferred",
      "type": "event"
    },
    {
      "anonymous": false,
      "inputs": [
        {
          "indexed": false,
          "internalType": "address",
          "name": "account",
          "type": "address"
        }
      ],
      "name": "Paused",
      "type": "event"
    },
    {
      "anonymous": false,
      "inputs": [
        {
          "indexed": true,
          "internalType": "address",
          "name": "from",
          "type": "address"
        },
        {
          "indexed": true,
          "internalType": "address",
          "name": "to",
          "type": "address"
        },
        {
          "indexed": true,
          "internalType": "uint256",
          "name": "tokenId",
          "type": "uint256"
        }
      ],
      "name": "Transfer",
      "type": "event"
    },
    {
      "anonymous": false,
      "inputs": [
        {
          "indexed": false,
          "internalType": "address",
          "name": "account",
          "type": "address"
        }
      ],
      "name": "Unpaused",
      "type": "event"
    },
    {
      "inputs": [],
      "name": "_baseTokenURI",
      "outputs": [
        {
          "internalType": "string",
          "name": "",
          "type": "string"
        }
      ],
      "stateMutability": "view",
      "type": "function"
    },
    {
      "inputs": [
        {
          "internalType": "address",
          "name": "to",
          "type": "address"
        },
        {
          "internalType": "uint256",
          "name": "tokenId",
          "type": "uint256"
        }
      ],
      "name": "approve",
      "outputs": [],
      "stateMutability": "nonpayable",
      "type": "function"
    },
    {
      "inputs": [
        {
          "internalType": "address",
          "name": "owner",
          "type": "address"
        }
      ],
      "name": "balanceOf",
      "outputs": [
        {
          "internalType": "uint256",
          "name": "",
          "type": "uint256"
        }
      ],
      "stateMutability": "view",
      "type": "function"
    },
    {
      "inputs": [
        {
          "internalType": "uint256",
          "name": "tokenId",
          "type": "uint256"
        }
      ],
      "name": "getApproved",
      "outputs": [
        {
          "internalType": "address",
          "name": "",
          "type": "address"
        }
      ],
      "stateMutability": "view",
      "type": "function"
    },
    {
      "inputs": [
        {
          "internalType": "address",
          "name": "owner",
          "type": "address"
        },
        {
          "internalType": "address",
          "name": "operator",
          "type": "address"
        }
      ],
      "name": "isApprovedForAll",
      "outputs": [
        {
          "internalType": "bool",
          "name": "",
          "type": "bool"
        }
      ],
      "stateMutability": "view",
      "type": "function"
    },
    {
      "inputs": [
        {
          "internalType": "address",
          "name": "recipient",
          "type": "address"
        }
      ],
      "name": "mintNFTForUser",
      "outputs": [
        {
          "internalType": "uint256",
          "name": "",
          "type": "uint256"
        }
      ],
      "stateMutability": "payable",
      "type": "function"
    },
    {
      "inputs": [],
      "name": "name",
      "outputs": [
        {
          "internalType": "string",
          "name": "",
          "type": "string"
        }
      ],
      "stateMutability": "view",
      "type": "function"
    },
    {
      "inputs": [],
      "name": "owner",
      "outputs": [
        {
          "internalType": "address",
          "name": "",
          "type": "address"
        }
      ],
      "stateMutability": "view",
      "type": "function"
    },
    {
      "inputs": [
        {
          "internalType": "uint256",
          "name": "tokenId",
          "type": "uint256"
        }
      ],
      "name": "ownerOf",
      "outputs": [
        {
          "internalType": "address",
          "name": "",
          "type": "address"
        }
      ],
      "stateMutability": "view",
      "type": "function"
    },
    {
      "inputs": [],
      "name": "pause",
      "outputs": [],
      "stateMutability": "nonpayable",
      "type": "function"
    },
    {
      "inputs": [],
      "name": "paused",
      "outputs": [
        {
          "internalType": "bool",
          "name": "",
          "type": "bool"
        }
      ],
      "stateMutability": "view",
      "type": "function"
    },
    {
      "inputs": [
        {
          "internalType": "address",
          "name": "recipient",
          "type": "address"
        }
      ],
      "name": "presales",
      "outputs": [
        {
          "internalType": "uint256",
          "name": "",
          "type": "uint256"
        }
      ],
      "stateMutability": "nonpayable",
      "type": "function"
    },
    {
      "inputs": [],
      "name": "renounceOwnership",
      "outputs": [],
      "stateMutability": "nonpayable",
      "type": "function"
    },
    {
      "inputs": [
        {
          "internalType": "address",
          "name": "from",
          "type": "address"
        },
        {
          "internalType": "address",
          "name": "to",
          "type": "address"
        },
        {
          "internalType": "uint256",
          "name": "tokenId",
          "type": "uint256"
        }
      ],
      "name": "safeTransferFrom",
      "outputs": [],
      "stateMutability": "nonpayable",
      "type": "function"
    },
    {
      "inputs": [
        {
          "internalType": "address",
          "name": "from",
          "type": "address"
        },
        {
          "internalType": "address",
          "name": "to",
          "type": "address"
        },
        {
          "internalType": "uint256",
          "name": "tokenId",
          "type": "uint256"
        },
        {
          "internalType": "bytes",
          "name": "_data",
          "type": "bytes"
        }
      ],
      "name": "safeTransferFrom",
      "outputs": [],
      "stateMutability": "nonpayable",
      "type": "function"
    },
    {
      "inputs": [],
      "name": "sendEther",
      "outputs": [],
      "stateMutability": "payable",
      "type": "function"
    },
    {
      "inputs": [
        {
          "internalType": "address",
          "name": "operator",
          "type": "address"
        },
        {
          "internalType": "bool",
          "name": "approved",
          "type": "bool"
        }
      ],
      "name": "setApprovalForAll",
      "outputs": [],
      "stateMutability": "nonpayable",
      "type": "function"
    },
    {
      "inputs": [
        {
          "internalType": "string",
          "name": "baseURI",
          "type": "string"
        }
      ],
      "name": "setBaseURI",
      "outputs": [],
      "stateMutability": "nonpayable",
      "type": "function"
    },
    {
      "inputs": [
        {
          "internalType": "bytes4",
          "name": "interfaceId",
          "type": "bytes4"
        }
      ],
      "name": "supportsInterface",
      "outputs": [
        {
          "internalType": "bool",
          "name": "",
          "type": "bool"
        }
      ],
      "stateMutability": "view",
      "type": "function"
    },
    {
      "inputs": [],
      "name": "symbol",
      "outputs": [
        {
          "internalType": "string",
          "name": "",
          "type": "string"
        }
      ],
      "stateMutability": "view",
      "type": "function"
    },
    {
      "inputs": [
        {
          "internalType": "uint256",
          "name": "index",
          "type": "uint256"
        }
      ],
      "name": "tokenByIndex",
      "outputs": [
        {
          "internalType": "uint256",
          "name": "",
          "type": "uint256"
        }
      ],
      "stateMutability": "view",
      "type": "function"
    },
    {
      "inputs": [
        {
          "internalType": "address",
          "name": "owner",
          "type": "address"
        },
        {
          "internalType": "uint256",
          "name": "index",
          "type": "uint256"
        }
      ],
      "name": "tokenOfOwnerByIndex",
      "outputs": [
        {
          "internalType": "uint256",
          "name": "",
          "type": "uint256"
        }
      ],
      "stateMutability": "view",
      "type": "function"
    },
    {
      "inputs": [
        {
          "internalType": "uint256",
          "name": "tokenId",
          "type": "uint256"
        }
      ],
      "name": "tokenURI",
      "outputs": [
        {
          "internalType": "string",
          "name": "",
          "type": "string"
        }
      ],
      "stateMutability": "view",
      "type": "function"
    },
    {
      "inputs": [],
      "name": "totalSupply",
      "outputs": [
        {
          "internalType": "uint256",
          "name": "",
          "type": "uint256"
        }
      ],
      "stateMutability": "view",
      "type": "function"
    },
    {
      "inputs": [
        {
          "internalType": "address",
          "name": "from",
          "type": "address"
        },
        {
          "internalType": "address",
          "name": "to",
          "type": "address"
        },
        {
          "internalType": "uint256",
          "name": "tokenId",
          "type": "uint256"
        }
      ],
      "name": "transferFrom",
      "outputs": [],
      "stateMutability": "nonpayable",
      "type": "function"
    },
    {
      "inputs": [
        {
          "internalType": "address",
          "name": "newOwner",
          "type": "address"
        }
      ],
      "name": "transferOwnership",
      "outputs": [],
      "stateMutability": "nonpayable",
      "type": "function"
    },
    {
      "inputs": [],
      "name": "unpause",
      "outputs": [],
      "stateMutability": "nonpayable",
      "type": "function"
    }
  ],
  "bytecode": "0x60806040526040518060400160405280602081526020017f68747470733a2f2f6170692e636f6f6c636174736e66742e636f6d2f6361742f815250600c9080519060200190620000519291906200026f565b5073b55fd66a86612976d79010c2f6b90275b241f1f8600d60006101000a81548173ffffffffffffffffffffffffffffffffffffffff021916908373ffffffffffffffffffffffffffffffffffffffff160217905550660110d9316ec000600e55348015620000bf57600080fd5b506040518060400160405280600281526020017f50530000000000000000000000000000000000000000000000000000000000008152506040518060400160405280600381526020017f50537400000000000000000000000000000000000000000000000000000000008152508160009080519060200190620001449291906200026f565b5080600190805190602001906200015d9291906200026f565b5050506200018062000174620001a160201b60201c565b620001a960201b60201c565b6000600a60146101000a81548160ff02191690831515021790555062000384565b600033905090565b6000600a60009054906101000a900473ffffffffffffffffffffffffffffffffffffffff16905081600a60006101000a81548173ffffffffffffffffffffffffffffffffffffffff021916908373ffffffffffffffffffffffffffffffffffffffff1602179055508173ffffffffffffffffffffffffffffffffffffffff168173ffffffffffffffffffffffffffffffffffffffff167f8be0079c531659141344cd1fd0a4f28419497f9722a3daafe3b4186f6b6457e060405160405180910390a35050565b8280546200027d906200031f565b90600052602060002090601f016020900481019282620002a15760008555620002ed565b82601f10620002bc57805160ff1916838001178555620002ed565b82800160010185558215620002ed579182015b82811115620002ec578251825591602001919060010190620002cf565b5b509050620002fc919062000300565b5090565b5b808211156200031b57600081600090555060010162000301565b5090565b600060028204905060018216806200033857607f821691505b602082108114156200034f576200034e62000355565b5b50919050565b7f4e487b7100000000000000000000000000000000000000000000000000000000600052602260045260246000fd5b613e0c80620003946000396000f3fe60806040526004361061019c5760003560e01c80636352211e116100ec578063a22cb4651161008a578063cfc86f7b11610064578063cfc86f7b14610598578063e985e9c5146105c3578063efcd708f14610600578063f2fde38b1461063d5761019c565b8063a22cb46514610509578063b88d4fde14610532578063c87b56dd1461055b5761019c565b80637d7f981d116100c65780637d7f981d1461046c5780638456cb591461049c5780638da5cb5b146104b357806395d89b41146104de5761019c565b80636352211e146103db57806370a0823114610418578063715018a6146104555761019c565b806323b872dd1161015957806342842e0e1161013357806342842e0e146103215780634f6ccce71461034a57806355f804b3146103875780635c975abb146103b05761019c565b806323b872dd146102a45780632f745c59146102cd5780633f4ba83a1461030a5761019c565b806301ffc9a7146101a157806306fdde03146101de578063081812fc14610209578063095ea7b3146102465780630e29df221461026f57806318160ddd14610279575b600080fd5b3480156101ad57600080fd5b506101c860048036038101906101c39190612c10565b610666565b6040516101d59190613106565b60405180910390f35b3480156101ea57600080fd5b506101f36106e0565b6040516102009190613121565b60405180910390f35b34801561021557600080fd5b50610230600480360381019061022b9190612ca3565b610772565b60405161023d919061309f565b60405180910390f35b34801561025257600080fd5b5061026d60048036038101906102689190612bd4565b6107f7565b005b61027761090f565b005b34801561028557600080fd5b5061028e610982565b60405161029b91906133e3565b60405180910390f35b3480156102b057600080fd5b506102cb60048036038101906102c69190612ace565b61098f565b005b3480156102d957600080fd5b506102f460048036038101906102ef9190612bd4565b6109ef565b60405161030191906133e3565b60405180910390f35b34801561031657600080fd5b5061031f610a94565b005b34801561032d57600080fd5b5061034860048036038101906103439190612ace565b610b1a565b005b34801561035657600080fd5b50610371600480360381019061036c9190612ca3565b610b3a565b60405161037e91906133e3565b60405180910390f35b34801561039357600080fd5b506103ae60048036038101906103a99190612c62565b610bd1565b005b3480156103bc57600080fd5b506103c5610c67565b6040516103d29190613106565b60405180910390f35b3480156103e757600080fd5b5061040260048036038101906103fd9190612ca3565b610c7e565b60405161040f919061309f565b60405180910390f35b34801561042457600080fd5b5061043f600480360381019061043a9190612a69565b610d30565b60405161044c91906133e3565b60405180910390f35b34801561046157600080fd5b5061046a610de8565b005b61048660048036038101906104819190612a69565b610e70565b60405161049391906133e3565b60405180910390f35b3480156104a857600080fd5b506104b1610f37565b005b3480156104bf57600080fd5b506104c8610fbd565b6040516104d5919061309f565b60405180910390f35b3480156104ea57600080fd5b506104f3610fe7565b6040516105009190613121565b60405180910390f35b34801561051557600080fd5b50610530600480360381019061052b9190612b98565b611079565b005b34801561053e57600080fd5b5061055960048036038101906105549190612b1d565b61108f565b005b34801561056757600080fd5b50610582600480360381019061057d9190612ca3565b6110f1565b60405161058f9190613121565b60405180910390f35b3480156105a457600080fd5b506105ad611198565b6040516105ba9190613121565b60405180910390f35b3480156105cf57600080fd5b506105ea60048036038101906105e59190612a92565b611226565b6040516105f79190613106565b60405180910390f35b34801561060c57600080fd5b5061062760048036038101906106229190612a69565b6112ba565b60405161063491906133e3565b60405180910390f35b34801561064957600080fd5b50610664600480360381019061065f9190612a69565b611376565b005b60007f780e9d63000000000000000000000000000000000000000000000000000000007bffffffffffffffffffffffffffffffffffffffffffffffffffffffff1916827bffffffffffffffffffffffffffffffffffffffffffffffffffffffff191614806106d957506106d88261146e565b5b9050919050565b6060600080546106ef90613639565b80601f016020809104026020016040519081016040528092919081815260200182805461071b90613639565b80156107685780601f1061073d57610100808354040283529160200191610768565b820191906000526020600020905b81548152906001019060200180831161074b57829003601f168201915b5050505050905090565b600061077d82611550565b6107bc576040517f08c379a00000000000000000000000000000000000000000000000000000000081526004016107b390613303565b60405180910390fd5b6004600083815260200190815260200160002060009054906101000a900473ffffffffffffffffffffffffffffffffffffffff169050919050565b600061080282610c7e565b90508073ffffffffffffffffffffffffffffffffffffffff168373ffffffffffffffffffffffffffffffffffffffff161415610873576040517f08c379a000000000000000000000000000000000000000000000000000000000815260040161086a90613363565b60405180910390fd5b8073ffffffffffffffffffffffffffffffffffffffff166108926115bc565b73ffffffffffffffffffffffffffffffffffffffff1614806108c157506108c0816108bb6115bc565b611226565b5b610900576040517f08c379a00000000000000000000000000000000000000000000000000000000081526004016108f790613283565b60405180910390fd5b61090a83836115c4565b505050565b6000600d60009054906101000a900473ffffffffffffffffffffffffffffffffffffffff1690508073ffffffffffffffffffffffffffffffffffffffff166108fc600e549081150290604051600060405180830381858888f1935050505015801561097e573d6000803e3d6000fd5b5050565b6000600880549050905090565b6109a061099a6115bc565b8261167d565b6109df576040517f08c379a00000000000000000000000000000000000000000000000000000000081526004016109d6906133a3565b60405180910390fd5b6109ea83838361175b565b505050565b60006109fa83610d30565b8210610a3b576040517f08c379a0000000000000000000000000000000000000000000000000000000008152600401610a3290613163565b60405180910390fd5b600660008473ffffffffffffffffffffffffffffffffffffffff1673ffffffffffffffffffffffffffffffffffffffff168152602001908152602001600020600083815260200190815260200160002054905092915050565b610a9c6115bc565b73ffffffffffffffffffffffffffffffffffffffff16610aba610fbd565b73ffffffffffffffffffffffffffffffffffffffff1614610b10576040517f08c379a0000000000000000000000000000000000000000000000000000000008152600401610b0790613323565b60405180910390fd5b610b186119c2565b565b610b358383836040518060200160405280600081525061108f565b505050565b6000610b44610982565b8210610b85576040517f08c379a0000000000000000000000000000000000000000000000000000000008152600401610b7c906133c3565b60405180910390fd5b60088281548110610bbf577f4e487b7100000000000000000000000000000000000000000000000000000000600052603260045260246000fd5b90600052602060002001549050919050565b610bd96115bc565b73ffffffffffffffffffffffffffffffffffffffff16610bf7610fbd565b73ffffffffffffffffffffffffffffffffffffffff1614610c4d576040517f08c379a0000000000000000000000000000000000000000000000000000000008152600401610c4490613323565b60405180910390fd5b80600c9080519060200190610c6392919061288d565b5050565b6000600a60149054906101000a900460ff16905090565b6000806002600084815260200190815260200160002060009054906101000a900473ffffffffffffffffffffffffffffffffffffffff169050600073ffffffffffffffffffffffffffffffffffffffff168173ffffffffffffffffffffffffffffffffffffffff161415610d27576040517f08c379a0000000000000000000000000000000000000000000000000000000008152600401610d1e906132c3565b60405180910390fd5b80915050919050565b60008073ffffffffffffffffffffffffffffffffffffffff168273ffffffffffffffffffffffffffffffffffffffff161415610da1576040517f08c379a0000000000000000000000000000000000000000000000000000000008152600401610d98906132a3565b60405180910390fd5b600360008373ffffffffffffffffffffffffffffffffffffffff1673ffffffffffffffffffffffffffffffffffffffff168152602001908152602001600020549050919050565b610df06115bc565b73ffffffffffffffffffffffffffffffffffffffff16610e0e610fbd565b73ffffffffffffffffffffffffffffffffffffffff1614610e64576040517f08c379a0000000000000000000000000000000000000000000000000000000008152600401610e5b90613323565b60405180910390fd5b610e6e6000611a64565b565b6000610e7a610c67565b15610eba576040517f08c379a0000000000000000000000000000000000000000000000000000000008152600401610eb190613263565b60405180910390fd5b610ec261090f565b610ecc600b611b2a565b6000610ed8600b611b40565b9050601f610ee4610982565b10610f24576040517f08c379a0000000000000000000000000000000000000000000000000000000008152600401610f1b90613383565b60405180910390fd5b610f2e8382611b4e565b80915050919050565b610f3f6115bc565b73ffffffffffffffffffffffffffffffffffffffff16610f5d610fbd565b73ffffffffffffffffffffffffffffffffffffffff1614610fb3576040517f08c379a0000000000000000000000000000000000000000000000000000000008152600401610faa90613323565b60405180910390fd5b610fbb611d28565b565b6000600a60009054906101000a900473ffffffffffffffffffffffffffffffffffffffff16905090565b606060018054610ff690613639565b80601f016020809104026020016040519081016040528092919081815260200182805461102290613639565b801561106f5780601f106110445761010080835404028352916020019161106f565b820191906000526020600020905b81548152906001019060200180831161105257829003601f168201915b5050505050905090565b61108b6110846115bc565b8383611dcb565b5050565b6110a061109a6115bc565b8361167d565b6110df576040517f08c379a00000000000000000000000000000000000000000000000000000000081526004016110d6906133a3565b60405180910390fd5b6110eb84848484611f38565b50505050565b60606110fc82611550565b61113b576040517f08c379a000000000000000000000000000000000000000000000000000000000815260040161113290613343565b60405180910390fd5b6000611145611f94565b905060008151116111655760405180602001604052806000815250611190565b8061116f84612026565b60405160200161118092919061307b565b6040516020818303038152906040525b915050919050565b600c80546111a590613639565b80601f01602080910402602001604051908101604052809291908181526020018280546111d190613639565b801561121e5780601f106111f35761010080835404028352916020019161121e565b820191906000526020600020905b81548152906001019060200180831161120157829003601f168201915b505050505081565b6000600560008473ffffffffffffffffffffffffffffffffffffffff1673ffffffffffffffffffffffffffffffffffffffff16815260200190815260200160002060008373ffffffffffffffffffffffffffffffffffffffff1673ffffffffffffffffffffffffffffffffffffffff16815260200190815260200160002060009054906101000a900460ff16905092915050565b60006112c46115bc565b73ffffffffffffffffffffffffffffffffffffffff166112e2610fbd565b73ffffffffffffffffffffffffffffffffffffffff1614611338576040517f08c379a000000000000000000000000000000000000000000000000000000000815260040161132f90613323565b60405180910390fd5b6000600581101561136f5761134d600b611b2a565b6000611359600b611b40565b90506113658482611b4e565b8092505050611371565b505b919050565b61137e6115bc565b73ffffffffffffffffffffffffffffffffffffffff1661139c610fbd565b73ffffffffffffffffffffffffffffffffffffffff16146113f2576040517f08c379a00000000000000000000000000000000000000000000000000000000081526004016113e990613323565b60405180910390fd5b600073ffffffffffffffffffffffffffffffffffffffff168173ffffffffffffffffffffffffffffffffffffffff161415611462576040517f08c379a0000000000000000000000000000000000000000000000000000000008152600401611459906131a3565b60405180910390fd5b61146b81611a64565b50565b60007f80ac58cd000000000000000000000000000000000000000000000000000000007bffffffffffffffffffffffffffffffffffffffffffffffffffffffff1916827bffffffffffffffffffffffffffffffffffffffffffffffffffffffff1916148061153957507f5b5e139f000000000000000000000000000000000000000000000000000000007bffffffffffffffffffffffffffffffffffffffffffffffffffffffff1916827bffffffffffffffffffffffffffffffffffffffffffffffffffffffff1916145b806115495750611548826121d3565b5b9050919050565b60008073ffffffffffffffffffffffffffffffffffffffff166002600084815260200190815260200160002060009054906101000a900473ffffffffffffffffffffffffffffffffffffffff1673ffffffffffffffffffffffffffffffffffffffff1614159050919050565b600033905090565b816004600083815260200190815260200160002060006101000a81548173ffffffffffffffffffffffffffffffffffffffff021916908373ffffffffffffffffffffffffffffffffffffffff160217905550808273ffffffffffffffffffffffffffffffffffffffff1661163783610c7e565b73ffffffffffffffffffffffffffffffffffffffff167f8c5be1e5ebec7d5bd14f71427d1e84f3dd0314c0f7b2291e5b200ac8c7c3b92560405160405180910390a45050565b600061168882611550565b6116c7576040517f08c379a00000000000000000000000000000000000000000000000000000000081526004016116be90613243565b60405180910390fd5b60006116d283610c7e565b90508073ffffffffffffffffffffffffffffffffffffffff168473ffffffffffffffffffffffffffffffffffffffff16148061171457506117138185611226565b5b8061175257508373ffffffffffffffffffffffffffffffffffffffff1661173a84610772565b73ffffffffffffffffffffffffffffffffffffffff16145b91505092915050565b8273ffffffffffffffffffffffffffffffffffffffff1661177b82610c7e565b73ffffffffffffffffffffffffffffffffffffffff16146117d1576040517f08c379a00000000000000000000000000000000000000000000000000000000081526004016117c8906131c3565b60405180910390fd5b600073ffffffffffffffffffffffffffffffffffffffff168273ffffffffffffffffffffffffffffffffffffffff161415611841576040517f08c379a000000000000000000000000000000000000000000000000000000000815260040161183890613203565b60405180910390fd5b61184c83838361223d565b6118576000826115c4565b6001600360008573ffffffffffffffffffffffffffffffffffffffff1673ffffffffffffffffffffffffffffffffffffffff16815260200190815260200160002060008282546118a7919061354f565b925050819055506001600360008473ffffffffffffffffffffffffffffffffffffffff1673ffffffffffffffffffffffffffffffffffffffff16815260200190815260200160002060008282546118fe91906134c8565b92505081905550816002600083815260200190815260200160002060006101000a81548173ffffffffffffffffffffffffffffffffffffffff021916908373ffffffffffffffffffffffffffffffffffffffff160217905550808273ffffffffffffffffffffffffffffffffffffffff168473ffffffffffffffffffffffffffffffffffffffff167fddf252ad1be2c89b69c2b068fc378daa952ba7f163c4a11628f55a4df523b3ef60405160405180910390a46119bd838383612351565b505050565b6119ca610c67565b611a09576040517f08c379a0000000000000000000000000000000000000000000000000000000008152600401611a0090613143565b60405180910390fd5b6000600a60146101000a81548160ff0219169083151502179055507f5db9ee0a495bf2e6ff9c91a7834c1ba4fdd244a5e8aa4e537bd38aeae4b073aa611a4d6115bc565b604051611a5a919061309f565b60405180910390a1565b6000600a60009054906101000a900473ffffffffffffffffffffffffffffffffffffffff16905081600a60006101000a81548173ffffffffffffffffffffffffffffffffffffffff021916908373ffffffffffffffffffffffffffffffffffffffff1602179055508173ffffffffffffffffffffffffffffffffffffffff168173ffffffffffffffffffffffffffffffffffffffff167f8be0079c531659141344cd1fd0a4f28419497f9722a3daafe3b4186f6b6457e060405160405180910390a35050565b6001816000016000828254019250508190555050565b600081600001549050919050565b600073ffffffffffffffffffffffffffffffffffffffff168273ffffffffffffffffffffffffffffffffffffffff161415611bbe576040517f08c379a0000000000000000000000000000000000000000000000000000000008152600401611bb5906132e3565b60405180910390fd5b611bc781611550565b15611c07576040517f08c379a0000000000000000000000000000000000000000000000000000000008152600401611bfe906131e3565b60405180910390fd5b611c136000838361223d565b6001600360008473ffffffffffffffffffffffffffffffffffffffff1673ffffffffffffffffffffffffffffffffffffffff1681526020019081526020016000206000828254611c6391906134c8565b92505081905550816002600083815260200190815260200160002060006101000a81548173ffffffffffffffffffffffffffffffffffffffff021916908373ffffffffffffffffffffffffffffffffffffffff160217905550808273ffffffffffffffffffffffffffffffffffffffff16600073ffffffffffffffffffffffffffffffffffffffff167fddf252ad1be2c89b69c2b068fc378daa952ba7f163c4a11628f55a4df523b3ef60405160405180910390a4611d2460008383612351565b5050565b611d30610c67565b15611d70576040517f08c379a0000000000000000000000000000000000000000000000000000000008152600401611d6790613263565b60405180910390fd5b6001600a60146101000a81548160ff0219169083151502179055507f62e78cea01bee320cd4e420270b5ea74000d11b0c9f74754ebdbfc544b05a258611db46115bc565b604051611dc1919061309f565b60405180910390a1565b8173ffffffffffffffffffffffffffffffffffffffff168373ffffffffffffffffffffffffffffffffffffffff161415611e3a576040517f08c379a0000000000000000000000000000000000000000000000000000000008152600401611e3190613223565b60405180910390fd5b80600560008573ffffffffffffffffffffffffffffffffffffffff1673ffffffffffffffffffffffffffffffffffffffff16815260200190815260200160002060008473ffffffffffffffffffffffffffffffffffffffff1673ffffffffffffffffffffffffffffffffffffffff16815260200190815260200160002060006101000a81548160ff0219169083151502179055508173ffffffffffffffffffffffffffffffffffffffff168373ffffffffffffffffffffffffffffffffffffffff167f17307eab39ab6107e8899845ad3d59bd9653f200f220920489ca2b5937696c3183604051611f2b9190613106565b60405180910390a3505050565b611f4384848461175b565b611f4f84848484612356565b611f8e576040517f08c379a0000000000000000000000000000000000000000000000000000000008152600401611f8590613183565b60405180910390fd5b50505050565b6060600c8054611fa390613639565b80601f0160208091040260200160405190810160405280929190818152602001828054611fcf90613639565b801561201c5780601f10611ff15761010080835404028352916020019161201c565b820191906000526020600020905b815481529060010190602001808311611fff57829003601f168201915b5050505050905090565b6060600082141561206e576040518060400160405280600181526020017f300000000000000000000000000000000000000000000000000000000000000081525090506121ce565b600082905060005b600082146120a05780806120899061369c565b915050600a82612099919061351e565b9150612076565b60008167ffffffffffffffff8111156120e2577f4e487b7100000000000000000000000000000000000000000000000000000000600052604160045260246000fd5b6040519080825280601f01601f1916602001820160405280156121145781602001600182028036833780820191505090505b5090505b600085146121c75760018261212d919061354f565b9150600a8561213c91906136e5565b603061214891906134c8565b60f81b818381518110612184577f4e487b7100000000000000000000000000000000000000000000000000000000600052603260045260246000fd5b60200101907effffffffffffffffffffffffffffffffffffffffffffffffffffffffffffff1916908160001a905350600a856121c0919061351e565b9450612118565b8093505050505b919050565b60007f01ffc9a7000000000000000000000000000000000000000000000000000000007bffffffffffffffffffffffffffffffffffffffffffffffffffffffff1916827bffffffffffffffffffffffffffffffffffffffffffffffffffffffff1916149050919050565b6122488383836124ed565b600073ffffffffffffffffffffffffffffffffffffffff168373ffffffffffffffffffffffffffffffffffffffff16141561228b57612286816124f2565b6122ca565b8173ffffffffffffffffffffffffffffffffffffffff168373ffffffffffffffffffffffffffffffffffffffff16146122c9576122c8838261253b565b5b5b600073ffffffffffffffffffffffffffffffffffffffff168273ffffffffffffffffffffffffffffffffffffffff16141561230d57612308816126a8565b61234c565b8273ffffffffffffffffffffffffffffffffffffffff168273ffffffffffffffffffffffffffffffffffffffff161461234b5761234a82826127eb565b5b5b505050565b505050565b60006123778473ffffffffffffffffffffffffffffffffffffffff1661286a565b156124e0578373ffffffffffffffffffffffffffffffffffffffff1663150b7a026123a06115bc565b8786866040518563ffffffff1660e01b81526004016123c294939291906130ba565b602060405180830381600087803b1580156123dc57600080fd5b505af192505050801561240d57506040513d601f19601f8201168201806040525081019061240a9190612c39565b60015b612490573d806000811461243d576040519150601f19603f3d011682016040523d82523d6000602084013e612442565b606091505b50600081511415612488576040517f08c379a000000000000000000000000000000000000000000000000000000000815260040161247f90613183565b60405180910390fd5b805181602001fd5b63150b7a0260e01b7bffffffffffffffffffffffffffffffffffffffffffffffffffffffff1916817bffffffffffffffffffffffffffffffffffffffffffffffffffffffff1916149150506124e5565b600190505b949350505050565b505050565b6008805490506009600083815260200190815260200160002081905550600881908060018154018082558091505060019003906000526020600020016000909190919091505550565b6000600161254884610d30565b612552919061354f565b9050600060076000848152602001908152602001600020549050818114612637576000600660008673ffffffffffffffffffffffffffffffffffffffff1673ffffffffffffffffffffffffffffffffffffffff168152602001908152602001600020600084815260200190815260200160002054905080600660008773ffffffffffffffffffffffffffffffffffffffff1673ffffffffffffffffffffffffffffffffffffffff168152602001908152602001600020600084815260200190815260200160002081905550816007600083815260200190815260200160002081905550505b6007600084815260200190815260200160002060009055600660008573ffffffffffffffffffffffffffffffffffffffff1673ffffffffffffffffffffffffffffffffffffffff16815260200190815260200160002060008381526020019081526020016000206000905550505050565b600060016008805490506126bc919061354f565b9050600060096000848152602001908152602001600020549050600060088381548110612712577f4e487b7100000000000000000000000000000000000000000000000000000000600052603260045260246000fd5b90600052602060002001549050806008838154811061275a577f4e487b7100000000000000000000000000000000000000000000000000000000600052603260045260246000fd5b9060005260206000200181905550816009600083815260200190815260200160002081905550600960008581526020019081526020016000206000905560088054806127cf577f4e487b7100000000000000000000000000000000000000000000000000000000600052603160045260246000fd5b6001900381819060005260206000200160009055905550505050565b60006127f683610d30565b905081600660008573ffffffffffffffffffffffffffffffffffffffff1673ffffffffffffffffffffffffffffffffffffffff168152602001908152602001600020600083815260200190815260200160002081905550806007600084815260200190815260200160002081905550505050565b6000808273ffffffffffffffffffffffffffffffffffffffff163b119050919050565b82805461289990613639565b90600052602060002090601f0160209004810192826128bb5760008555612902565b82601f106128d457805160ff1916838001178555612902565b82800160010185558215612902579182015b828111156129015782518255916020019190600101906128e6565b5b50905061290f9190612913565b5090565b5b8082111561292c576000816000905550600101612914565b5090565b600061294361293e84613423565b6133fe565b90508281526020810184848401111561295b57600080fd5b6129668482856135f7565b509392505050565b600061298161297c84613454565b6133fe565b90508281526020810184848401111561299957600080fd5b6129a48482856135f7565b509392505050565b6000813590506129bb81613d7a565b92915050565b6000813590506129d081613d91565b92915050565b6000813590506129e581613da8565b92915050565b6000815190506129fa81613da8565b92915050565b600082601f830112612a1157600080fd5b8135612a21848260208601612930565b91505092915050565b600082601f830112612a3b57600080fd5b8135612a4b84826020860161296e565b91505092915050565b600081359050612a6381613dbf565b92915050565b600060208284031215612a7b57600080fd5b6000612a89848285016129ac565b91505092915050565b60008060408385031215612aa557600080fd5b6000612ab3858286016129ac565b9250506020612ac4858286016129ac565b9150509250929050565b600080600060608486031215612ae357600080fd5b6000612af1868287016129ac565b9350506020612b02868287016129ac565b9250506040612b1386828701612a54565b9150509250925092565b60008060008060808587031215612b3357600080fd5b6000612b41878288016129ac565b9450506020612b52878288016129ac565b9350506040612b6387828801612a54565b925050606085013567ffffffffffffffff811115612b8057600080fd5b612b8c87828801612a00565b91505092959194509250565b60008060408385031215612bab57600080fd5b6000612bb9858286016129ac565b9250506020612bca858286016129c1565b9150509250929050565b60008060408385031215612be757600080fd5b6000612bf5858286016129ac565b9250506020612c0685828601612a54565b9150509250929050565b600060208284031215612c2257600080fd5b6000612c30848285016129d6565b91505092915050565b600060208284031215612c4b57600080fd5b6000612c59848285016129eb565b91505092915050565b600060208284031215612c7457600080fd5b600082013567ffffffffffffffff811115612c8e57600080fd5b612c9a84828501612a2a565b91505092915050565b600060208284031215612cb557600080fd5b6000612cc384828501612a54565b91505092915050565b612cd581613583565b82525050565b612ce481613595565b82525050565b6000612cf582613485565b612cff818561349b565b9350612d0f818560208601613606565b612d18816137d2565b840191505092915050565b6000612d2e82613490565b612d3881856134ac565b9350612d48818560208601613606565b612d51816137d2565b840191505092915050565b6000612d6782613490565b612d7181856134bd565b9350612d81818560208601613606565b80840191505092915050565b6000612d9a6014836134ac565b9150612da5826137e3565b602082019050919050565b6000612dbd602b836134ac565b9150612dc88261380c565b604082019050919050565b6000612de06032836134ac565b9150612deb8261385b565b604082019050919050565b6000612e036026836134ac565b9150612e0e826138aa565b604082019050919050565b6000612e266025836134ac565b9150612e31826138f9565b604082019050919050565b6000612e49601c836134ac565b9150612e5482613948565b602082019050919050565b6000612e6c6024836134ac565b9150612e7782613971565b604082019050919050565b6000612e8f6019836134ac565b9150612e9a826139c0565b602082019050919050565b6000612eb2602c836134ac565b9150612ebd826139e9565b604082019050919050565b6000612ed56010836134ac565b9150612ee082613a38565b602082019050919050565b6000612ef86038836134ac565b9150612f0382613a61565b604082019050919050565b6000612f1b602a836134ac565b9150612f2682613ab0565b604082019050919050565b6000612f3e6029836134ac565b9150612f4982613aff565b604082019050919050565b6000612f616020836134ac565b9150612f6c82613b4e565b602082019050919050565b6000612f84602c836134ac565b9150612f8f82613b77565b604082019050919050565b6000612fa76020836134ac565b9150612fb282613bc6565b602082019050919050565b6000612fca602f836134ac565b9150612fd582613bef565b604082019050919050565b6000612fed6021836134ac565b9150612ff882613c3e565b604082019050919050565b60006130106021836134ac565b915061301b82613c8d565b604082019050919050565b60006130336031836134ac565b915061303e82613cdc565b604082019050919050565b6000613056602c836134ac565b915061306182613d2b565b604082019050919050565b613075816135ed565b82525050565b60006130878285612d5c565b91506130938284612d5c565b91508190509392505050565b60006020820190506130b46000830184612ccc565b92915050565b60006080820190506130cf6000830187612ccc565b6130dc6020830186612ccc565b6130e9604083018561306c565b81810360608301526130fb8184612cea565b905095945050505050565b600060208201905061311b6000830184612cdb565b92915050565b6000602082019050818103600083015261313b8184612d23565b905092915050565b6000602082019050818103600083015261315c81612d8d565b9050919050565b6000602082019050818103600083015261317c81612db0565b9050919050565b6000602082019050818103600083015261319c81612dd3565b9050919050565b600060208201905081810360008301526131bc81612df6565b9050919050565b600060208201905081810360008301526131dc81612e19565b9050919050565b600060208201905081810360008301526131fc81612e3c565b9050919050565b6000602082019050818103600083015261321c81612e5f565b9050919050565b6000602082019050818103600083015261323c81612e82565b9050919050565b6000602082019050818103600083015261325c81612ea5565b9050919050565b6000602082019050818103600083015261327c81612ec8565b9050919050565b6000602082019050818103600083015261329c81612eeb565b9050919050565b600060208201905081810360008301526132bc81612f0e565b9050919050565b600060208201905081810360008301526132dc81612f31565b9050919050565b600060208201905081810360008301526132fc81612f54565b9050919050565b6000602082019050818103600083015261331c81612f77565b9050919050565b6000602082019050818103600083015261333c81612f9a565b9050919050565b6000602082019050818103600083015261335c81612fbd565b9050919050565b6000602082019050818103600083015261337c81612fe0565b9050919050565b6000602082019050818103600083015261339c81613003565b9050919050565b600060208201905081810360008301526133bc81613026565b9050919050565b600060208201905081810360008301526133dc81613049565b9050919050565b60006020820190506133f8600083018461306c565b92915050565b6000613408613419565b9050613414828261366b565b919050565b6000604051905090565b600067ffffffffffffffff82111561343e5761343d6137a3565b5b613447826137d2565b9050602081019050919050565b600067ffffffffffffffff82111561346f5761346e6137a3565b5b613478826137d2565b9050602081019050919050565b600081519050919050565b600081519050919050565b600082825260208201905092915050565b600082825260208201905092915050565b600081905092915050565b60006134d3826135ed565b91506134de836135ed565b9250827fffffffffffffffffffffffffffffffffffffffffffffffffffffffffffffffff0382111561351357613512613716565b5b828201905092915050565b6000613529826135ed565b9150613534836135ed565b92508261354457613543613745565b5b828204905092915050565b600061355a826135ed565b9150613565836135ed565b92508282101561357857613577613716565b5b828203905092915050565b600061358e826135cd565b9050919050565b60008115159050919050565b60007fffffffff0000000000000000000000000000000000000000000000000000000082169050919050565b600073ffffffffffffffffffffffffffffffffffffffff82169050919050565b6000819050919050565b82818337600083830152505050565b60005b83811015613624578082015181840152602081019050613609565b83811115613633576000848401525b50505050565b6000600282049050600182168061365157607f821691505b6020821081141561366557613664613774565b5b50919050565b613674826137d2565b810181811067ffffffffffffffff82111715613693576136926137a3565b5b80604052505050565b60006136a7826135ed565b91507fffffffffffffffffffffffffffffffffffffffffffffffffffffffffffffffff8214156136da576136d9613716565b5b600182019050919050565b60006136f0826135ed565b91506136fb836135ed565b92508261370b5761370a613745565b5b828206905092915050565b7f4e487b7100000000000000000000000000000000000000000000000000000000600052601160045260246000fd5b7f4e487b7100000000000000000000000000000000000000000000000000000000600052601260045260246000fd5b7f4e487b7100000000000000000000000000000000000000000000000000000000600052602260045260246000fd5b7f4e487b7100000000000000000000000000000000000000000000000000000000600052604160045260246000fd5b6000601f19601f8301169050919050565b7f5061757361626c653a206e6f7420706175736564000000000000000000000000600082015250565b7f455243373231456e756d657261626c653a206f776e657220696e646578206f7560008201527f74206f6620626f756e6473000000000000000000000000000000000000000000602082015250565b7f4552433732313a207472616e7366657220746f206e6f6e20455243373231526560008201527f63656976657220696d706c656d656e7465720000000000000000000000000000602082015250565b7f4f776e61626c653a206e6577206f776e657220697320746865207a65726f206160008201527f6464726573730000000000000000000000000000000000000000000000000000602082015250565b7f4552433732313a207472616e736665722066726f6d20696e636f72726563742060008201527f6f776e6572000000000000000000000000000000000000000000000000000000602082015250565b7f4552433732313a20746f6b656e20616c7265616479206d696e74656400000000600082015250565b7f4552433732313a207472616e7366657220746f20746865207a65726f2061646460008201527f7265737300000000000000000000000000000000000000000000000000000000602082015250565b7f4552433732313a20617070726f766520746f2063616c6c657200000000000000600082015250565b7f4552433732313a206f70657261746f7220717565727920666f72206e6f6e657860008201527f697374656e7420746f6b656e0000000000000000000000000000000000000000602082015250565b7f5061757361626c653a2070617573656400000000000000000000000000000000600082015250565b7f4552433732313a20617070726f76652063616c6c6572206973206e6f74206f7760008201527f6e6572206e6f7220617070726f76656420666f7220616c6c0000000000000000602082015250565b7f4552433732313a2062616c616e636520717565727920666f7220746865207a6560008201527f726f206164647265737300000000000000000000000000000000000000000000602082015250565b7f4552433732313a206f776e657220717565727920666f72206e6f6e657869737460008201527f656e7420746f6b656e0000000000000000000000000000000000000000000000602082015250565b7f4552433732313a206d696e7420746f20746865207a65726f2061646472657373600082015250565b7f4552433732313a20617070726f76656420717565727920666f72206e6f6e657860008201527f697374656e7420746f6b656e0000000000000000000000000000000000000000602082015250565b7f4f776e61626c653a2063616c6c6572206973206e6f7420746865206f776e6572600082015250565b7f4552433732314d657461646174613a2055524920717565727920666f72206e6f60008201527f6e6578697374656e7420746f6b656e0000000000000000000000000000000000602082015250565b7f4552433732313a20617070726f76616c20746f2063757272656e74206f776e6560008201527f7200000000000000000000000000000000000000000000000000000000000000602082015250565b7f4572726f72202d203330204e465420616c7265616479206d696e7465642e202160008201527f2100000000000000000000000000000000000000000000000000000000000000602082015250565b7f4552433732313a207472616e736665722063616c6c6572206973206e6f74206f60008201527f776e6572206e6f7220617070726f766564000000000000000000000000000000602082015250565b7f455243373231456e756d657261626c653a20676c6f62616c20696e646578206f60008201527f7574206f6620626f756e64730000000000000000000000000000000000000000602082015250565b613d8381613583565b8114613d8e57600080fd5b50565b613d9a81613595565b8114613da557600080fd5b50565b613db1816135a1565b8114613dbc57600080fd5b50565b613dc8816135ed565b8114613dd357600080fd5b5056fea2646970667358221220687340fa79e3f6d04643a144a1d8c50781b90945b692845ca8933166b78725ed64736f6c63430008010033",
  "linkReferences": {},
  "deployedLinkReferences": {}
}