{
  "_format": "hh-sol-artifact-1",
  "contractName": "PS",
  "sourceName": "contracts/PS.sol",
  "abi": [
    {
      "inputs": [],
      "stateMutability": "nonpayable",
      "type": "constructor"
    },
    {
      "anonymous": false,
      "inputs": [
        {
          "indexed": true,
          "internalType": "address",
          "name": "owner",
          "type": "address"
        },
        {
          "indexed": true,
          "internalType": "address",
          "name": "approved",
          "type": "address"
        },
        {
          "indexed": true,
          "internalType": "uint256",
          "name": "tokenId",
          "type": "uint256"
        }
      ],
      "name": "Approval",
      "type": "event"
    },
    {
      "anonymous": false,
      "inputs": [
        {
          "indexed": true,
          "internalType": "address",
          "name": "owner",
          "type": "address"
        },
        {
          "indexed": true,
          "internalType": "address",
          "name": "operator",
          "type": "address"
        },
        {
          "indexed": false,
          "internalType": "bool",
          "name": "approved",
          "type": "bool"
        }
      ],
      "name": "ApprovalForAll",
      "type": "event"
    },
    {
      "anonymous": false,
      "inputs": [
        {
          "indexed": true,
          "internalType": "address",
          "name": "previousOwner",
          "type": "address"
        },
        {
          "indexed": true,
          "internalType": "address",
          "name": "newOwner",
          "type": "address"
        }
      ],
      "name": "OwnershipTransferred",
      "type": "event"
    },
    {
      "anonymous": false,
      "inputs": [
        {
          "indexed": false,
          "internalType": "address",
          "name": "account",
          "type": "address"
        }
      ],
      "name": "Paused",
      "type": "event"
    },
    {
      "anonymous": false,
      "inputs": [
        {
          "indexed": true,
          "internalType": "address",
          "name": "from",
          "type": "address"
        },
        {
          "indexed": true,
          "internalType": "address",
          "name": "to",
          "type": "address"
        },
        {
          "indexed": true,
          "internalType": "uint256",
          "name": "tokenId",
          "type": "uint256"
        }
      ],
      "name": "Transfer",
      "type": "event"
    },
    {
      "anonymous": false,
      "inputs": [
        {
          "indexed": false,
          "internalType": "address",
          "name": "account",
          "type": "address"
        }
      ],
      "name": "Unpaused",
      "type": "event"
    },
    {
      "inputs": [],
      "name": "_baseTokenURI",
      "outputs": [
        {
          "internalType": "string",
          "name": "",
          "type": "string"
        }
      ],
      "stateMutability": "view",
      "type": "function"
    },
    {
      "inputs": [],
      "name": "_supplyInNetwork",
      "outputs": [
        {
          "internalType": "uint256",
          "name": "",
          "type": "uint256"
        }
      ],
      "stateMutability": "view",
      "type": "function"
    },
    {
      "inputs": [
        {
          "internalType": "address",
          "name": "to",
          "type": "address"
        },
        {
          "internalType": "uint256",
          "name": "tokenId",
          "type": "uint256"
        }
      ],
      "name": "approve",
      "outputs": [],
      "stateMutability": "nonpayable",
      "type": "function"
    },
    {
      "inputs": [
        {
          "internalType": "address",
          "name": "owner",
          "type": "address"
        }
      ],
      "name": "balanceOf",
      "outputs": [
        {
          "internalType": "uint256",
          "name": "",
          "type": "uint256"
        }
      ],
      "stateMutability": "view",
      "type": "function"
    },
    {
      "inputs": [
        {
          "internalType": "uint256",
          "name": "tokenId",
          "type": "uint256"
        }
      ],
      "name": "getApproved",
      "outputs": [
        {
          "internalType": "address",
          "name": "",
          "type": "address"
        }
      ],
      "stateMutability": "view",
      "type": "function"
    },
    {
      "inputs": [
        {
          "internalType": "address",
          "name": "owner",
          "type": "address"
        },
        {
          "internalType": "address",
          "name": "operator",
          "type": "address"
        }
      ],
      "name": "isApprovedForAll",
      "outputs": [
        {
          "internalType": "bool",
          "name": "",
          "type": "bool"
        }
      ],
      "stateMutability": "view",
      "type": "function"
    },
    {
      "inputs": [],
      "name": "maxVal",
      "outputs": [
        {
          "internalType": "uint256",
          "name": "",
          "type": "uint256"
        }
      ],
      "stateMutability": "view",
      "type": "function"
    },
    {
      "inputs": [
        {
          "internalType": "address",
          "name": "recipient",
          "type": "address"
        }
      ],
      "name": "mintNFTForUser",
      "outputs": [
        {
          "internalType": "uint256",
          "name": "",
          "type": "uint256"
        }
      ],
      "stateMutability": "nonpayable",
      "type": "function"
    },
    {
      "inputs": [],
      "name": "name",
      "outputs": [
        {
          "internalType": "string",
          "name": "",
          "type": "string"
        }
      ],
      "stateMutability": "view",
      "type": "function"
    },
    {
      "inputs": [],
      "name": "owner",
      "outputs": [
        {
          "internalType": "address",
          "name": "",
          "type": "address"
        }
      ],
      "stateMutability": "view",
      "type": "function"
    },
    {
      "inputs": [
        {
          "internalType": "uint256",
          "name": "tokenId",
          "type": "uint256"
        }
      ],
      "name": "ownerOf",
      "outputs": [
        {
          "internalType": "address",
          "name": "",
          "type": "address"
        }
      ],
      "stateMutability": "view",
      "type": "function"
    },
    {
      "inputs": [],
      "name": "pause",
      "outputs": [],
      "stateMutability": "nonpayable",
      "type": "function"
    },
    {
      "inputs": [],
      "name": "paused",
      "outputs": [
        {
          "internalType": "bool",
          "name": "",
          "type": "bool"
        }
      ],
      "stateMutability": "view",
      "type": "function"
    },
    {
      "inputs": [
        {
          "internalType": "address",
          "name": "recipient",
          "type": "address"
        }
      ],
      "name": "presales",
      "outputs": [
        {
          "internalType": "uint256",
          "name": "",
          "type": "uint256"
        }
      ],
      "stateMutability": "nonpayable",
      "type": "function"
    },
    {
      "inputs": [],
      "name": "renounceOwnership",
      "outputs": [],
      "stateMutability": "nonpayable",
      "type": "function"
    },
    {
      "inputs": [
        {
          "internalType": "address",
          "name": "from",
          "type": "address"
        },
        {
          "internalType": "address",
          "name": "to",
          "type": "address"
        },
        {
          "internalType": "uint256",
          "name": "tokenId",
          "type": "uint256"
        }
      ],
      "name": "safeTransferFrom",
      "outputs": [],
      "stateMutability": "nonpayable",
      "type": "function"
    },
    {
      "inputs": [
        {
          "internalType": "address",
          "name": "from",
          "type": "address"
        },
        {
          "internalType": "address",
          "name": "to",
          "type": "address"
        },
        {
          "internalType": "uint256",
          "name": "tokenId",
          "type": "uint256"
        },
        {
          "internalType": "bytes",
          "name": "_data",
          "type": "bytes"
        }
      ],
      "name": "safeTransferFrom",
      "outputs": [],
      "stateMutability": "nonpayable",
      "type": "function"
    },
    {
      "inputs": [
        {
          "internalType": "address",
          "name": "operator",
          "type": "address"
        },
        {
          "internalType": "bool",
          "name": "approved",
          "type": "bool"
        }
      ],
      "name": "setApprovalForAll",
      "outputs": [],
      "stateMutability": "nonpayable",
      "type": "function"
    },
    {
      "inputs": [
        {
          "internalType": "string",
          "name": "baseURI",
          "type": "string"
        }
      ],
      "name": "setBaseURI",
      "outputs": [],
      "stateMutability": "nonpayable",
      "type": "function"
    },
    {
      "inputs": [
        {
          "internalType": "bytes4",
          "name": "interfaceId",
          "type": "bytes4"
        }
      ],
      "name": "supportsInterface",
      "outputs": [
        {
          "internalType": "bool",
          "name": "",
          "type": "bool"
        }
      ],
      "stateMutability": "view",
      "type": "function"
    },
    {
      "inputs": [],
      "name": "symbol",
      "outputs": [
        {
          "internalType": "string",
          "name": "",
          "type": "string"
        }
      ],
      "stateMutability": "view",
      "type": "function"
    },
    {
      "inputs": [
        {
          "internalType": "uint256",
          "name": "index",
          "type": "uint256"
        }
      ],
      "name": "tokenByIndex",
      "outputs": [
        {
          "internalType": "uint256",
          "name": "",
          "type": "uint256"
        }
      ],
      "stateMutability": "view",
      "type": "function"
    },
    {
      "inputs": [
        {
          "internalType": "address",
          "name": "owner",
          "type": "address"
        },
        {
          "internalType": "uint256",
          "name": "index",
          "type": "uint256"
        }
      ],
      "name": "tokenOfOwnerByIndex",
      "outputs": [
        {
          "internalType": "uint256",
          "name": "",
          "type": "uint256"
        }
      ],
      "stateMutability": "view",
      "type": "function"
    },
    {
      "inputs": [
        {
          "internalType": "uint256",
          "name": "tokenId",
          "type": "uint256"
        }
      ],
      "name": "tokenURI",
      "outputs": [
        {
          "internalType": "string",
          "name": "",
          "type": "string"
        }
      ],
      "stateMutability": "view",
      "type": "function"
    },
    {
      "inputs": [],
      "name": "totalSupply",
      "outputs": [
        {
          "internalType": "uint256",
          "name": "",
          "type": "uint256"
        }
      ],
      "stateMutability": "view",
      "type": "function"
    },
    {
      "inputs": [
        {
          "internalType": "address",
          "name": "from",
          "type": "address"
        },
        {
          "internalType": "address",
          "name": "to",
          "type": "address"
        },
        {
          "internalType": "uint256",
          "name": "tokenId",
          "type": "uint256"
        }
      ],
      "name": "transferFrom",
      "outputs": [],
      "stateMutability": "nonpayable",
      "type": "function"
    },
    {
      "inputs": [
        {
          "internalType": "address",
          "name": "newOwner",
          "type": "address"
        }
      ],
      "name": "transferOwnership",
      "outputs": [],
      "stateMutability": "nonpayable",
      "type": "function"
    },
    {
      "inputs": [],
      "name": "unpause",
      "outputs": [],
      "stateMutability": "nonpayable",
      "type": "function"
    }
  ],
  "bytecode": "0x60806040526040518060600160405280602c815260200162004069602c9139600c90805190602001906200003592919062000202565b506032600d55601e600e556000600f553480156200005257600080fd5b506040518060400160405280600281526020017f50530000000000000000000000000000000000000000000000000000000000008152506040518060400160405280600381526020017f50537400000000000000000000000000000000000000000000000000000000008152508160009080519060200190620000d792919062000202565b508060019080519060200190620000f092919062000202565b50505062000113620001076200013460201b60201c565b6200013c60201b60201c565b6000600a60146101000a81548160ff02191690831515021790555062000317565b600033905090565b6000600a60009054906101000a900473ffffffffffffffffffffffffffffffffffffffff16905081600a60006101000a81548173ffffffffffffffffffffffffffffffffffffffff021916908373ffffffffffffffffffffffffffffffffffffffff1602179055508173ffffffffffffffffffffffffffffffffffffffff168173ffffffffffffffffffffffffffffffffffffffff167f8be0079c531659141344cd1fd0a4f28419497f9722a3daafe3b4186f6b6457e060405160405180910390a35050565b8280546200021090620002b2565b90600052602060002090601f01602090048101928262000234576000855562000280565b82601f106200024f57805160ff191683800117855562000280565b8280016001018555821562000280579182015b828111156200027f57825182559160200191906001019062000262565b5b5090506200028f919062000293565b5090565b5b80821115620002ae57600081600090555060010162000294565b5090565b60006002820490506001821680620002cb57607f821691505b60208210811415620002e257620002e1620002e8565b5b50919050565b7f4e487b7100000000000000000000000000000000000000000000000000000000600052602260045260246000fd5b613d4280620003276000396000f3fe608060405234801561001057600080fd5b50600436106101c45760003560e01c8063715018a6116100f9578063b88d4fde11610097578063d62a120911610071578063d62a1209146104e1578063e985e9c5146104ff578063efcd708f1461052f578063f2fde38b1461055f576101c4565b8063b88d4fde14610477578063c87b56dd14610493578063cfc86f7b146104c3576101c4565b80638da5cb5b116100d35780638da5cb5b1461040157806395d89b411461041f578063972c4a221461043d578063a22cb4651461045b576101c4565b8063715018a6146103bd5780637d7f981d146103c75780638456cb59146103f7576101c4565b80633f4ba83a1161016657806355f804b31161014057806355f804b3146103235780635c975abb1461033f5780636352211e1461035d57806370a082311461038d576101c4565b80633f4ba83a146102cd57806342842e0e146102d75780634f6ccce7146102f3576101c4565b8063095ea7b3116101a2578063095ea7b31461024757806318160ddd1461026357806323b872dd146102815780632f745c591461029d576101c4565b806301ffc9a7146101c957806306fdde03146101f9578063081812fc14610217575b600080fd5b6101e360048036038101906101de9190612ada565b61057b565b6040516101f09190612ff3565b60405180910390f35b6102016105f5565b60405161020e919061300e565b60405180910390f35b610231600480360381019061022c9190612b6d565b610687565b60405161023e9190612f8c565b60405180910390f35b610261600480360381019061025c9190612a9e565b61070c565b005b61026b610824565b60405161027891906132f0565b60405180910390f35b61029b60048036038101906102969190612998565b610831565b005b6102b760048036038101906102b29190612a9e565b610891565b6040516102c491906132f0565b60405180910390f35b6102d5610936565b005b6102f160048036038101906102ec9190612998565b6109bc565b005b61030d60048036038101906103089190612b6d565b6109dc565b60405161031a91906132f0565b60405180910390f35b61033d60048036038101906103389190612b2c565b610a73565b005b610347610b09565b6040516103549190612ff3565b60405180910390f35b61037760048036038101906103729190612b6d565b610b20565b6040516103849190612f8c565b60405180910390f35b6103a760048036038101906103a29190612933565b610bd2565b6040516103b491906132f0565b60405180910390f35b6103c5610c8a565b005b6103e160048036038101906103dc9190612933565b610d12565b6040516103ee91906132f0565b60405180910390f35b6103ff610dd0565b005b610409610e56565b6040516104169190612f8c565b60405180910390f35b610427610e80565b604051610434919061300e565b60405180910390f35b610445610f12565b60405161045291906132f0565b60405180910390f35b61047560048036038101906104709190612a62565b610f18565b005b610491600480360381019061048c91906129e7565b610f2e565b005b6104ad60048036038101906104a89190612b6d565b610f90565b6040516104ba919061300e565b60405180910390f35b6104cb611037565b6040516104d8919061300e565b60405180910390f35b6104e96110c5565b6040516104f691906132f0565b60405180910390f35b6105196004803603810190610514919061295c565b6110cb565b6040516105269190612ff3565b60405180910390f35b61054960048036038101906105449190612933565b61115f565b60405161055691906132f0565b60405180910390f35b61057960048036038101906105749190612933565b611264565b005b60007f780e9d63000000000000000000000000000000000000000000000000000000007bffffffffffffffffffffffffffffffffffffffffffffffffffffffff1916827bffffffffffffffffffffffffffffffffffffffffffffffffffffffff191614806105ee57506105ed8261135c565b5b9050919050565b60606000805461060490613546565b80601f016020809104026020016040519081016040528092919081815260200182805461063090613546565b801561067d5780601f106106525761010080835404028352916020019161067d565b820191906000526020600020905b81548152906001019060200180831161066057829003601f168201915b5050505050905090565b60006106928261143e565b6106d1576040517f08c379a00000000000000000000000000000000000000000000000000000000081526004016106c890613230565b60405180910390fd5b6004600083815260200190815260200160002060009054906101000a900473ffffffffffffffffffffffffffffffffffffffff169050919050565b600061071782610b20565b90508073ffffffffffffffffffffffffffffffffffffffff168373ffffffffffffffffffffffffffffffffffffffff161415610788576040517f08c379a000000000000000000000000000000000000000000000000000000000815260040161077f90613290565b60405180910390fd5b8073ffffffffffffffffffffffffffffffffffffffff166107a76114aa565b73ffffffffffffffffffffffffffffffffffffffff1614806107d657506107d5816107d06114aa565b6110cb565b5b610815576040517f08c379a000000000000000000000000000000000000000000000000000000000815260040161080c90613190565b60405180910390fd5b61081f83836114b2565b505050565b6000600880549050905090565b61084261083c6114aa565b8261156b565b610881576040517f08c379a0000000000000000000000000000000000000000000000000000000008152600401610878906132b0565b60405180910390fd5b61088c838383611649565b505050565b600061089c83610bd2565b82106108dd576040517f08c379a00000000000000000000000000000000000000000000000000000000081526004016108d490613070565b60405180910390fd5b600660008473ffffffffffffffffffffffffffffffffffffffff1673ffffffffffffffffffffffffffffffffffffffff168152602001908152602001600020600083815260200190815260200160002054905092915050565b61093e6114aa565b73ffffffffffffffffffffffffffffffffffffffff1661095c610e56565b73ffffffffffffffffffffffffffffffffffffffff16146109b2576040517f08c379a00000000000000000000000000000000000000000000000000000000081526004016109a990613250565b60405180910390fd5b6109ba6118b0565b565b6109d783838360405180602001604052806000815250610f2e565b505050565b60006109e6610824565b8210610a27576040517f08c379a0000000000000000000000000000000000000000000000000000000008152600401610a1e906132d0565b60405180910390fd5b60088281548110610a61577f4e487b7100000000000000000000000000000000000000000000000000000000600052603260045260246000fd5b90600052602060002001549050919050565b610a7b6114aa565b73ffffffffffffffffffffffffffffffffffffffff16610a99610e56565b73ffffffffffffffffffffffffffffffffffffffff1614610aef576040517f08c379a0000000000000000000000000000000000000000000000000000000008152600401610ae690613250565b60405180910390fd5b80600c9080519060200190610b05929190612757565b5050565b6000600a60149054906101000a900460ff16905090565b6000806002600084815260200190815260200160002060009054906101000a900473ffffffffffffffffffffffffffffffffffffffff169050600073ffffffffffffffffffffffffffffffffffffffff168173ffffffffffffffffffffffffffffffffffffffff161415610bc9576040517f08c379a0000000000000000000000000000000000000000000000000000000008152600401610bc0906131d0565b60405180910390fd5b80915050919050565b60008073ffffffffffffffffffffffffffffffffffffffff168273ffffffffffffffffffffffffffffffffffffffff161415610c43576040517f08c379a0000000000000000000000000000000000000000000000000000000008152600401610c3a906131b0565b60405180910390fd5b600360008373ffffffffffffffffffffffffffffffffffffffff1673ffffffffffffffffffffffffffffffffffffffff168152602001908152602001600020549050919050565b610c926114aa565b73ffffffffffffffffffffffffffffffffffffffff16610cb0610e56565b73ffffffffffffffffffffffffffffffffffffffff1614610d06576040517f08c379a0000000000000000000000000000000000000000000000000000000008152600401610cfd90613250565b60405180910390fd5b610d106000611952565b565b6000610d1c610b09565b15610d5c576040517f08c379a0000000000000000000000000000000000000000000000000000000008152600401610d5390613170565b60405180910390fd5b6000610d66610824565b90506000600182610d7791906133d5565b9050601f8210610dbc576040517f08c379a0000000000000000000000000000000000000000000000000000000008152600401610db390613050565b60405180910390fd5b610dc68482611a18565b8092505050919050565b610dd86114aa565b73ffffffffffffffffffffffffffffffffffffffff16610df6610e56565b73ffffffffffffffffffffffffffffffffffffffff1614610e4c576040517f08c379a0000000000000000000000000000000000000000000000000000000008152600401610e4390613250565b60405180910390fd5b610e54611bf2565b565b6000600a60009054906101000a900473ffffffffffffffffffffffffffffffffffffffff16905090565b606060018054610e8f90613546565b80601f0160208091040260200160405190810160405280929190818152602001828054610ebb90613546565b8015610f085780601f10610edd57610100808354040283529160200191610f08565b820191906000526020600020905b815481529060010190602001808311610eeb57829003601f168201915b5050505050905090565b600d5481565b610f2a610f236114aa565b8383611c95565b5050565b610f3f610f396114aa565b8361156b565b610f7e576040517f08c379a0000000000000000000000000000000000000000000000000000000008152600401610f75906132b0565b60405180910390fd5b610f8a84848484611e02565b50505050565b6060610f9b8261143e565b610fda576040517f08c379a0000000000000000000000000000000000000000000000000000000008152600401610fd190613270565b60405180910390fd5b6000610fe4611e5e565b90506000815111611004576040518060200160405280600081525061102f565b8061100e84611ef0565b60405160200161101f929190612f68565b6040516020818303038152906040525b915050919050565b600c805461104490613546565b80601f016020809104026020016040519081016040528092919081815260200182805461107090613546565b80156110bd5780601f10611092576101008083540402835291602001916110bd565b820191906000526020600020905b8154815290600101906020018083116110a057829003601f168201915b505050505081565b600e5481565b6000600560008473ffffffffffffffffffffffffffffffffffffffff1673ffffffffffffffffffffffffffffffffffffffff16815260200190815260200160002060008373ffffffffffffffffffffffffffffffffffffffff1673ffffffffffffffffffffffffffffffffffffffff16815260200190815260200160002060009054906101000a900460ff16905092915050565b60006111696114aa565b73ffffffffffffffffffffffffffffffffffffffff16611187610e56565b73ffffffffffffffffffffffffffffffffffffffff16146111dd576040517f08c379a00000000000000000000000000000000000000000000000000000000081526004016111d490613250565b60405180910390fd5b6000600581101561125d5760006111f2610824565b9050600060018261120391906133d5565b905060338210611248576040517f08c379a000000000000000000000000000000000000000000000000000000000815260040161123f906131f0565b60405180910390fd5b6112528582611a18565b80935050505061125f565b505b919050565b61126c6114aa565b73ffffffffffffffffffffffffffffffffffffffff1661128a610e56565b73ffffffffffffffffffffffffffffffffffffffff16146112e0576040517f08c379a00000000000000000000000000000000000000000000000000000000081526004016112d790613250565b60405180910390fd5b600073ffffffffffffffffffffffffffffffffffffffff168173ffffffffffffffffffffffffffffffffffffffff161415611350576040517f08c379a0000000000000000000000000000000000000000000000000000000008152600401611347906130b0565b60405180910390fd5b61135981611952565b50565b60007f80ac58cd000000000000000000000000000000000000000000000000000000007bffffffffffffffffffffffffffffffffffffffffffffffffffffffff1916827bffffffffffffffffffffffffffffffffffffffffffffffffffffffff1916148061142757507f5b5e139f000000000000000000000000000000000000000000000000000000007bffffffffffffffffffffffffffffffffffffffffffffffffffffffff1916827bffffffffffffffffffffffffffffffffffffffffffffffffffffffff1916145b8061143757506114368261209d565b5b9050919050565b60008073ffffffffffffffffffffffffffffffffffffffff166002600084815260200190815260200160002060009054906101000a900473ffffffffffffffffffffffffffffffffffffffff1673ffffffffffffffffffffffffffffffffffffffff1614159050919050565b600033905090565b816004600083815260200190815260200160002060006101000a81548173ffffffffffffffffffffffffffffffffffffffff021916908373ffffffffffffffffffffffffffffffffffffffff160217905550808273ffffffffffffffffffffffffffffffffffffffff1661152583610b20565b73ffffffffffffffffffffffffffffffffffffffff167f8c5be1e5ebec7d5bd14f71427d1e84f3dd0314c0f7b2291e5b200ac8c7c3b92560405160405180910390a45050565b60006115768261143e565b6115b5576040517f08c379a00000000000000000000000000000000000000000000000000000000081526004016115ac90613150565b60405180910390fd5b60006115c083610b20565b90508073ffffffffffffffffffffffffffffffffffffffff168473ffffffffffffffffffffffffffffffffffffffff161480611602575061160181856110cb565b5b8061164057508373ffffffffffffffffffffffffffffffffffffffff1661162884610687565b73ffffffffffffffffffffffffffffffffffffffff16145b91505092915050565b8273ffffffffffffffffffffffffffffffffffffffff1661166982610b20565b73ffffffffffffffffffffffffffffffffffffffff16146116bf576040517f08c379a00000000000000000000000000000000000000000000000000000000081526004016116b6906130d0565b60405180910390fd5b600073ffffffffffffffffffffffffffffffffffffffff168273ffffffffffffffffffffffffffffffffffffffff16141561172f576040517f08c379a000000000000000000000000000000000000000000000000000000000815260040161172690613110565b60405180910390fd5b61173a838383612107565b6117456000826114b2565b6001600360008573ffffffffffffffffffffffffffffffffffffffff1673ffffffffffffffffffffffffffffffffffffffff1681526020019081526020016000206000828254611795919061345c565b925050819055506001600360008473ffffffffffffffffffffffffffffffffffffffff1673ffffffffffffffffffffffffffffffffffffffff16815260200190815260200160002060008282546117ec91906133d5565b92505081905550816002600083815260200190815260200160002060006101000a81548173ffffffffffffffffffffffffffffffffffffffff021916908373ffffffffffffffffffffffffffffffffffffffff160217905550808273ffffffffffffffffffffffffffffffffffffffff168473ffffffffffffffffffffffffffffffffffffffff167fddf252ad1be2c89b69c2b068fc378daa952ba7f163c4a11628f55a4df523b3ef60405160405180910390a46118ab83838361221b565b505050565b6118b8610b09565b6118f7576040517f08c379a00000000000000000000000000000000000000000000000000000000081526004016118ee90613030565b60405180910390fd5b6000600a60146101000a81548160ff0219169083151502179055507f5db9ee0a495bf2e6ff9c91a7834c1ba4fdd244a5e8aa4e537bd38aeae4b073aa61193b6114aa565b6040516119489190612f8c565b60405180910390a1565b6000600a60009054906101000a900473ffffffffffffffffffffffffffffffffffffffff16905081600a60006101000a81548173ffffffffffffffffffffffffffffffffffffffff021916908373ffffffffffffffffffffffffffffffffffffffff1602179055508173ffffffffffffffffffffffffffffffffffffffff168173ffffffffffffffffffffffffffffffffffffffff167f8be0079c531659141344cd1fd0a4f28419497f9722a3daafe3b4186f6b6457e060405160405180910390a35050565b600073ffffffffffffffffffffffffffffffffffffffff168273ffffffffffffffffffffffffffffffffffffffff161415611a88576040517f08c379a0000000000000000000000000000000000000000000000000000000008152600401611a7f90613210565b60405180910390fd5b611a918161143e565b15611ad1576040517f08c379a0000000000000000000000000000000000000000000000000000000008152600401611ac8906130f0565b60405180910390fd5b611add60008383612107565b6001600360008473ffffffffffffffffffffffffffffffffffffffff1673ffffffffffffffffffffffffffffffffffffffff1681526020019081526020016000206000828254611b2d91906133d5565b92505081905550816002600083815260200190815260200160002060006101000a81548173ffffffffffffffffffffffffffffffffffffffff021916908373ffffffffffffffffffffffffffffffffffffffff160217905550808273ffffffffffffffffffffffffffffffffffffffff16600073ffffffffffffffffffffffffffffffffffffffff167fddf252ad1be2c89b69c2b068fc378daa952ba7f163c4a11628f55a4df523b3ef60405160405180910390a4611bee6000838361221b565b5050565b611bfa610b09565b15611c3a576040517f08c379a0000000000000000000000000000000000000000000000000000000008152600401611c3190613170565b60405180910390fd5b6001600a60146101000a81548160ff0219169083151502179055507f62e78cea01bee320cd4e420270b5ea74000d11b0c9f74754ebdbfc544b05a258611c7e6114aa565b604051611c8b9190612f8c565b60405180910390a1565b8173ffffffffffffffffffffffffffffffffffffffff168373ffffffffffffffffffffffffffffffffffffffff161415611d04576040517f08c379a0000000000000000000000000000000000000000000000000000000008152600401611cfb90613130565b60405180910390fd5b80600560008573ffffffffffffffffffffffffffffffffffffffff1673ffffffffffffffffffffffffffffffffffffffff16815260200190815260200160002060008473ffffffffffffffffffffffffffffffffffffffff1673ffffffffffffffffffffffffffffffffffffffff16815260200190815260200160002060006101000a81548160ff0219169083151502179055508173ffffffffffffffffffffffffffffffffffffffff168373ffffffffffffffffffffffffffffffffffffffff167f17307eab39ab6107e8899845ad3d59bd9653f200f220920489ca2b5937696c3183604051611df59190612ff3565b60405180910390a3505050565b611e0d848484611649565b611e1984848484612220565b611e58576040517f08c379a0000000000000000000000000000000000000000000000000000000008152600401611e4f90613090565b60405180910390fd5b50505050565b6060600c8054611e6d90613546565b80601f0160208091040260200160405190810160405280929190818152602001828054611e9990613546565b8015611ee65780601f10611ebb57610100808354040283529160200191611ee6565b820191906000526020600020905b815481529060010190602001808311611ec957829003601f168201915b5050505050905090565b60606000821415611f38576040518060400160405280600181526020017f30000000000000000000000000000000000000000000000000000000000000008152509050612098565b600082905060005b60008214611f6a578080611f53906135a9565b915050600a82611f63919061342b565b9150611f40565b60008167ffffffffffffffff811115611fac577f4e487b7100000000000000000000000000000000000000000000000000000000600052604160045260246000fd5b6040519080825280601f01601f191660200182016040528015611fde5781602001600182028036833780820191505090505b5090505b6000851461209157600182611ff7919061345c565b9150600a8561200691906135f2565b603061201291906133d5565b60f81b81838151811061204e577f4e487b7100000000000000000000000000000000000000000000000000000000600052603260045260246000fd5b60200101907effffffffffffffffffffffffffffffffffffffffffffffffffffffffffffff1916908160001a905350600a8561208a919061342b565b9450611fe2565b8093505050505b919050565b60007f01ffc9a7000000000000000000000000000000000000000000000000000000007bffffffffffffffffffffffffffffffffffffffffffffffffffffffff1916827bffffffffffffffffffffffffffffffffffffffffffffffffffffffff1916149050919050565b6121128383836123b7565b600073ffffffffffffffffffffffffffffffffffffffff168373ffffffffffffffffffffffffffffffffffffffff16141561215557612150816123bc565b612194565b8173ffffffffffffffffffffffffffffffffffffffff168373ffffffffffffffffffffffffffffffffffffffff1614612193576121928382612405565b5b5b600073ffffffffffffffffffffffffffffffffffffffff168273ffffffffffffffffffffffffffffffffffffffff1614156121d7576121d281612572565b612216565b8273ffffffffffffffffffffffffffffffffffffffff168273ffffffffffffffffffffffffffffffffffffffff16146122155761221482826126b5565b5b5b505050565b505050565b60006122418473ffffffffffffffffffffffffffffffffffffffff16612734565b156123aa578373ffffffffffffffffffffffffffffffffffffffff1663150b7a0261226a6114aa565b8786866040518563ffffffff1660e01b815260040161228c9493929190612fa7565b602060405180830381600087803b1580156122a657600080fd5b505af19250505080156122d757506040513d601f19601f820116820180604052508101906122d49190612b03565b60015b61235a573d8060008114612307576040519150601f19603f3d011682016040523d82523d6000602084013e61230c565b606091505b50600081511415612352576040517f08c379a000000000000000000000000000000000000000000000000000000000815260040161234990613090565b60405180910390fd5b805181602001fd5b63150b7a0260e01b7bffffffffffffffffffffffffffffffffffffffffffffffffffffffff1916817bffffffffffffffffffffffffffffffffffffffffffffffffffffffff1916149150506123af565b600190505b949350505050565b505050565b6008805490506009600083815260200190815260200160002081905550600881908060018154018082558091505060019003906000526020600020016000909190919091505550565b6000600161241284610bd2565b61241c919061345c565b9050600060076000848152602001908152602001600020549050818114612501576000600660008673ffffffffffffffffffffffffffffffffffffffff1673ffffffffffffffffffffffffffffffffffffffff168152602001908152602001600020600084815260200190815260200160002054905080600660008773ffffffffffffffffffffffffffffffffffffffff1673ffffffffffffffffffffffffffffffffffffffff168152602001908152602001600020600084815260200190815260200160002081905550816007600083815260200190815260200160002081905550505b6007600084815260200190815260200160002060009055600660008573ffffffffffffffffffffffffffffffffffffffff1673ffffffffffffffffffffffffffffffffffffffff16815260200190815260200160002060008381526020019081526020016000206000905550505050565b60006001600880549050612586919061345c565b90506000600960008481526020019081526020016000205490506000600883815481106125dc577f4e487b7100000000000000000000000000000000000000000000000000000000600052603260045260246000fd5b906000526020600020015490508060088381548110612624577f4e487b7100000000000000000000000000000000000000000000000000000000600052603260045260246000fd5b906000526020600020018190555081600960008381526020019081526020016000208190555060096000858152602001908152602001600020600090556008805480612699577f4e487b7100000000000000000000000000000000000000000000000000000000600052603160045260246000fd5b6001900381819060005260206000200160009055905550505050565b60006126c083610bd2565b905081600660008573ffffffffffffffffffffffffffffffffffffffff1673ffffffffffffffffffffffffffffffffffffffff168152602001908152602001600020600083815260200190815260200160002081905550806007600084815260200190815260200160002081905550505050565b6000808273ffffffffffffffffffffffffffffffffffffffff163b119050919050565b82805461276390613546565b90600052602060002090601f01602090048101928261278557600085556127cc565b82601f1061279e57805160ff19168380011785556127cc565b828001600101855582156127cc579182015b828111156127cb5782518255916020019190600101906127b0565b5b5090506127d991906127dd565b5090565b5b808211156127f65760008160009055506001016127de565b5090565b600061280d61280884613330565b61330b565b90508281526020810184848401111561282557600080fd5b612830848285613504565b509392505050565b600061284b61284684613361565b61330b565b90508281526020810184848401111561286357600080fd5b61286e848285613504565b509392505050565b60008135905061288581613cb0565b92915050565b60008135905061289a81613cc7565b92915050565b6000813590506128af81613cde565b92915050565b6000815190506128c481613cde565b92915050565b600082601f8301126128db57600080fd5b81356128eb8482602086016127fa565b91505092915050565b600082601f83011261290557600080fd5b8135612915848260208601612838565b91505092915050565b60008135905061292d81613cf5565b92915050565b60006020828403121561294557600080fd5b600061295384828501612876565b91505092915050565b6000806040838503121561296f57600080fd5b600061297d85828601612876565b925050602061298e85828601612876565b9150509250929050565b6000806000606084860312156129ad57600080fd5b60006129bb86828701612876565b93505060206129cc86828701612876565b92505060406129dd8682870161291e565b9150509250925092565b600080600080608085870312156129fd57600080fd5b6000612a0b87828801612876565b9450506020612a1c87828801612876565b9350506040612a2d8782880161291e565b925050606085013567ffffffffffffffff811115612a4a57600080fd5b612a56878288016128ca565b91505092959194509250565b60008060408385031215612a7557600080fd5b6000612a8385828601612876565b9250506020612a948582860161288b565b9150509250929050565b60008060408385031215612ab157600080fd5b6000612abf85828601612876565b9250506020612ad08582860161291e565b9150509250929050565b600060208284031215612aec57600080fd5b6000612afa848285016128a0565b91505092915050565b600060208284031215612b1557600080fd5b6000612b23848285016128b5565b91505092915050565b600060208284031215612b3e57600080fd5b600082013567ffffffffffffffff811115612b5857600080fd5b612b64848285016128f4565b91505092915050565b600060208284031215612b7f57600080fd5b6000612b8d8482850161291e565b91505092915050565b612b9f81613490565b82525050565b612bae816134a2565b82525050565b6000612bbf82613392565b612bc981856133a8565b9350612bd9818560208601613513565b612be2816136df565b840191505092915050565b6000612bf88261339d565b612c0281856133b9565b9350612c12818560208601613513565b612c1b816136df565b840191505092915050565b6000612c318261339d565b612c3b81856133ca565b9350612c4b818560208601613513565b80840191505092915050565b6000612c646014836133b9565b9150612c6f826136f0565b602082019050919050565b6000612c87601d836133b9565b9150612c9282613719565b602082019050919050565b6000612caa602b836133b9565b9150612cb582613742565b604082019050919050565b6000612ccd6032836133b9565b9150612cd882613791565b604082019050919050565b6000612cf06026836133b9565b9150612cfb826137e0565b604082019050919050565b6000612d136025836133b9565b9150612d1e8261382f565b604082019050919050565b6000612d36601c836133b9565b9150612d418261387e565b602082019050919050565b6000612d596024836133b9565b9150612d64826138a7565b604082019050919050565b6000612d7c6019836133b9565b9150612d87826138f6565b602082019050919050565b6000612d9f602c836133b9565b9150612daa8261391f565b604082019050919050565b6000612dc26010836133b9565b9150612dcd8261396e565b602082019050919050565b6000612de56038836133b9565b9150612df082613997565b604082019050919050565b6000612e08602a836133b9565b9150612e13826139e6565b604082019050919050565b6000612e2b6029836133b9565b9150612e3682613a35565b604082019050919050565b6000612e4e6027836133b9565b9150612e5982613a84565b604082019050919050565b6000612e716020836133b9565b9150612e7c82613ad3565b602082019050919050565b6000612e94602c836133b9565b9150612e9f82613afc565b604082019050919050565b6000612eb76020836133b9565b9150612ec282613b4b565b602082019050919050565b6000612eda602f836133b9565b9150612ee582613b74565b604082019050919050565b6000612efd6021836133b9565b9150612f0882613bc3565b604082019050919050565b6000612f206031836133b9565b9150612f2b82613c12565b604082019050919050565b6000612f43602c836133b9565b9150612f4e82613c61565b604082019050919050565b612f62816134fa565b82525050565b6000612f748285612c26565b9150612f808284612c26565b91508190509392505050565b6000602082019050612fa16000830184612b96565b92915050565b6000608082019050612fbc6000830187612b96565b612fc96020830186612b96565b612fd66040830185612f59565b8181036060830152612fe88184612bb4565b905095945050505050565b60006020820190506130086000830184612ba5565b92915050565b600060208201905081810360008301526130288184612bed565b905092915050565b6000602082019050818103600083015261304981612c57565b9050919050565b6000602082019050818103600083015261306981612c7a565b9050919050565b6000602082019050818103600083015261308981612c9d565b9050919050565b600060208201905081810360008301526130a981612cc0565b9050919050565b600060208201905081810360008301526130c981612ce3565b9050919050565b600060208201905081810360008301526130e981612d06565b9050919050565b6000602082019050818103600083015261310981612d29565b9050919050565b6000602082019050818103600083015261312981612d4c565b9050919050565b6000602082019050818103600083015261314981612d6f565b9050919050565b6000602082019050818103600083015261316981612d92565b9050919050565b6000602082019050818103600083015261318981612db5565b9050919050565b600060208201905081810360008301526131a981612dd8565b9050919050565b600060208201905081810360008301526131c981612dfb565b9050919050565b600060208201905081810360008301526131e981612e1e565b9050919050565b6000602082019050818103600083015261320981612e41565b9050919050565b6000602082019050818103600083015261322981612e64565b9050919050565b6000602082019050818103600083015261324981612e87565b9050919050565b6000602082019050818103600083015261326981612eaa565b9050919050565b6000602082019050818103600083015261328981612ecd565b9050919050565b600060208201905081810360008301526132a981612ef0565b9050919050565b600060208201905081810360008301526132c981612f13565b9050919050565b600060208201905081810360008301526132e981612f36565b9050919050565b60006020820190506133056000830184612f59565b92915050565b6000613315613326565b90506133218282613578565b919050565b6000604051905090565b600067ffffffffffffffff82111561334b5761334a6136b0565b5b613354826136df565b9050602081019050919050565b600067ffffffffffffffff82111561337c5761337b6136b0565b5b613385826136df565b9050602081019050919050565b600081519050919050565b600081519050919050565b600082825260208201905092915050565b600082825260208201905092915050565b600081905092915050565b60006133e0826134fa565b91506133eb836134fa565b9250827fffffffffffffffffffffffffffffffffffffffffffffffffffffffffffffffff038211156134205761341f613623565b5b828201905092915050565b6000613436826134fa565b9150613441836134fa565b92508261345157613450613652565b5b828204905092915050565b6000613467826134fa565b9150613472836134fa565b92508282101561348557613484613623565b5b828203905092915050565b600061349b826134da565b9050919050565b60008115159050919050565b60007fffffffff0000000000000000000000000000000000000000000000000000000082169050919050565b600073ffffffffffffffffffffffffffffffffffffffff82169050919050565b6000819050919050565b82818337600083830152505050565b60005b83811015613531578082015181840152602081019050613516565b83811115613540576000848401525b50505050565b6000600282049050600182168061355e57607f821691505b6020821081141561357257613571613681565b5b50919050565b613581826136df565b810181811067ffffffffffffffff821117156135a05761359f6136b0565b5b80604052505050565b60006135b4826134fa565b91507fffffffffffffffffffffffffffffffffffffffffffffffffffffffffffffffff8214156135e7576135e6613623565b5b600182019050919050565b60006135fd826134fa565b9150613608836134fa565b92508261361857613617613652565b5b828206905092915050565b7f4e487b7100000000000000000000000000000000000000000000000000000000600052601160045260246000fd5b7f4e487b7100000000000000000000000000000000000000000000000000000000600052601260045260246000fd5b7f4e487b7100000000000000000000000000000000000000000000000000000000600052602260045260246000fd5b7f4e487b7100000000000000000000000000000000000000000000000000000000600052604160045260246000fd5b6000601f19601f8301169050919050565b7f5061757361626c653a206e6f7420706175736564000000000000000000000000600082015250565b7f4572726f72202d203330204e465420616c7265616479206d696e746564000000600082015250565b7f455243373231456e756d657261626c653a206f776e657220696e646578206f7560008201527f74206f6620626f756e6473000000000000000000000000000000000000000000602082015250565b7f4552433732313a207472616e7366657220746f206e6f6e20455243373231526560008201527f63656976657220696d706c656d656e7465720000000000000000000000000000602082015250565b7f4f776e61626c653a206e6577206f776e657220697320746865207a65726f206160008201527f6464726573730000000000000000000000000000000000000000000000000000602082015250565b7f4552433732313a207472616e736665722066726f6d20696e636f72726563742060008201527f6f776e6572000000000000000000000000000000000000000000000000000000602082015250565b7f4552433732313a20746f6b656e20616c7265616479206d696e74656400000000600082015250565b7f4552433732313a207472616e7366657220746f20746865207a65726f2061646460008201527f7265737300000000000000000000000000000000000000000000000000000000602082015250565b7f4552433732313a20617070726f766520746f2063616c6c657200000000000000600082015250565b7f4552433732313a206f70657261746f7220717565727920666f72206e6f6e657860008201527f697374656e7420746f6b656e0000000000000000000000000000000000000000602082015250565b7f5061757361626c653a2070617573656400000000000000000000000000000000600082015250565b7f4552433732313a20617070726f76652063616c6c6572206973206e6f74206f7760008201527f6e6572206e6f7220617070726f76656420666f7220616c6c0000000000000000602082015250565b7f4552433732313a2062616c616e636520717565727920666f7220746865207a6560008201527f726f206164647265737300000000000000000000000000000000000000000000602082015250565b7f4552433732313a206f776e657220717565727920666f72206e6f6e657869737460008201527f656e7420746f6b656e0000000000000000000000000000000000000000000000602082015250565b7f4572726f72202d204d61782e206f66203530204e4654277320616c726561647960008201527f206d696e74656400000000000000000000000000000000000000000000000000602082015250565b7f4552433732313a206d696e7420746f20746865207a65726f2061646472657373600082015250565b7f4552433732313a20617070726f76656420717565727920666f72206e6f6e657860008201527f697374656e7420746f6b656e0000000000000000000000000000000000000000602082015250565b7f4f776e61626c653a2063616c6c6572206973206e6f7420746865206f776e6572600082015250565b7f4552433732314d657461646174613a2055524920717565727920666f72206e6f60008201527f6e6578697374656e7420746f6b656e0000000000000000000000000000000000602082015250565b7f4552433732313a20617070726f76616c20746f2063757272656e74206f776e6560008201527f7200000000000000000000000000000000000000000000000000000000000000602082015250565b7f4552433732313a207472616e736665722063616c6c6572206973206e6f74206f60008201527f776e6572206e6f7220617070726f766564000000000000000000000000000000602082015250565b7f455243373231456e756d657261626c653a20676c6f62616c20696e646578206f60008201527f7574206f6620626f756e64730000000000000000000000000000000000000000602082015250565b613cb981613490565b8114613cc457600080fd5b50565b613cd0816134a2565b8114613cdb57600080fd5b50565b613ce7816134ae565b8114613cf257600080fd5b50565b613cfe816134fa565b8114613d0957600080fd5b5056fea2646970667358221220956d1350cecf3dc836c593738c689e91544175eb412d77b290347a6178fdc86a64736f6c6343000801003368747470733a2f2f626c6f636b636861696e7a656e6c6162732e7a656e7361722e636f6d2f746f6b656e732f",
  "linkReferences": {},
  "deployedLinkReferences": {}
}