{
  "_format": "hh-sol-artifact-1",
  "contractName": "PS",
  "sourceName": "contracts/PS.sol",
  "abi": [
    {
      "inputs": [],
      "stateMutability": "nonpayable",
      "type": "constructor"
    },
    {
      "anonymous": false,
      "inputs": [
        {
          "indexed": true,
          "internalType": "address",
          "name": "owner",
          "type": "address"
        },
        {
          "indexed": true,
          "internalType": "address",
          "name": "approved",
          "type": "address"
        },
        {
          "indexed": true,
          "internalType": "uint256",
          "name": "tokenId",
          "type": "uint256"
        }
      ],
      "name": "Approval",
      "type": "event"
    },
    {
      "anonymous": false,
      "inputs": [
        {
          "indexed": true,
          "internalType": "address",
          "name": "owner",
          "type": "address"
        },
        {
          "indexed": true,
          "internalType": "address",
          "name": "operator",
          "type": "address"
        },
        {
          "indexed": false,
          "internalType": "bool",
          "name": "approved",
          "type": "bool"
        }
      ],
      "name": "ApprovalForAll",
      "type": "event"
    },
    {
      "anonymous": false,
      "inputs": [
        {
          "indexed": true,
          "internalType": "address",
          "name": "previousOwner",
          "type": "address"
        },
        {
          "indexed": true,
          "internalType": "address",
          "name": "newOwner",
          "type": "address"
        }
      ],
      "name": "OwnershipTransferred",
      "type": "event"
    },
    {
      "anonymous": false,
      "inputs": [
        {
          "indexed": false,
          "internalType": "address",
          "name": "account",
          "type": "address"
        }
      ],
      "name": "Paused",
      "type": "event"
    },
    {
      "anonymous": false,
      "inputs": [
        {
          "indexed": true,
          "internalType": "address",
          "name": "from",
          "type": "address"
        },
        {
          "indexed": true,
          "internalType": "address",
          "name": "to",
          "type": "address"
        },
        {
          "indexed": true,
          "internalType": "uint256",
          "name": "tokenId",
          "type": "uint256"
        }
      ],
      "name": "Transfer",
      "type": "event"
    },
    {
      "anonymous": false,
      "inputs": [
        {
          "indexed": false,
          "internalType": "address",
          "name": "account",
          "type": "address"
        }
      ],
      "name": "Unpaused",
      "type": "event"
    },
    {
      "inputs": [
        {
          "internalType": "address",
          "name": "to",
          "type": "address"
        },
        {
          "internalType": "uint256",
          "name": "tokenId",
          "type": "uint256"
        }
      ],
      "name": "approve",
      "outputs": [],
      "stateMutability": "nonpayable",
      "type": "function"
    },
    {
      "inputs": [
        {
          "internalType": "address",
          "name": "owner",
          "type": "address"
        }
      ],
      "name": "balanceOf",
      "outputs": [
        {
          "internalType": "uint256",
          "name": "",
          "type": "uint256"
        }
      ],
      "stateMutability": "view",
      "type": "function"
    },
    {
      "inputs": [],
      "name": "baseTokenURI",
      "outputs": [
        {
          "internalType": "string",
          "name": "",
          "type": "string"
        }
      ],
      "stateMutability": "view",
      "type": "function"
    },
    {
      "inputs": [
        {
          "internalType": "uint256",
          "name": "tokenId",
          "type": "uint256"
        }
      ],
      "name": "getApproved",
      "outputs": [
        {
          "internalType": "address",
          "name": "",
          "type": "address"
        }
      ],
      "stateMutability": "view",
      "type": "function"
    },
    {
      "inputs": [
        {
          "internalType": "address",
          "name": "recipient",
          "type": "address"
        }
      ],
      "name": "getBalance",
      "outputs": [
        {
          "internalType": "uint256",
          "name": "",
          "type": "uint256"
        }
      ],
      "stateMutability": "view",
      "type": "function"
    },
    {
      "inputs": [
        {
          "internalType": "address",
          "name": "owner",
          "type": "address"
        },
        {
          "internalType": "address",
          "name": "operator",
          "type": "address"
        }
      ],
      "name": "isApprovedForAll",
      "outputs": [
        {
          "internalType": "bool",
          "name": "",
          "type": "bool"
        }
      ],
      "stateMutability": "view",
      "type": "function"
    },
    {
      "inputs": [],
      "name": "mintNFTForUser",
      "outputs": [],
      "stateMutability": "payable",
      "type": "function"
    },
    {
      "inputs": [],
      "name": "name",
      "outputs": [
        {
          "internalType": "string",
          "name": "",
          "type": "string"
        }
      ],
      "stateMutability": "view",
      "type": "function"
    },
    {
      "inputs": [],
      "name": "owner",
      "outputs": [
        {
          "internalType": "address",
          "name": "",
          "type": "address"
        }
      ],
      "stateMutability": "view",
      "type": "function"
    },
    {
      "inputs": [
        {
          "internalType": "uint256",
          "name": "tokenId",
          "type": "uint256"
        }
      ],
      "name": "ownerOf",
      "outputs": [
        {
          "internalType": "address",
          "name": "",
          "type": "address"
        }
      ],
      "stateMutability": "view",
      "type": "function"
    },
    {
      "inputs": [],
      "name": "paused",
      "outputs": [
        {
          "internalType": "bool",
          "name": "",
          "type": "bool"
        }
      ],
      "stateMutability": "view",
      "type": "function"
    },
    {
      "inputs": [],
      "name": "presales",
      "outputs": [],
      "stateMutability": "nonpayable",
      "type": "function"
    },
    {
      "inputs": [],
      "name": "renounceOwnership",
      "outputs": [],
      "stateMutability": "nonpayable",
      "type": "function"
    },
    {
      "inputs": [
        {
          "internalType": "address",
          "name": "from",
          "type": "address"
        },
        {
          "internalType": "address",
          "name": "to",
          "type": "address"
        },
        {
          "internalType": "uint256",
          "name": "tokenId",
          "type": "uint256"
        }
      ],
      "name": "safeTransferFrom",
      "outputs": [],
      "stateMutability": "nonpayable",
      "type": "function"
    },
    {
      "inputs": [
        {
          "internalType": "address",
          "name": "from",
          "type": "address"
        },
        {
          "internalType": "address",
          "name": "to",
          "type": "address"
        },
        {
          "internalType": "uint256",
          "name": "tokenId",
          "type": "uint256"
        },
        {
          "internalType": "bytes",
          "name": "_data",
          "type": "bytes"
        }
      ],
      "name": "safeTransferFrom",
      "outputs": [],
      "stateMutability": "nonpayable",
      "type": "function"
    },
    {
      "inputs": [
        {
          "internalType": "address",
          "name": "operator",
          "type": "address"
        },
        {
          "internalType": "bool",
          "name": "approved",
          "type": "bool"
        }
      ],
      "name": "setApprovalForAll",
      "outputs": [],
      "stateMutability": "nonpayable",
      "type": "function"
    },
    {
      "inputs": [
        {
          "internalType": "string",
          "name": "baseURI",
          "type": "string"
        }
      ],
      "name": "setBaseURI",
      "outputs": [],
      "stateMutability": "nonpayable",
      "type": "function"
    },
    {
      "inputs": [
        {
          "internalType": "bytes4",
          "name": "interfaceId",
          "type": "bytes4"
        }
      ],
      "name": "supportsInterface",
      "outputs": [
        {
          "internalType": "bool",
          "name": "",
          "type": "bool"
        }
      ],
      "stateMutability": "view",
      "type": "function"
    },
    {
      "inputs": [],
      "name": "symbol",
      "outputs": [
        {
          "internalType": "string",
          "name": "",
          "type": "string"
        }
      ],
      "stateMutability": "view",
      "type": "function"
    },
    {
      "inputs": [
        {
          "internalType": "uint256",
          "name": "index",
          "type": "uint256"
        }
      ],
      "name": "tokenByIndex",
      "outputs": [
        {
          "internalType": "uint256",
          "name": "",
          "type": "uint256"
        }
      ],
      "stateMutability": "view",
      "type": "function"
    },
    {
      "inputs": [
        {
          "internalType": "address",
          "name": "owner",
          "type": "address"
        },
        {
          "internalType": "uint256",
          "name": "index",
          "type": "uint256"
        }
      ],
      "name": "tokenOfOwnerByIndex",
      "outputs": [
        {
          "internalType": "uint256",
          "name": "",
          "type": "uint256"
        }
      ],
      "stateMutability": "view",
      "type": "function"
    },
    {
      "inputs": [
        {
          "internalType": "uint256",
          "name": "tokenId",
          "type": "uint256"
        }
      ],
      "name": "tokenURI",
      "outputs": [
        {
          "internalType": "string",
          "name": "",
          "type": "string"
        }
      ],
      "stateMutability": "view",
      "type": "function"
    },
    {
      "inputs": [],
      "name": "totalSupply",
      "outputs": [
        {
          "internalType": "uint256",
          "name": "",
          "type": "uint256"
        }
      ],
      "stateMutability": "view",
      "type": "function"
    },
    {
      "inputs": [
        {
          "internalType": "address",
          "name": "from",
          "type": "address"
        },
        {
          "internalType": "address",
          "name": "to",
          "type": "address"
        },
        {
          "internalType": "uint256",
          "name": "tokenId",
          "type": "uint256"
        }
      ],
      "name": "transferFrom",
      "outputs": [],
      "stateMutability": "nonpayable",
      "type": "function"
    },
    {
      "inputs": [
        {
          "internalType": "address",
          "name": "newOwner",
          "type": "address"
        }
      ],
      "name": "transferOwnership",
      "outputs": [],
      "stateMutability": "nonpayable",
      "type": "function"
    }
  ],
  "bytecode": "0x60806040526040518060400160405280602081526020017f68747470733a2f2f6170692e636f6f6c636174736e66742e636f6d2f6361742f815250600e90805190602001906200005192919062000217565b503480156200005f57600080fd5b506040518060400160405280600281526020017f50530000000000000000000000000000000000000000000000000000000000008152506040518060400160405280600381526020017f50537400000000000000000000000000000000000000000000000000000000008152508160009080519060200190620000e492919062000217565b508060019080519060200190620000fd92919062000217565b50505062000120620001146200014960201b60201c565b6200015160201b60201c565b6001600b819055506000600c60006101000a81548160ff0219169083151502179055506200032c565b600033905090565b6000600a60009054906101000a900473ffffffffffffffffffffffffffffffffffffffff16905081600a60006101000a81548173ffffffffffffffffffffffffffffffffffffffff021916908373ffffffffffffffffffffffffffffffffffffffff1602179055508173ffffffffffffffffffffffffffffffffffffffff168173ffffffffffffffffffffffffffffffffffffffff167f8be0079c531659141344cd1fd0a4f28419497f9722a3daafe3b4186f6b6457e060405160405180910390a35050565b8280546200022590620002c7565b90600052602060002090601f01602090048101928262000249576000855562000295565b82601f106200026457805160ff191683800117855562000295565b8280016001018555821562000295579182015b828111156200029457825182559160200191906001019062000277565b5b509050620002a49190620002a8565b5090565b5b80821115620002c3576000816000905550600101620002a9565b5090565b60006002820490506001821680620002e057607f821691505b60208210811415620002f757620002f6620002fd565b5b50919050565b7f4e487b7100000000000000000000000000000000000000000000000000000000600052602260045260246000fd5b613da4806200033c6000396000f3fe6080604052600436106101665760003560e01c80636352211e116100d1578063a22cb4651161008a578063d547cfb711610064578063d547cfb71461051b578063e985e9c514610546578063f2fde38b14610583578063f8b2cb4f146105ac57610166565b8063a22cb4651461048c578063b88d4fde146104b5578063c87b56dd146104de57610166565b80636352211e1461039b5780636402331b146103d857806370a08231146103e2578063715018a61461041f5780638da5cb5b1461043657806395d89b411461046157610166565b80632407986811610123578063240798681461028d5780632f745c59146102a457806342842e0e146102e15780634f6ccce71461030a57806355f804b3146103475780635c975abb1461037057610166565b806301ffc9a71461016b57806306fdde03146101a8578063081812fc146101d3578063095ea7b31461021057806318160ddd1461023957806323b872dd14610264575b600080fd5b34801561017757600080fd5b50610192600480360381019061018d9190612ab0565b6105e9565b60405161019f9190613024565b60405180910390f35b3480156101b457600080fd5b506101bd610663565b6040516101ca919061303f565b60405180910390f35b3480156101df57600080fd5b506101fa60048036038101906101f59190612b43565b6106f5565b6040516102079190612fbd565b60405180910390f35b34801561021c57600080fd5b5061023760048036038101906102329190612a74565b61077a565b005b34801561024557600080fd5b5061024e610892565b60405161025b9190613341565b60405180910390f35b34801561027057600080fd5b5061028b6004803603810190610286919061296e565b61089f565b005b34801561029957600080fd5b506102a26108ff565b005b3480156102b057600080fd5b506102cb60048036038101906102c69190612a74565b6109c5565b6040516102d89190613341565b60405180910390f35b3480156102ed57600080fd5b506103086004803603810190610303919061296e565b610a6a565b005b34801561031657600080fd5b50610331600480360381019061032c9190612b43565b610a8a565b60405161033e9190613341565b60405180910390f35b34801561035357600080fd5b5061036e60048036038101906103699190612b02565b610b21565b005b34801561037c57600080fd5b50610385610bb7565b6040516103929190613024565b60405180910390f35b3480156103a757600080fd5b506103c260048036038101906103bd9190612b43565b610bce565b6040516103cf9190612fbd565b60405180910390f35b6103e0610c80565b005b3480156103ee57600080fd5b5061040960048036038101906104049190612909565b610e84565b6040516104169190613341565b60405180910390f35b34801561042b57600080fd5b50610434610f3c565b005b34801561044257600080fd5b5061044b610fc4565b6040516104589190612fbd565b60405180910390f35b34801561046d57600080fd5b50610476610fee565b604051610483919061303f565b60405180910390f35b34801561049857600080fd5b506104b360048036038101906104ae9190612a38565b611080565b005b3480156104c157600080fd5b506104dc60048036038101906104d791906129bd565b611096565b005b3480156104ea57600080fd5b5061050560048036038101906105009190612b43565b6110f8565b604051610512919061303f565b60405180910390f35b34801561052757600080fd5b5061053061119f565b60405161053d919061303f565b60405180910390f35b34801561055257600080fd5b5061056d60048036038101906105689190612932565b61122d565b60405161057a9190613024565b60405180910390f35b34801561058f57600080fd5b506105aa60048036038101906105a59190612909565b6112c1565b005b3480156105b857600080fd5b506105d360048036038101906105ce9190612909565b6113b9565b6040516105e09190613341565b60405180910390f35b60007f780e9d63000000000000000000000000000000000000000000000000000000007bffffffffffffffffffffffffffffffffffffffffffffffffffffffff1916827bffffffffffffffffffffffffffffffffffffffffffffffffffffffff1916148061065c575061065b826113da565b5b9050919050565b606060008054610672906135a2565b80601f016020809104026020016040519081016040528092919081815260200182805461069e906135a2565b80156106eb5780601f106106c0576101008083540402835291602001916106eb565b820191906000526020600020905b8154815290600101906020018083116106ce57829003601f168201915b5050505050905090565b6000610700826114bc565b61073f576040517f08c379a000000000000000000000000000000000000000000000000000000000815260040161073690613221565b60405180910390fd5b6004600083815260200190815260200160002060009054906101000a900473ffffffffffffffffffffffffffffffffffffffff169050919050565b600061078582610bce565b90508073ffffffffffffffffffffffffffffffffffffffff168373ffffffffffffffffffffffffffffffffffffffff1614156107f6576040517f08c379a00000000000000000000000000000000000000000000000000000000081526004016107ed90613281565b60405180910390fd5b8073ffffffffffffffffffffffffffffffffffffffff16610815611528565b73ffffffffffffffffffffffffffffffffffffffff16148061084457506108438161083e611528565b61122d565b5b610883576040517f08c379a000000000000000000000000000000000000000000000000000000000815260040161087a906131a1565b60405180910390fd5b61088d8383611530565b505050565b6000600880549050905090565b6108b06108aa611528565b826115e9565b6108ef576040517f08c379a00000000000000000000000000000000000000000000000000000000081526004016108e6906132a1565b60405180910390fd5b6108fa8383836116c7565b505050565b610907611528565b73ffffffffffffffffffffffffffffffffffffffff16610925610fc4565b73ffffffffffffffffffffffffffffffffffffffff161461097b576040517f08c379a000000000000000000000000000000000000000000000000000000000815260040161097290613241565b60405180910390fd5b60005b60058110156109c257610991600d61192e565b600061099d600d611944565b90506109b06109aa610fc4565b82611952565b50806109bb90613605565b905061097e565b50565b60006109d083610e84565b8210610a11576040517f08c379a0000000000000000000000000000000000000000000000000000000008152600401610a0890613061565b60405180910390fd5b600660008473ffffffffffffffffffffffffffffffffffffffff1673ffffffffffffffffffffffffffffffffffffffff168152602001908152602001600020600083815260200190815260200160002054905092915050565b610a8583838360405180602001604052806000815250611096565b505050565b6000610a94610892565b8210610ad5576040517f08c379a0000000000000000000000000000000000000000000000000000000008152600401610acc906132e1565b60405180910390fd5b60088281548110610b0f577f4e487b7100000000000000000000000000000000000000000000000000000000600052603260045260246000fd5b90600052602060002001549050919050565b610b29611528565b73ffffffffffffffffffffffffffffffffffffffff16610b47610fc4565b73ffffffffffffffffffffffffffffffffffffffff1614610b9d576040517f08c379a0000000000000000000000000000000000000000000000000000000008152600401610b9490613241565b60405180910390fd5b80600e9080519060200190610bb392919061272d565b5050565b6000600c60009054906101000a900460ff16905090565b6000806002600084815260200190815260200160002060009054906101000a900473ffffffffffffffffffffffffffffffffffffffff169050600073ffffffffffffffffffffffffffffffffffffffff168173ffffffffffffffffffffffffffffffffffffffff161415610c77576040517f08c379a0000000000000000000000000000000000000000000000000000000008152600401610c6e906131e1565b60405180910390fd5b80915050919050565b6002600b541415610cc6576040517f08c379a0000000000000000000000000000000000000000000000000000000008152600401610cbd90613321565b60405180910390fd5b6002600b81905550610cd6610bb7565b15610d16576040517f08c379a0000000000000000000000000000000000000000000000000000000008152600401610d0d90613181565b60405180910390fd5b34610d20336113b9565b11610d60576040517f08c379a0000000000000000000000000000000000000000000000000000000008152600401610d5790613301565b60405180910390fd5b6000610d6a610fc4565b73ffffffffffffffffffffffffffffffffffffffff1634604051610d8d90612fa8565b60006040518083038185875af1925050503d8060008114610dca576040519150601f19603f3d011682016040523d82523d6000602084013e610dcf565b606091505b5050905080610e13576040517f08c379a0000000000000000000000000000000000000000000000000000000008152600401610e0a906132c1565b60405180910390fd5b610e1d600d61192e565b6000610e29600d611944565b905060338110610e6e576040517f08c379a0000000000000000000000000000000000000000000000000000000008152600401610e6590613161565b60405180910390fd5b610e783382611952565b50506001600b81905550565b60008073ffffffffffffffffffffffffffffffffffffffff168273ffffffffffffffffffffffffffffffffffffffff161415610ef5576040517f08c379a0000000000000000000000000000000000000000000000000000000008152600401610eec906131c1565b60405180910390fd5b600360008373ffffffffffffffffffffffffffffffffffffffff1673ffffffffffffffffffffffffffffffffffffffff168152602001908152602001600020549050919050565b610f44611528565b73ffffffffffffffffffffffffffffffffffffffff16610f62610fc4565b73ffffffffffffffffffffffffffffffffffffffff1614610fb8576040517f08c379a0000000000000000000000000000000000000000000000000000000008152600401610faf90613241565b60405180910390fd5b610fc26000611970565b565b6000600a60009054906101000a900473ffffffffffffffffffffffffffffffffffffffff16905090565b606060018054610ffd906135a2565b80601f0160208091040260200160405190810160405280929190818152602001828054611029906135a2565b80156110765780601f1061104b57610100808354040283529160200191611076565b820191906000526020600020905b81548152906001019060200180831161105957829003601f168201915b5050505050905090565b61109261108b611528565b8383611a36565b5050565b6110a76110a1611528565b836115e9565b6110e6576040517f08c379a00000000000000000000000000000000000000000000000000000000081526004016110dd906132a1565b60405180910390fd5b6110f284848484611ba3565b50505050565b6060611103826114bc565b611142576040517f08c379a000000000000000000000000000000000000000000000000000000000815260040161113990613261565b60405180910390fd5b600061114c611bff565b9050600081511161116c5760405180602001604052806000815250611197565b8061117684611c91565b604051602001611187929190612f84565b6040516020818303038152906040525b915050919050565b600e80546111ac906135a2565b80601f01602080910402602001604051908101604052809291908181526020018280546111d8906135a2565b80156112255780601f106111fa57610100808354040283529160200191611225565b820191906000526020600020905b81548152906001019060200180831161120857829003601f168201915b505050505081565b6000600560008473ffffffffffffffffffffffffffffffffffffffff1673ffffffffffffffffffffffffffffffffffffffff16815260200190815260200160002060008373ffffffffffffffffffffffffffffffffffffffff1673ffffffffffffffffffffffffffffffffffffffff16815260200190815260200160002060009054906101000a900460ff16905092915050565b6112c9611528565b73ffffffffffffffffffffffffffffffffffffffff166112e7610fc4565b73ffffffffffffffffffffffffffffffffffffffff161461133d576040517f08c379a000000000000000000000000000000000000000000000000000000000815260040161133490613241565b60405180910390fd5b600073ffffffffffffffffffffffffffffffffffffffff168173ffffffffffffffffffffffffffffffffffffffff1614156113ad576040517f08c379a00000000000000000000000000000000000000000000000000000000081526004016113a4906130a1565b60405180910390fd5b6113b681611970565b50565b60008173ffffffffffffffffffffffffffffffffffffffff16319050919050565b60007f80ac58cd000000000000000000000000000000000000000000000000000000007bffffffffffffffffffffffffffffffffffffffffffffffffffffffff1916827bffffffffffffffffffffffffffffffffffffffffffffffffffffffff191614806114a557507f5b5e139f000000000000000000000000000000000000000000000000000000007bffffffffffffffffffffffffffffffffffffffffffffffffffffffff1916827bffffffffffffffffffffffffffffffffffffffffffffffffffffffff1916145b806114b557506114b482611e3e565b5b9050919050565b60008073ffffffffffffffffffffffffffffffffffffffff166002600084815260200190815260200160002060009054906101000a900473ffffffffffffffffffffffffffffffffffffffff1673ffffffffffffffffffffffffffffffffffffffff1614159050919050565b600033905090565b816004600083815260200190815260200160002060006101000a81548173ffffffffffffffffffffffffffffffffffffffff021916908373ffffffffffffffffffffffffffffffffffffffff160217905550808273ffffffffffffffffffffffffffffffffffffffff166115a383610bce565b73ffffffffffffffffffffffffffffffffffffffff167f8c5be1e5ebec7d5bd14f71427d1e84f3dd0314c0f7b2291e5b200ac8c7c3b92560405160405180910390a45050565b60006115f4826114bc565b611633576040517f08c379a000000000000000000000000000000000000000000000000000000000815260040161162a90613141565b60405180910390fd5b600061163e83610bce565b90508073ffffffffffffffffffffffffffffffffffffffff168473ffffffffffffffffffffffffffffffffffffffff161480611680575061167f818561122d565b5b806116be57508373ffffffffffffffffffffffffffffffffffffffff166116a6846106f5565b73ffffffffffffffffffffffffffffffffffffffff16145b91505092915050565b8273ffffffffffffffffffffffffffffffffffffffff166116e782610bce565b73ffffffffffffffffffffffffffffffffffffffff161461173d576040517f08c379a0000000000000000000000000000000000000000000000000000000008152600401611734906130c1565b60405180910390fd5b600073ffffffffffffffffffffffffffffffffffffffff168273ffffffffffffffffffffffffffffffffffffffff1614156117ad576040517f08c379a00000000000000000000000000000000000000000000000000000000081526004016117a490613101565b60405180910390fd5b6117b8838383611ea8565b6117c3600082611530565b6001600360008573ffffffffffffffffffffffffffffffffffffffff1673ffffffffffffffffffffffffffffffffffffffff168152602001908152602001600020600082825461181391906134b8565b925050819055506001600360008473ffffffffffffffffffffffffffffffffffffffff1673ffffffffffffffffffffffffffffffffffffffff168152602001908152602001600020600082825461186a9190613431565b92505081905550816002600083815260200190815260200160002060006101000a81548173ffffffffffffffffffffffffffffffffffffffff021916908373ffffffffffffffffffffffffffffffffffffffff160217905550808273ffffffffffffffffffffffffffffffffffffffff168473ffffffffffffffffffffffffffffffffffffffff167fddf252ad1be2c89b69c2b068fc378daa952ba7f163c4a11628f55a4df523b3ef60405160405180910390a4611929838383611fbc565b505050565b6001816000016000828254019250508190555050565b600081600001549050919050565b61196c828260405180602001604052806000815250611fc1565b5050565b6000600a60009054906101000a900473ffffffffffffffffffffffffffffffffffffffff16905081600a60006101000a81548173ffffffffffffffffffffffffffffffffffffffff021916908373ffffffffffffffffffffffffffffffffffffffff1602179055508173ffffffffffffffffffffffffffffffffffffffff168173ffffffffffffffffffffffffffffffffffffffff167f8be0079c531659141344cd1fd0a4f28419497f9722a3daafe3b4186f6b6457e060405160405180910390a35050565b8173ffffffffffffffffffffffffffffffffffffffff168373ffffffffffffffffffffffffffffffffffffffff161415611aa5576040517f08c379a0000000000000000000000000000000000000000000000000000000008152600401611a9c90613121565b60405180910390fd5b80600560008573ffffffffffffffffffffffffffffffffffffffff1673ffffffffffffffffffffffffffffffffffffffff16815260200190815260200160002060008473ffffffffffffffffffffffffffffffffffffffff1673ffffffffffffffffffffffffffffffffffffffff16815260200190815260200160002060006101000a81548160ff0219169083151502179055508173ffffffffffffffffffffffffffffffffffffffff168373ffffffffffffffffffffffffffffffffffffffff167f17307eab39ab6107e8899845ad3d59bd9653f200f220920489ca2b5937696c3183604051611b969190613024565b60405180910390a3505050565b611bae8484846116c7565b611bba8484848461201c565b611bf9576040517f08c379a0000000000000000000000000000000000000000000000000000000008152600401611bf090613081565b60405180910390fd5b50505050565b6060600e8054611c0e906135a2565b80601f0160208091040260200160405190810160405280929190818152602001828054611c3a906135a2565b8015611c875780601f10611c5c57610100808354040283529160200191611c87565b820191906000526020600020905b815481529060010190602001808311611c6a57829003601f168201915b5050505050905090565b60606000821415611cd9576040518060400160405280600181526020017f30000000000000000000000000000000000000000000000000000000000000008152509050611e39565b600082905060005b60008214611d0b578080611cf490613605565b915050600a82611d049190613487565b9150611ce1565b60008167ffffffffffffffff811115611d4d577f4e487b7100000000000000000000000000000000000000000000000000000000600052604160045260246000fd5b6040519080825280601f01601f191660200182016040528015611d7f5781602001600182028036833780820191505090505b5090505b60008514611e3257600182611d9891906134b8565b9150600a85611da7919061364e565b6030611db39190613431565b60f81b818381518110611def577f4e487b7100000000000000000000000000000000000000000000000000000000600052603260045260246000fd5b60200101907effffffffffffffffffffffffffffffffffffffffffffffffffffffffffffff1916908160001a905350600a85611e2b9190613487565b9450611d83565b8093505050505b919050565b60007f01ffc9a7000000000000000000000000000000000000000000000000000000007bffffffffffffffffffffffffffffffffffffffffffffffffffffffff1916827bffffffffffffffffffffffffffffffffffffffffffffffffffffffff1916149050919050565b611eb38383836121b3565b600073ffffffffffffffffffffffffffffffffffffffff168373ffffffffffffffffffffffffffffffffffffffff161415611ef657611ef1816121b8565b611f35565b8173ffffffffffffffffffffffffffffffffffffffff168373ffffffffffffffffffffffffffffffffffffffff1614611f3457611f338382612201565b5b5b600073ffffffffffffffffffffffffffffffffffffffff168273ffffffffffffffffffffffffffffffffffffffff161415611f7857611f738161236e565b611fb7565b8273ffffffffffffffffffffffffffffffffffffffff168273ffffffffffffffffffffffffffffffffffffffff1614611fb657611fb582826124b1565b5b5b505050565b505050565b611fcb8383612530565b611fd8600084848461201c565b612017576040517f08c379a000000000000000000000000000000000000000000000000000000000815260040161200e90613081565b60405180910390fd5b505050565b600061203d8473ffffffffffffffffffffffffffffffffffffffff1661270a565b156121a6578373ffffffffffffffffffffffffffffffffffffffff1663150b7a02612066611528565b8786866040518563ffffffff1660e01b81526004016120889493929190612fd8565b602060405180830381600087803b1580156120a257600080fd5b505af19250505080156120d357506040513d601f19601f820116820180604052508101906120d09190612ad9565b60015b612156573d8060008114612103576040519150601f19603f3d011682016040523d82523d6000602084013e612108565b606091505b5060008151141561214e576040517f08c379a000000000000000000000000000000000000000000000000000000000815260040161214590613081565b60405180910390fd5b805181602001fd5b63150b7a0260e01b7bffffffffffffffffffffffffffffffffffffffffffffffffffffffff1916817bffffffffffffffffffffffffffffffffffffffffffffffffffffffff1916149150506121ab565b600190505b949350505050565b505050565b6008805490506009600083815260200190815260200160002081905550600881908060018154018082558091505060019003906000526020600020016000909190919091505550565b6000600161220e84610e84565b61221891906134b8565b90506000600760008481526020019081526020016000205490508181146122fd576000600660008673ffffffffffffffffffffffffffffffffffffffff1673ffffffffffffffffffffffffffffffffffffffff168152602001908152602001600020600084815260200190815260200160002054905080600660008773ffffffffffffffffffffffffffffffffffffffff1673ffffffffffffffffffffffffffffffffffffffff168152602001908152602001600020600084815260200190815260200160002081905550816007600083815260200190815260200160002081905550505b6007600084815260200190815260200160002060009055600660008573ffffffffffffffffffffffffffffffffffffffff1673ffffffffffffffffffffffffffffffffffffffff16815260200190815260200160002060008381526020019081526020016000206000905550505050565b6000600160088054905061238291906134b8565b90506000600960008481526020019081526020016000205490506000600883815481106123d8577f4e487b7100000000000000000000000000000000000000000000000000000000600052603260045260246000fd5b906000526020600020015490508060088381548110612420577f4e487b7100000000000000000000000000000000000000000000000000000000600052603260045260246000fd5b906000526020600020018190555081600960008381526020019081526020016000208190555060096000858152602001908152602001600020600090556008805480612495577f4e487b7100000000000000000000000000000000000000000000000000000000600052603160045260246000fd5b6001900381819060005260206000200160009055905550505050565b60006124bc83610e84565b905081600660008573ffffffffffffffffffffffffffffffffffffffff1673ffffffffffffffffffffffffffffffffffffffff168152602001908152602001600020600083815260200190815260200160002081905550806007600084815260200190815260200160002081905550505050565b600073ffffffffffffffffffffffffffffffffffffffff168273ffffffffffffffffffffffffffffffffffffffff1614156125a0576040517f08c379a000000000000000000000000000000000000000000000000000000000815260040161259790613201565b60405180910390fd5b6125a9816114bc565b156125e9576040517f08c379a00000000000000000000000000000000000000000000000000000000081526004016125e0906130e1565b60405180910390fd5b6125f560008383611ea8565b6001600360008473ffffffffffffffffffffffffffffffffffffffff1673ffffffffffffffffffffffffffffffffffffffff16815260200190815260200160002060008282546126459190613431565b92505081905550816002600083815260200190815260200160002060006101000a81548173ffffffffffffffffffffffffffffffffffffffff021916908373ffffffffffffffffffffffffffffffffffffffff160217905550808273ffffffffffffffffffffffffffffffffffffffff16600073ffffffffffffffffffffffffffffffffffffffff167fddf252ad1be2c89b69c2b068fc378daa952ba7f163c4a11628f55a4df523b3ef60405160405180910390a461270660008383611fbc565b5050565b6000808273ffffffffffffffffffffffffffffffffffffffff163b119050919050565b828054612739906135a2565b90600052602060002090601f01602090048101928261275b57600085556127a2565b82601f1061277457805160ff19168380011785556127a2565b828001600101855582156127a2579182015b828111156127a1578251825591602001919060010190612786565b5b5090506127af91906127b3565b5090565b5b808211156127cc5760008160009055506001016127b4565b5090565b60006127e36127de84613381565b61335c565b9050828152602081018484840111156127fb57600080fd5b612806848285613560565b509392505050565b600061282161281c846133b2565b61335c565b90508281526020810184848401111561283957600080fd5b612844848285613560565b509392505050565b60008135905061285b81613d12565b92915050565b60008135905061287081613d29565b92915050565b60008135905061288581613d40565b92915050565b60008151905061289a81613d40565b92915050565b600082601f8301126128b157600080fd5b81356128c18482602086016127d0565b91505092915050565b600082601f8301126128db57600080fd5b81356128eb84826020860161280e565b91505092915050565b60008135905061290381613d57565b92915050565b60006020828403121561291b57600080fd5b60006129298482850161284c565b91505092915050565b6000806040838503121561294557600080fd5b60006129538582860161284c565b92505060206129648582860161284c565b9150509250929050565b60008060006060848603121561298357600080fd5b60006129918682870161284c565b93505060206129a28682870161284c565b92505060406129b3868287016128f4565b9150509250925092565b600080600080608085870312156129d357600080fd5b60006129e18782880161284c565b94505060206129f28782880161284c565b9350506040612a03878288016128f4565b925050606085013567ffffffffffffffff811115612a2057600080fd5b612a2c878288016128a0565b91505092959194509250565b60008060408385031215612a4b57600080fd5b6000612a598582860161284c565b9250506020612a6a85828601612861565b9150509250929050565b60008060408385031215612a8757600080fd5b6000612a958582860161284c565b9250506020612aa6858286016128f4565b9150509250929050565b600060208284031215612ac257600080fd5b6000612ad084828501612876565b91505092915050565b600060208284031215612aeb57600080fd5b6000612af98482850161288b565b91505092915050565b600060208284031215612b1457600080fd5b600082013567ffffffffffffffff811115612b2e57600080fd5b612b3a848285016128ca565b91505092915050565b600060208284031215612b5557600080fd5b6000612b63848285016128f4565b91505092915050565b612b75816134ec565b82525050565b612b84816134fe565b82525050565b6000612b95826133e3565b612b9f81856133f9565b9350612baf81856020860161356f565b612bb88161373b565b840191505092915050565b6000612bce826133ee565b612bd88185613415565b9350612be881856020860161356f565b612bf18161373b565b840191505092915050565b6000612c07826133ee565b612c118185613426565b9350612c2181856020860161356f565b80840191505092915050565b6000612c3a602b83613415565b9150612c458261374c565b604082019050919050565b6000612c5d603283613415565b9150612c688261379b565b604082019050919050565b6000612c80602683613415565b9150612c8b826137ea565b604082019050919050565b6000612ca3602583613415565b9150612cae82613839565b604082019050919050565b6000612cc6601c83613415565b9150612cd182613888565b602082019050919050565b6000612ce9602483613415565b9150612cf4826138b1565b604082019050919050565b6000612d0c601983613415565b9150612d1782613900565b602082019050919050565b6000612d2f602c83613415565b9150612d3a82613929565b604082019050919050565b6000612d52600d83613415565b9150612d5d82613978565b602082019050919050565b6000612d75601083613415565b9150612d80826139a1565b602082019050919050565b6000612d98603883613415565b9150612da3826139ca565b604082019050919050565b6000612dbb602a83613415565b9150612dc682613a19565b604082019050919050565b6000612dde602983613415565b9150612de982613a68565b604082019050919050565b6000612e01602083613415565b9150612e0c82613ab7565b602082019050919050565b6000612e24602c83613415565b9150612e2f82613ae0565b604082019050919050565b6000612e47602083613415565b9150612e5282613b2f565b602082019050919050565b6000612e6a602f83613415565b9150612e7582613b58565b604082019050919050565b6000612e8d602183613415565b9150612e9882613ba7565b604082019050919050565b6000612eb060008361340a565b9150612ebb82613bf6565b600082019050919050565b6000612ed3603183613415565b9150612ede82613bf9565b604082019050919050565b6000612ef6601583613415565b9150612f0182613c48565b602082019050919050565b6000612f19602c83613415565b9150612f2482613c71565b604082019050919050565b6000612f3c600583613415565b9150612f4782613cc0565b602082019050919050565b6000612f5f601f83613415565b9150612f6a82613ce9565b602082019050919050565b612f7e81613556565b82525050565b6000612f908285612bfc565b9150612f9c8284612bfc565b91508190509392505050565b6000612fb382612ea3565b9150819050919050565b6000602082019050612fd26000830184612b6c565b92915050565b6000608082019050612fed6000830187612b6c565b612ffa6020830186612b6c565b6130076040830185612f75565b81810360608301526130198184612b8a565b905095945050505050565b60006020820190506130396000830184612b7b565b92915050565b600060208201905081810360008301526130598184612bc3565b905092915050565b6000602082019050818103600083015261307a81612c2d565b9050919050565b6000602082019050818103600083015261309a81612c50565b9050919050565b600060208201905081810360008301526130ba81612c73565b9050919050565b600060208201905081810360008301526130da81612c96565b9050919050565b600060208201905081810360008301526130fa81612cb9565b9050919050565b6000602082019050818103600083015261311a81612cdc565b9050919050565b6000602082019050818103600083015261313a81612cff565b9050919050565b6000602082019050818103600083015261315a81612d22565b9050919050565b6000602082019050818103600083015261317a81612d45565b9050919050565b6000602082019050818103600083015261319a81612d68565b9050919050565b600060208201905081810360008301526131ba81612d8b565b9050919050565b600060208201905081810360008301526131da81612dae565b9050919050565b600060208201905081810360008301526131fa81612dd1565b9050919050565b6000602082019050818103600083015261321a81612df4565b9050919050565b6000602082019050818103600083015261323a81612e17565b9050919050565b6000602082019050818103600083015261325a81612e3a565b9050919050565b6000602082019050818103600083015261327a81612e5d565b9050919050565b6000602082019050818103600083015261329a81612e80565b9050919050565b600060208201905081810360008301526132ba81612ec6565b9050919050565b600060208201905081810360008301526132da81612ee9565b9050919050565b600060208201905081810360008301526132fa81612f0c565b9050919050565b6000602082019050818103600083015261331a81612f2f565b9050919050565b6000602082019050818103600083015261333a81612f52565b9050919050565b60006020820190506133566000830184612f75565b92915050565b6000613366613377565b905061337282826135d4565b919050565b6000604051905090565b600067ffffffffffffffff82111561339c5761339b61370c565b5b6133a58261373b565b9050602081019050919050565b600067ffffffffffffffff8211156133cd576133cc61370c565b5b6133d68261373b565b9050602081019050919050565b600081519050919050565b600081519050919050565b600082825260208201905092915050565b600081905092915050565b600082825260208201905092915050565b600081905092915050565b600061343c82613556565b915061344783613556565b9250827fffffffffffffffffffffffffffffffffffffffffffffffffffffffffffffffff0382111561347c5761347b61367f565b5b828201905092915050565b600061349282613556565b915061349d83613556565b9250826134ad576134ac6136ae565b5b828204905092915050565b60006134c382613556565b91506134ce83613556565b9250828210156134e1576134e061367f565b5b828203905092915050565b60006134f782613536565b9050919050565b60008115159050919050565b60007fffffffff0000000000000000000000000000000000000000000000000000000082169050919050565b600073ffffffffffffffffffffffffffffffffffffffff82169050919050565b6000819050919050565b82818337600083830152505050565b60005b8381101561358d578082015181840152602081019050613572565b8381111561359c576000848401525b50505050565b600060028204905060018216806135ba57607f821691505b602082108114156135ce576135cd6136dd565b5b50919050565b6135dd8261373b565b810181811067ffffffffffffffff821117156135fc576135fb61370c565b5b80604052505050565b600061361082613556565b91507fffffffffffffffffffffffffffffffffffffffffffffffffffffffffffffffff8214156136435761364261367f565b5b600182019050919050565b600061365982613556565b915061366483613556565b925082613674576136736136ae565b5b828206905092915050565b7f4e487b7100000000000000000000000000000000000000000000000000000000600052601160045260246000fd5b7f4e487b7100000000000000000000000000000000000000000000000000000000600052601260045260246000fd5b7f4e487b7100000000000000000000000000000000000000000000000000000000600052602260045260246000fd5b7f4e487b7100000000000000000000000000000000000000000000000000000000600052604160045260246000fd5b6000601f19601f8301169050919050565b7f455243373231456e756d657261626c653a206f776e657220696e646578206f7560008201527f74206f6620626f756e6473000000000000000000000000000000000000000000602082015250565b7f4552433732313a207472616e7366657220746f206e6f6e20455243373231526560008201527f63656976657220696d706c656d656e7465720000000000000000000000000000602082015250565b7f4f776e61626c653a206e6577206f776e657220697320746865207a65726f206160008201527f6464726573730000000000000000000000000000000000000000000000000000602082015250565b7f4552433732313a207472616e736665722066726f6d20696e636f72726563742060008201527f6f776e6572000000000000000000000000000000000000000000000000000000602082015250565b7f4552433732313a20746f6b656e20616c7265616479206d696e74656400000000600082015250565b7f4552433732313a207472616e7366657220746f20746865207a65726f2061646460008201527f7265737300000000000000000000000000000000000000000000000000000000602082015250565b7f4552433732313a20617070726f766520746f2063616c6c657200000000000000600082015250565b7f4552433732313a206f70657261746f7220717565727920666f72206e6f6e657860008201527f697374656e7420746f6b656e0000000000000000000000000000000000000000602082015250565b7f4c696d6974205265616368656400000000000000000000000000000000000000600082015250565b7f5061757361626c653a2070617573656400000000000000000000000000000000600082015250565b7f4552433732313a20617070726f76652063616c6c6572206973206e6f74206f7760008201527f6e6572206e6f7220617070726f76656420666f7220616c6c0000000000000000602082015250565b7f4552433732313a2062616c616e636520717565727920666f7220746865207a6560008201527f726f206164647265737300000000000000000000000000000000000000000000602082015250565b7f4552433732313a206f776e657220717565727920666f72206e6f6e657869737460008201527f656e7420746f6b656e0000000000000000000000000000000000000000000000602082015250565b7f4552433732313a206d696e7420746f20746865207a65726f2061646472657373600082015250565b7f4552433732313a20617070726f76656420717565727920666f72206e6f6e657860008201527f697374656e7420746f6b656e0000000000000000000000000000000000000000602082015250565b7f4f776e61626c653a2063616c6c6572206973206e6f7420746865206f776e6572600082015250565b7f4552433732314d657461646174613a2055524920717565727920666f72206e6f60008201527f6e6578697374656e7420746f6b656e0000000000000000000000000000000000602082015250565b7f4552433732313a20617070726f76616c20746f2063757272656e74206f776e6560008201527f7200000000000000000000000000000000000000000000000000000000000000602082015250565b50565b7f4552433732313a207472616e736665722063616c6c6572206973206e6f74206f60008201527f776e6572206e6f7220617070726f766564000000000000000000000000000000602082015250565b7f4661696c656420746f2053656e64204574686572730000000000000000000000600082015250565b7f455243373231456e756d657261626c653a20676c6f62616c20696e646578206f60008201527f7574206f6620626f756e64730000000000000000000000000000000000000000602082015250565b7f4572726f72000000000000000000000000000000000000000000000000000000600082015250565b7f5265656e7472616e637947756172643a207265656e7472616e742063616c6c00600082015250565b613d1b816134ec565b8114613d2657600080fd5b50565b613d32816134fe565b8114613d3d57600080fd5b50565b613d498161350a565b8114613d5457600080fd5b50565b613d6081613556565b8114613d6b57600080fd5b5056fea2646970667358221220029e6200523d988d5196282638786aeca96749a431575374630ebaddccb0c33264736f6c63430008010033",
  "linkReferences": {},
  "deployedLinkReferences": {}
}