{
  "_format": "hh-sol-artifact-1",
  "contractName": "PS",
  "sourceName": "contracts/PS.sol",
  "abi": [
    {
      "inputs": [],
      "stateMutability": "nonpayable",
      "type": "constructor"
    },
    {
      "anonymous": false,
      "inputs": [
        {
          "indexed": true,
          "internalType": "address",
          "name": "owner",
          "type": "address"
        },
        {
          "indexed": true,
          "internalType": "address",
          "name": "approved",
          "type": "address"
        },
        {
          "indexed": true,
          "internalType": "uint256",
          "name": "tokenId",
          "type": "uint256"
        }
      ],
      "name": "Approval",
      "type": "event"
    },
    {
      "anonymous": false,
      "inputs": [
        {
          "indexed": true,
          "internalType": "address",
          "name": "owner",
          "type": "address"
        },
        {
          "indexed": true,
          "internalType": "address",
          "name": "operator",
          "type": "address"
        },
        {
          "indexed": false,
          "internalType": "bool",
          "name": "approved",
          "type": "bool"
        }
      ],
      "name": "ApprovalForAll",
      "type": "event"
    },
    {
      "anonymous": false,
      "inputs": [
        {
          "indexed": true,
          "internalType": "address",
          "name": "previousOwner",
          "type": "address"
        },
        {
          "indexed": true,
          "internalType": "address",
          "name": "newOwner",
          "type": "address"
        }
      ],
      "name": "OwnershipTransferred",
      "type": "event"
    },
    {
      "anonymous": false,
      "inputs": [
        {
          "indexed": false,
          "internalType": "address",
          "name": "account",
          "type": "address"
        }
      ],
      "name": "Paused",
      "type": "event"
    },
    {
      "anonymous": false,
      "inputs": [
        {
          "indexed": true,
          "internalType": "address",
          "name": "from",
          "type": "address"
        },
        {
          "indexed": true,
          "internalType": "address",
          "name": "to",
          "type": "address"
        },
        {
          "indexed": true,
          "internalType": "uint256",
          "name": "tokenId",
          "type": "uint256"
        }
      ],
      "name": "Transfer",
      "type": "event"
    },
    {
      "anonymous": false,
      "inputs": [
        {
          "indexed": false,
          "internalType": "address",
          "name": "account",
          "type": "address"
        }
      ],
      "name": "Unpaused",
      "type": "event"
    },
    {
      "inputs": [],
      "name": "_baseTokenURI",
      "outputs": [
        {
          "internalType": "string",
          "name": "",
          "type": "string"
        }
      ],
      "stateMutability": "view",
      "type": "function"
    },
    {
      "inputs": [
        {
          "internalType": "address",
          "name": "to",
          "type": "address"
        },
        {
          "internalType": "uint256",
          "name": "tokenId",
          "type": "uint256"
        }
      ],
      "name": "approve",
      "outputs": [],
      "stateMutability": "nonpayable",
      "type": "function"
    },
    {
      "inputs": [
        {
          "internalType": "address",
          "name": "owner",
          "type": "address"
        }
      ],
      "name": "balanceOf",
      "outputs": [
        {
          "internalType": "uint256",
          "name": "",
          "type": "uint256"
        }
      ],
      "stateMutability": "view",
      "type": "function"
    },
    {
      "inputs": [
        {
          "internalType": "uint256",
          "name": "tokenId",
          "type": "uint256"
        }
      ],
      "name": "getApproved",
      "outputs": [
        {
          "internalType": "address",
          "name": "",
          "type": "address"
        }
      ],
      "stateMutability": "view",
      "type": "function"
    },
    {
      "inputs": [
        {
          "internalType": "address",
          "name": "owner",
          "type": "address"
        },
        {
          "internalType": "address",
          "name": "operator",
          "type": "address"
        }
      ],
      "name": "isApprovedForAll",
      "outputs": [
        {
          "internalType": "bool",
          "name": "",
          "type": "bool"
        }
      ],
      "stateMutability": "view",
      "type": "function"
    },
    {
      "inputs": [
        {
          "internalType": "address",
          "name": "recipient",
          "type": "address"
        }
      ],
      "name": "mintNFTForUser",
      "outputs": [
        {
          "internalType": "uint256",
          "name": "",
          "type": "uint256"
        }
      ],
      "stateMutability": "payable",
      "type": "function"
    },
    {
      "inputs": [],
      "name": "name",
      "outputs": [
        {
          "internalType": "string",
          "name": "",
          "type": "string"
        }
      ],
      "stateMutability": "view",
      "type": "function"
    },
    {
      "inputs": [],
      "name": "owner",
      "outputs": [
        {
          "internalType": "address",
          "name": "",
          "type": "address"
        }
      ],
      "stateMutability": "view",
      "type": "function"
    },
    {
      "inputs": [
        {
          "internalType": "uint256",
          "name": "tokenId",
          "type": "uint256"
        }
      ],
      "name": "ownerOf",
      "outputs": [
        {
          "internalType": "address",
          "name": "",
          "type": "address"
        }
      ],
      "stateMutability": "view",
      "type": "function"
    },
    {
      "inputs": [],
      "name": "pause",
      "outputs": [],
      "stateMutability": "nonpayable",
      "type": "function"
    },
    {
      "inputs": [],
      "name": "paused",
      "outputs": [
        {
          "internalType": "bool",
          "name": "",
          "type": "bool"
        }
      ],
      "stateMutability": "view",
      "type": "function"
    },
    {
      "inputs": [
        {
          "internalType": "address",
          "name": "recipient",
          "type": "address"
        }
      ],
      "name": "presales",
      "outputs": [],
      "stateMutability": "nonpayable",
      "type": "function"
    },
    {
      "inputs": [],
      "name": "renounceOwnership",
      "outputs": [],
      "stateMutability": "nonpayable",
      "type": "function"
    },
    {
      "inputs": [
        {
          "internalType": "address",
          "name": "from",
          "type": "address"
        },
        {
          "internalType": "address",
          "name": "to",
          "type": "address"
        },
        {
          "internalType": "uint256",
          "name": "tokenId",
          "type": "uint256"
        }
      ],
      "name": "safeTransferFrom",
      "outputs": [],
      "stateMutability": "nonpayable",
      "type": "function"
    },
    {
      "inputs": [
        {
          "internalType": "address",
          "name": "from",
          "type": "address"
        },
        {
          "internalType": "address",
          "name": "to",
          "type": "address"
        },
        {
          "internalType": "uint256",
          "name": "tokenId",
          "type": "uint256"
        },
        {
          "internalType": "bytes",
          "name": "_data",
          "type": "bytes"
        }
      ],
      "name": "safeTransferFrom",
      "outputs": [],
      "stateMutability": "nonpayable",
      "type": "function"
    },
    {
      "inputs": [],
      "name": "sendEther",
      "outputs": [],
      "stateMutability": "payable",
      "type": "function"
    },
    {
      "inputs": [
        {
          "internalType": "address",
          "name": "operator",
          "type": "address"
        },
        {
          "internalType": "bool",
          "name": "approved",
          "type": "bool"
        }
      ],
      "name": "setApprovalForAll",
      "outputs": [],
      "stateMutability": "nonpayable",
      "type": "function"
    },
    {
      "inputs": [
        {
          "internalType": "string",
          "name": "baseURI",
          "type": "string"
        }
      ],
      "name": "setBaseURI",
      "outputs": [],
      "stateMutability": "nonpayable",
      "type": "function"
    },
    {
      "inputs": [
        {
          "internalType": "bytes4",
          "name": "interfaceId",
          "type": "bytes4"
        }
      ],
      "name": "supportsInterface",
      "outputs": [
        {
          "internalType": "bool",
          "name": "",
          "type": "bool"
        }
      ],
      "stateMutability": "view",
      "type": "function"
    },
    {
      "inputs": [],
      "name": "symbol",
      "outputs": [
        {
          "internalType": "string",
          "name": "",
          "type": "string"
        }
      ],
      "stateMutability": "view",
      "type": "function"
    },
    {
      "inputs": [
        {
          "internalType": "uint256",
          "name": "index",
          "type": "uint256"
        }
      ],
      "name": "tokenByIndex",
      "outputs": [
        {
          "internalType": "uint256",
          "name": "",
          "type": "uint256"
        }
      ],
      "stateMutability": "view",
      "type": "function"
    },
    {
      "inputs": [
        {
          "internalType": "address",
          "name": "owner",
          "type": "address"
        },
        {
          "internalType": "uint256",
          "name": "index",
          "type": "uint256"
        }
      ],
      "name": "tokenOfOwnerByIndex",
      "outputs": [
        {
          "internalType": "uint256",
          "name": "",
          "type": "uint256"
        }
      ],
      "stateMutability": "view",
      "type": "function"
    },
    {
      "inputs": [
        {
          "internalType": "uint256",
          "name": "tokenId",
          "type": "uint256"
        }
      ],
      "name": "tokenURI",
      "outputs": [
        {
          "internalType": "string",
          "name": "",
          "type": "string"
        }
      ],
      "stateMutability": "view",
      "type": "function"
    },
    {
      "inputs": [],
      "name": "totalSupply",
      "outputs": [
        {
          "internalType": "uint256",
          "name": "",
          "type": "uint256"
        }
      ],
      "stateMutability": "view",
      "type": "function"
    },
    {
      "inputs": [
        {
          "internalType": "address",
          "name": "from",
          "type": "address"
        },
        {
          "internalType": "address",
          "name": "to",
          "type": "address"
        },
        {
          "internalType": "uint256",
          "name": "tokenId",
          "type": "uint256"
        }
      ],
      "name": "transferFrom",
      "outputs": [],
      "stateMutability": "nonpayable",
      "type": "function"
    },
    {
      "inputs": [
        {
          "internalType": "address",
          "name": "newOwner",
          "type": "address"
        }
      ],
      "name": "transferOwnership",
      "outputs": [],
      "stateMutability": "nonpayable",
      "type": "function"
    },
    {
      "inputs": [],
      "name": "unpause",
      "outputs": [],
      "stateMutability": "nonpayable",
      "type": "function"
    }
  ],
  "bytecode": "0x60806040526040518060400160405280602081526020017f68747470733a2f2f6170692e636f6f6c636174736e66742e636f6d2f6361742f815250600c9080519060200190620000519291906200026f565b5073b55fd66a86612976d79010c2f6b90275b241f1f8600d60006101000a81548173ffffffffffffffffffffffffffffffffffffffff021916908373ffffffffffffffffffffffffffffffffffffffff160217905550660110d9316ec000600e55348015620000bf57600080fd5b506040518060400160405280600281526020017f50530000000000000000000000000000000000000000000000000000000000008152506040518060400160405280600381526020017f50537400000000000000000000000000000000000000000000000000000000008152508160009080519060200190620001449291906200026f565b5080600190805190602001906200015d9291906200026f565b5050506200018062000174620001a160201b60201c565b620001a960201b60201c565b6000600a60146101000a81548160ff02191690831515021790555062000384565b600033905090565b6000600a60009054906101000a900473ffffffffffffffffffffffffffffffffffffffff16905081600a60006101000a81548173ffffffffffffffffffffffffffffffffffffffff021916908373ffffffffffffffffffffffffffffffffffffffff1602179055508173ffffffffffffffffffffffffffffffffffffffff168173ffffffffffffffffffffffffffffffffffffffff167f8be0079c531659141344cd1fd0a4f28419497f9722a3daafe3b4186f6b6457e060405160405180910390a35050565b8280546200027d906200031f565b90600052602060002090601f016020900481019282620002a15760008555620002ed565b82601f10620002bc57805160ff1916838001178555620002ed565b82800160010185558215620002ed579182015b82811115620002ec578251825591602001919060010190620002cf565b5b509050620002fc919062000300565b5090565b5b808211156200031b57600081600090555060010162000301565b5090565b600060028204905060018216806200033857607f821691505b602082108114156200034f576200034e62000355565b5b50919050565b7f4e487b7100000000000000000000000000000000000000000000000000000000600052602260045260246000fd5b613dfe80620003946000396000f3fe60806040526004361061019c5760003560e01c80636352211e116100ec578063a22cb4651161008a578063cfc86f7b11610064578063cfc86f7b14610598578063e985e9c5146105c3578063efcd708f14610600578063f2fde38b146106295761019c565b8063a22cb46514610509578063b88d4fde14610532578063c87b56dd1461055b5761019c565b80637d7f981d116100c65780637d7f981d1461046c5780638456cb591461049c5780638da5cb5b146104b357806395d89b41146104de5761019c565b80636352211e146103db57806370a0823114610418578063715018a6146104555761019c565b806323b872dd1161015957806342842e0e1161013357806342842e0e146103215780634f6ccce71461034a57806355f804b3146103875780635c975abb146103b05761019c565b806323b872dd146102a45780632f745c59146102cd5780633f4ba83a1461030a5761019c565b806301ffc9a7146101a157806306fdde03146101de578063081812fc14610209578063095ea7b3146102465780630e29df221461026f57806318160ddd14610279575b600080fd5b3480156101ad57600080fd5b506101c860048036038101906101c39190612c02565b610652565b6040516101d591906130f8565b60405180910390f35b3480156101ea57600080fd5b506101f36106cc565b6040516102009190613113565b60405180910390f35b34801561021557600080fd5b50610230600480360381019061022b9190612c95565b61075e565b60405161023d9190613091565b60405180910390f35b34801561025257600080fd5b5061026d60048036038101906102689190612bc6565b6107e3565b005b6102776108fb565b005b34801561028557600080fd5b5061028e61096e565b60405161029b91906133d5565b60405180910390f35b3480156102b057600080fd5b506102cb60048036038101906102c69190612ac0565b61097b565b005b3480156102d957600080fd5b506102f460048036038101906102ef9190612bc6565b6109db565b60405161030191906133d5565b60405180910390f35b34801561031657600080fd5b5061031f610a80565b005b34801561032d57600080fd5b5061034860048036038101906103439190612ac0565b610b06565b005b34801561035657600080fd5b50610371600480360381019061036c9190612c95565b610b26565b60405161037e91906133d5565b60405180910390f35b34801561039357600080fd5b506103ae60048036038101906103a99190612c54565b610bbd565b005b3480156103bc57600080fd5b506103c5610c53565b6040516103d291906130f8565b60405180910390f35b3480156103e757600080fd5b5061040260048036038101906103fd9190612c95565b610c6a565b60405161040f9190613091565b60405180910390f35b34801561042457600080fd5b5061043f600480360381019061043a9190612a5b565b610d1c565b60405161044c91906133d5565b60405180910390f35b34801561046157600080fd5b5061046a610dd4565b005b61048660048036038101906104819190612a5b565b610e5c565b60405161049391906133d5565b60405180910390f35b3480156104a857600080fd5b506104b1610f23565b005b3480156104bf57600080fd5b506104c8610fa9565b6040516104d59190613091565b60405180910390f35b3480156104ea57600080fd5b506104f3610fd3565b6040516105009190613113565b60405180910390f35b34801561051557600080fd5b50610530600480360381019061052b9190612b8a565b611065565b005b34801561053e57600080fd5b5061055960048036038101906105549190612b0f565b61107b565b005b34801561056757600080fd5b50610582600480360381019061057d9190612c95565b6110dd565b60405161058f9190613113565b60405180910390f35b3480156105a457600080fd5b506105ad611184565b6040516105ba9190613113565b60405180910390f35b3480156105cf57600080fd5b506105ea60048036038101906105e59190612a84565b611212565b6040516105f791906130f8565b60405180910390f35b34801561060c57600080fd5b5061062760048036038101906106229190612a5b565b6112a6565b005b34801561063557600080fd5b50610650600480360381019061064b9190612a5b565b611368565b005b60007f780e9d63000000000000000000000000000000000000000000000000000000007bffffffffffffffffffffffffffffffffffffffffffffffffffffffff1916827bffffffffffffffffffffffffffffffffffffffffffffffffffffffff191614806106c557506106c482611460565b5b9050919050565b6060600080546106db9061362b565b80601f01602080910402602001604051908101604052809291908181526020018280546107079061362b565b80156107545780601f1061072957610100808354040283529160200191610754565b820191906000526020600020905b81548152906001019060200180831161073757829003601f168201915b5050505050905090565b600061076982611542565b6107a8576040517f08c379a000000000000000000000000000000000000000000000000000000000815260040161079f906132f5565b60405180910390fd5b6004600083815260200190815260200160002060009054906101000a900473ffffffffffffffffffffffffffffffffffffffff169050919050565b60006107ee82610c6a565b90508073ffffffffffffffffffffffffffffffffffffffff168373ffffffffffffffffffffffffffffffffffffffff16141561085f576040517f08c379a000000000000000000000000000000000000000000000000000000000815260040161085690613355565b60405180910390fd5b8073ffffffffffffffffffffffffffffffffffffffff1661087e6115ae565b73ffffffffffffffffffffffffffffffffffffffff1614806108ad57506108ac816108a76115ae565b611212565b5b6108ec576040517f08c379a00000000000000000000000000000000000000000000000000000000081526004016108e390613275565b60405180910390fd5b6108f683836115b6565b505050565b6000600d60009054906101000a900473ffffffffffffffffffffffffffffffffffffffff1690508073ffffffffffffffffffffffffffffffffffffffff166108fc600e549081150290604051600060405180830381858888f1935050505015801561096a573d6000803e3d6000fd5b5050565b6000600880549050905090565b61098c6109866115ae565b8261166f565b6109cb576040517f08c379a00000000000000000000000000000000000000000000000000000000081526004016109c290613395565b60405180910390fd5b6109d683838361174d565b505050565b60006109e683610d1c565b8210610a27576040517f08c379a0000000000000000000000000000000000000000000000000000000008152600401610a1e90613155565b60405180910390fd5b600660008473ffffffffffffffffffffffffffffffffffffffff1673ffffffffffffffffffffffffffffffffffffffff168152602001908152602001600020600083815260200190815260200160002054905092915050565b610a886115ae565b73ffffffffffffffffffffffffffffffffffffffff16610aa6610fa9565b73ffffffffffffffffffffffffffffffffffffffff1614610afc576040517f08c379a0000000000000000000000000000000000000000000000000000000008152600401610af390613315565b60405180910390fd5b610b046119b4565b565b610b218383836040518060200160405280600081525061107b565b505050565b6000610b3061096e565b8210610b71576040517f08c379a0000000000000000000000000000000000000000000000000000000008152600401610b68906133b5565b60405180910390fd5b60088281548110610bab577f4e487b7100000000000000000000000000000000000000000000000000000000600052603260045260246000fd5b90600052602060002001549050919050565b610bc56115ae565b73ffffffffffffffffffffffffffffffffffffffff16610be3610fa9565b73ffffffffffffffffffffffffffffffffffffffff1614610c39576040517f08c379a0000000000000000000000000000000000000000000000000000000008152600401610c3090613315565b60405180910390fd5b80600c9080519060200190610c4f92919061287f565b5050565b6000600a60149054906101000a900460ff16905090565b6000806002600084815260200190815260200160002060009054906101000a900473ffffffffffffffffffffffffffffffffffffffff169050600073ffffffffffffffffffffffffffffffffffffffff168173ffffffffffffffffffffffffffffffffffffffff161415610d13576040517f08c379a0000000000000000000000000000000000000000000000000000000008152600401610d0a906132b5565b60405180910390fd5b80915050919050565b60008073ffffffffffffffffffffffffffffffffffffffff168273ffffffffffffffffffffffffffffffffffffffff161415610d8d576040517f08c379a0000000000000000000000000000000000000000000000000000000008152600401610d8490613295565b60405180910390fd5b600360008373ffffffffffffffffffffffffffffffffffffffff1673ffffffffffffffffffffffffffffffffffffffff168152602001908152602001600020549050919050565b610ddc6115ae565b73ffffffffffffffffffffffffffffffffffffffff16610dfa610fa9565b73ffffffffffffffffffffffffffffffffffffffff1614610e50576040517f08c379a0000000000000000000000000000000000000000000000000000000008152600401610e4790613315565b60405180910390fd5b610e5a6000611a56565b565b6000610e66610c53565b15610ea6576040517f08c379a0000000000000000000000000000000000000000000000000000000008152600401610e9d90613255565b60405180910390fd5b610eae6108fb565b610eb8600b611b1c565b6000610ec4600b611b32565b9050601f610ed061096e565b10610f10576040517f08c379a0000000000000000000000000000000000000000000000000000000008152600401610f0790613375565b60405180910390fd5b610f1a8382611b40565b80915050919050565b610f2b6115ae565b73ffffffffffffffffffffffffffffffffffffffff16610f49610fa9565b73ffffffffffffffffffffffffffffffffffffffff1614610f9f576040517f08c379a0000000000000000000000000000000000000000000000000000000008152600401610f9690613315565b60405180910390fd5b610fa7611d1a565b565b6000600a60009054906101000a900473ffffffffffffffffffffffffffffffffffffffff16905090565b606060018054610fe29061362b565b80601f016020809104026020016040519081016040528092919081815260200182805461100e9061362b565b801561105b5780601f106110305761010080835404028352916020019161105b565b820191906000526020600020905b81548152906001019060200180831161103e57829003601f168201915b5050505050905090565b6110776110706115ae565b8383611dbd565b5050565b61108c6110866115ae565b8361166f565b6110cb576040517f08c379a00000000000000000000000000000000000000000000000000000000081526004016110c290613395565b60405180910390fd5b6110d784848484611f2a565b50505050565b60606110e882611542565b611127576040517f08c379a000000000000000000000000000000000000000000000000000000000815260040161111e90613335565b60405180910390fd5b6000611131611f86565b90506000815111611151576040518060200160405280600081525061117c565b8061115b84612018565b60405160200161116c92919061306d565b6040516020818303038152906040525b915050919050565b600c80546111919061362b565b80601f01602080910402602001604051908101604052809291908181526020018280546111bd9061362b565b801561120a5780601f106111df5761010080835404028352916020019161120a565b820191906000526020600020905b8154815290600101906020018083116111ed57829003601f168201915b505050505081565b6000600560008473ffffffffffffffffffffffffffffffffffffffff1673ffffffffffffffffffffffffffffffffffffffff16815260200190815260200160002060008373ffffffffffffffffffffffffffffffffffffffff1673ffffffffffffffffffffffffffffffffffffffff16815260200190815260200160002060009054906101000a900460ff16905092915050565b6112ae6115ae565b73ffffffffffffffffffffffffffffffffffffffff166112cc610fa9565b73ffffffffffffffffffffffffffffffffffffffff1614611322576040517f08c379a000000000000000000000000000000000000000000000000000000000815260040161131990613315565b60405180910390fd5b60005b600581101561136457611338600b611b1c565b6000611344600b611b32565b90506113508382611b40565b50808061135c9061368e565b915050611325565b5050565b6113706115ae565b73ffffffffffffffffffffffffffffffffffffffff1661138e610fa9565b73ffffffffffffffffffffffffffffffffffffffff16146113e4576040517f08c379a00000000000000000000000000000000000000000000000000000000081526004016113db90613315565b60405180910390fd5b600073ffffffffffffffffffffffffffffffffffffffff168173ffffffffffffffffffffffffffffffffffffffff161415611454576040517f08c379a000000000000000000000000000000000000000000000000000000000815260040161144b90613195565b60405180910390fd5b61145d81611a56565b50565b60007f80ac58cd000000000000000000000000000000000000000000000000000000007bffffffffffffffffffffffffffffffffffffffffffffffffffffffff1916827bffffffffffffffffffffffffffffffffffffffffffffffffffffffff1916148061152b57507f5b5e139f000000000000000000000000000000000000000000000000000000007bffffffffffffffffffffffffffffffffffffffffffffffffffffffff1916827bffffffffffffffffffffffffffffffffffffffffffffffffffffffff1916145b8061153b575061153a826121c5565b5b9050919050565b60008073ffffffffffffffffffffffffffffffffffffffff166002600084815260200190815260200160002060009054906101000a900473ffffffffffffffffffffffffffffffffffffffff1673ffffffffffffffffffffffffffffffffffffffff1614159050919050565b600033905090565b816004600083815260200190815260200160002060006101000a81548173ffffffffffffffffffffffffffffffffffffffff021916908373ffffffffffffffffffffffffffffffffffffffff160217905550808273ffffffffffffffffffffffffffffffffffffffff1661162983610c6a565b73ffffffffffffffffffffffffffffffffffffffff167f8c5be1e5ebec7d5bd14f71427d1e84f3dd0314c0f7b2291e5b200ac8c7c3b92560405160405180910390a45050565b600061167a82611542565b6116b9576040517f08c379a00000000000000000000000000000000000000000000000000000000081526004016116b090613235565b60405180910390fd5b60006116c483610c6a565b90508073ffffffffffffffffffffffffffffffffffffffff168473ffffffffffffffffffffffffffffffffffffffff16148061170657506117058185611212565b5b8061174457508373ffffffffffffffffffffffffffffffffffffffff1661172c8461075e565b73ffffffffffffffffffffffffffffffffffffffff16145b91505092915050565b8273ffffffffffffffffffffffffffffffffffffffff1661176d82610c6a565b73ffffffffffffffffffffffffffffffffffffffff16146117c3576040517f08c379a00000000000000000000000000000000000000000000000000000000081526004016117ba906131b5565b60405180910390fd5b600073ffffffffffffffffffffffffffffffffffffffff168273ffffffffffffffffffffffffffffffffffffffff161415611833576040517f08c379a000000000000000000000000000000000000000000000000000000000815260040161182a906131f5565b60405180910390fd5b61183e83838361222f565b6118496000826115b6565b6001600360008573ffffffffffffffffffffffffffffffffffffffff1673ffffffffffffffffffffffffffffffffffffffff16815260200190815260200160002060008282546118999190613541565b925050819055506001600360008473ffffffffffffffffffffffffffffffffffffffff1673ffffffffffffffffffffffffffffffffffffffff16815260200190815260200160002060008282546118f091906134ba565b92505081905550816002600083815260200190815260200160002060006101000a81548173ffffffffffffffffffffffffffffffffffffffff021916908373ffffffffffffffffffffffffffffffffffffffff160217905550808273ffffffffffffffffffffffffffffffffffffffff168473ffffffffffffffffffffffffffffffffffffffff167fddf252ad1be2c89b69c2b068fc378daa952ba7f163c4a11628f55a4df523b3ef60405160405180910390a46119af838383612343565b505050565b6119bc610c53565b6119fb576040517f08c379a00000000000000000000000000000000000000000000000000000000081526004016119f290613135565b60405180910390fd5b6000600a60146101000a81548160ff0219169083151502179055507f5db9ee0a495bf2e6ff9c91a7834c1ba4fdd244a5e8aa4e537bd38aeae4b073aa611a3f6115ae565b604051611a4c9190613091565b60405180910390a1565b6000600a60009054906101000a900473ffffffffffffffffffffffffffffffffffffffff16905081600a60006101000a81548173ffffffffffffffffffffffffffffffffffffffff021916908373ffffffffffffffffffffffffffffffffffffffff1602179055508173ffffffffffffffffffffffffffffffffffffffff168173ffffffffffffffffffffffffffffffffffffffff167f8be0079c531659141344cd1fd0a4f28419497f9722a3daafe3b4186f6b6457e060405160405180910390a35050565b6001816000016000828254019250508190555050565b600081600001549050919050565b600073ffffffffffffffffffffffffffffffffffffffff168273ffffffffffffffffffffffffffffffffffffffff161415611bb0576040517f08c379a0000000000000000000000000000000000000000000000000000000008152600401611ba7906132d5565b60405180910390fd5b611bb981611542565b15611bf9576040517f08c379a0000000000000000000000000000000000000000000000000000000008152600401611bf0906131d5565b60405180910390fd5b611c056000838361222f565b6001600360008473ffffffffffffffffffffffffffffffffffffffff1673ffffffffffffffffffffffffffffffffffffffff1681526020019081526020016000206000828254611c5591906134ba565b92505081905550816002600083815260200190815260200160002060006101000a81548173ffffffffffffffffffffffffffffffffffffffff021916908373ffffffffffffffffffffffffffffffffffffffff160217905550808273ffffffffffffffffffffffffffffffffffffffff16600073ffffffffffffffffffffffffffffffffffffffff167fddf252ad1be2c89b69c2b068fc378daa952ba7f163c4a11628f55a4df523b3ef60405160405180910390a4611d1660008383612343565b5050565b611d22610c53565b15611d62576040517f08c379a0000000000000000000000000000000000000000000000000000000008152600401611d5990613255565b60405180910390fd5b6001600a60146101000a81548160ff0219169083151502179055507f62e78cea01bee320cd4e420270b5ea74000d11b0c9f74754ebdbfc544b05a258611da66115ae565b604051611db39190613091565b60405180910390a1565b8173ffffffffffffffffffffffffffffffffffffffff168373ffffffffffffffffffffffffffffffffffffffff161415611e2c576040517f08c379a0000000000000000000000000000000000000000000000000000000008152600401611e2390613215565b60405180910390fd5b80600560008573ffffffffffffffffffffffffffffffffffffffff1673ffffffffffffffffffffffffffffffffffffffff16815260200190815260200160002060008473ffffffffffffffffffffffffffffffffffffffff1673ffffffffffffffffffffffffffffffffffffffff16815260200190815260200160002060006101000a81548160ff0219169083151502179055508173ffffffffffffffffffffffffffffffffffffffff168373ffffffffffffffffffffffffffffffffffffffff167f17307eab39ab6107e8899845ad3d59bd9653f200f220920489ca2b5937696c3183604051611f1d91906130f8565b60405180910390a3505050565b611f3584848461174d565b611f4184848484612348565b611f80576040517f08c379a0000000000000000000000000000000000000000000000000000000008152600401611f7790613175565b60405180910390fd5b50505050565b6060600c8054611f959061362b565b80601f0160208091040260200160405190810160405280929190818152602001828054611fc19061362b565b801561200e5780601f10611fe35761010080835404028352916020019161200e565b820191906000526020600020905b815481529060010190602001808311611ff157829003601f168201915b5050505050905090565b60606000821415612060576040518060400160405280600181526020017f300000000000000000000000000000000000000000000000000000000000000081525090506121c0565b600082905060005b6000821461209257808061207b9061368e565b915050600a8261208b9190613510565b9150612068565b60008167ffffffffffffffff8111156120d4577f4e487b7100000000000000000000000000000000000000000000000000000000600052604160045260246000fd5b6040519080825280601f01601f1916602001820160405280156121065781602001600182028036833780820191505090505b5090505b600085146121b95760018261211f9190613541565b9150600a8561212e91906136d7565b603061213a91906134ba565b60f81b818381518110612176577f4e487b7100000000000000000000000000000000000000000000000000000000600052603260045260246000fd5b60200101907effffffffffffffffffffffffffffffffffffffffffffffffffffffffffffff1916908160001a905350600a856121b29190613510565b945061210a565b8093505050505b919050565b60007f01ffc9a7000000000000000000000000000000000000000000000000000000007bffffffffffffffffffffffffffffffffffffffffffffffffffffffff1916827bffffffffffffffffffffffffffffffffffffffffffffffffffffffff1916149050919050565b61223a8383836124df565b600073ffffffffffffffffffffffffffffffffffffffff168373ffffffffffffffffffffffffffffffffffffffff16141561227d57612278816124e4565b6122bc565b8173ffffffffffffffffffffffffffffffffffffffff168373ffffffffffffffffffffffffffffffffffffffff16146122bb576122ba838261252d565b5b5b600073ffffffffffffffffffffffffffffffffffffffff168273ffffffffffffffffffffffffffffffffffffffff1614156122ff576122fa8161269a565b61233e565b8273ffffffffffffffffffffffffffffffffffffffff168273ffffffffffffffffffffffffffffffffffffffff161461233d5761233c82826127dd565b5b5b505050565b505050565b60006123698473ffffffffffffffffffffffffffffffffffffffff1661285c565b156124d2578373ffffffffffffffffffffffffffffffffffffffff1663150b7a026123926115ae565b8786866040518563ffffffff1660e01b81526004016123b494939291906130ac565b602060405180830381600087803b1580156123ce57600080fd5b505af19250505080156123ff57506040513d601f19601f820116820180604052508101906123fc9190612c2b565b60015b612482573d806000811461242f576040519150601f19603f3d011682016040523d82523d6000602084013e612434565b606091505b5060008151141561247a576040517f08c379a000000000000000000000000000000000000000000000000000000000815260040161247190613175565b60405180910390fd5b805181602001fd5b63150b7a0260e01b7bffffffffffffffffffffffffffffffffffffffffffffffffffffffff1916817bffffffffffffffffffffffffffffffffffffffffffffffffffffffff1916149150506124d7565b600190505b949350505050565b505050565b6008805490506009600083815260200190815260200160002081905550600881908060018154018082558091505060019003906000526020600020016000909190919091505550565b6000600161253a84610d1c565b6125449190613541565b9050600060076000848152602001908152602001600020549050818114612629576000600660008673ffffffffffffffffffffffffffffffffffffffff1673ffffffffffffffffffffffffffffffffffffffff168152602001908152602001600020600084815260200190815260200160002054905080600660008773ffffffffffffffffffffffffffffffffffffffff1673ffffffffffffffffffffffffffffffffffffffff168152602001908152602001600020600084815260200190815260200160002081905550816007600083815260200190815260200160002081905550505b6007600084815260200190815260200160002060009055600660008573ffffffffffffffffffffffffffffffffffffffff1673ffffffffffffffffffffffffffffffffffffffff16815260200190815260200160002060008381526020019081526020016000206000905550505050565b600060016008805490506126ae9190613541565b9050600060096000848152602001908152602001600020549050600060088381548110612704577f4e487b7100000000000000000000000000000000000000000000000000000000600052603260045260246000fd5b90600052602060002001549050806008838154811061274c577f4e487b7100000000000000000000000000000000000000000000000000000000600052603260045260246000fd5b9060005260206000200181905550816009600083815260200190815260200160002081905550600960008581526020019081526020016000206000905560088054806127c1577f4e487b7100000000000000000000000000000000000000000000000000000000600052603160045260246000fd5b6001900381819060005260206000200160009055905550505050565b60006127e883610d1c565b905081600660008573ffffffffffffffffffffffffffffffffffffffff1673ffffffffffffffffffffffffffffffffffffffff168152602001908152602001600020600083815260200190815260200160002081905550806007600084815260200190815260200160002081905550505050565b6000808273ffffffffffffffffffffffffffffffffffffffff163b119050919050565b82805461288b9061362b565b90600052602060002090601f0160209004810192826128ad57600085556128f4565b82601f106128c657805160ff19168380011785556128f4565b828001600101855582156128f4579182015b828111156128f35782518255916020019190600101906128d8565b5b5090506129019190612905565b5090565b5b8082111561291e576000816000905550600101612906565b5090565b600061293561293084613415565b6133f0565b90508281526020810184848401111561294d57600080fd5b6129588482856135e9565b509392505050565b600061297361296e84613446565b6133f0565b90508281526020810184848401111561298b57600080fd5b6129968482856135e9565b509392505050565b6000813590506129ad81613d6c565b92915050565b6000813590506129c281613d83565b92915050565b6000813590506129d781613d9a565b92915050565b6000815190506129ec81613d9a565b92915050565b600082601f830112612a0357600080fd5b8135612a13848260208601612922565b91505092915050565b600082601f830112612a2d57600080fd5b8135612a3d848260208601612960565b91505092915050565b600081359050612a5581613db1565b92915050565b600060208284031215612a6d57600080fd5b6000612a7b8482850161299e565b91505092915050565b60008060408385031215612a9757600080fd5b6000612aa58582860161299e565b9250506020612ab68582860161299e565b9150509250929050565b600080600060608486031215612ad557600080fd5b6000612ae38682870161299e565b9350506020612af48682870161299e565b9250506040612b0586828701612a46565b9150509250925092565b60008060008060808587031215612b2557600080fd5b6000612b338782880161299e565b9450506020612b448782880161299e565b9350506040612b5587828801612a46565b925050606085013567ffffffffffffffff811115612b7257600080fd5b612b7e878288016129f2565b91505092959194509250565b60008060408385031215612b9d57600080fd5b6000612bab8582860161299e565b9250506020612bbc858286016129b3565b9150509250929050565b60008060408385031215612bd957600080fd5b6000612be78582860161299e565b9250506020612bf885828601612a46565b9150509250929050565b600060208284031215612c1457600080fd5b6000612c22848285016129c8565b91505092915050565b600060208284031215612c3d57600080fd5b6000612c4b848285016129dd565b91505092915050565b600060208284031215612c6657600080fd5b600082013567ffffffffffffffff811115612c8057600080fd5b612c8c84828501612a1c565b91505092915050565b600060208284031215612ca757600080fd5b6000612cb584828501612a46565b91505092915050565b612cc781613575565b82525050565b612cd681613587565b82525050565b6000612ce782613477565b612cf1818561348d565b9350612d018185602086016135f8565b612d0a816137c4565b840191505092915050565b6000612d2082613482565b612d2a818561349e565b9350612d3a8185602086016135f8565b612d43816137c4565b840191505092915050565b6000612d5982613482565b612d6381856134af565b9350612d738185602086016135f8565b80840191505092915050565b6000612d8c60148361349e565b9150612d97826137d5565b602082019050919050565b6000612daf602b8361349e565b9150612dba826137fe565b604082019050919050565b6000612dd260328361349e565b9150612ddd8261384d565b604082019050919050565b6000612df560268361349e565b9150612e008261389c565b604082019050919050565b6000612e1860258361349e565b9150612e23826138eb565b604082019050919050565b6000612e3b601c8361349e565b9150612e468261393a565b602082019050919050565b6000612e5e60248361349e565b9150612e6982613963565b604082019050919050565b6000612e8160198361349e565b9150612e8c826139b2565b602082019050919050565b6000612ea4602c8361349e565b9150612eaf826139db565b604082019050919050565b6000612ec760108361349e565b9150612ed282613a2a565b602082019050919050565b6000612eea60388361349e565b9150612ef582613a53565b604082019050919050565b6000612f0d602a8361349e565b9150612f1882613aa2565b604082019050919050565b6000612f3060298361349e565b9150612f3b82613af1565b604082019050919050565b6000612f5360208361349e565b9150612f5e82613b40565b602082019050919050565b6000612f76602c8361349e565b9150612f8182613b69565b604082019050919050565b6000612f9960208361349e565b9150612fa482613bb8565b602082019050919050565b6000612fbc602f8361349e565b9150612fc782613be1565b604082019050919050565b6000612fdf60218361349e565b9150612fea82613c30565b604082019050919050565b600061300260218361349e565b915061300d82613c7f565b604082019050919050565b600061302560318361349e565b915061303082613cce565b604082019050919050565b6000613048602c8361349e565b915061305382613d1d565b604082019050919050565b613067816135df565b82525050565b60006130798285612d4e565b91506130858284612d4e565b91508190509392505050565b60006020820190506130a66000830184612cbe565b92915050565b60006080820190506130c16000830187612cbe565b6130ce6020830186612cbe565b6130db604083018561305e565b81810360608301526130ed8184612cdc565b905095945050505050565b600060208201905061310d6000830184612ccd565b92915050565b6000602082019050818103600083015261312d8184612d15565b905092915050565b6000602082019050818103600083015261314e81612d7f565b9050919050565b6000602082019050818103600083015261316e81612da2565b9050919050565b6000602082019050818103600083015261318e81612dc5565b9050919050565b600060208201905081810360008301526131ae81612de8565b9050919050565b600060208201905081810360008301526131ce81612e0b565b9050919050565b600060208201905081810360008301526131ee81612e2e565b9050919050565b6000602082019050818103600083015261320e81612e51565b9050919050565b6000602082019050818103600083015261322e81612e74565b9050919050565b6000602082019050818103600083015261324e81612e97565b9050919050565b6000602082019050818103600083015261326e81612eba565b9050919050565b6000602082019050818103600083015261328e81612edd565b9050919050565b600060208201905081810360008301526132ae81612f00565b9050919050565b600060208201905081810360008301526132ce81612f23565b9050919050565b600060208201905081810360008301526132ee81612f46565b9050919050565b6000602082019050818103600083015261330e81612f69565b9050919050565b6000602082019050818103600083015261332e81612f8c565b9050919050565b6000602082019050818103600083015261334e81612faf565b9050919050565b6000602082019050818103600083015261336e81612fd2565b9050919050565b6000602082019050818103600083015261338e81612ff5565b9050919050565b600060208201905081810360008301526133ae81613018565b9050919050565b600060208201905081810360008301526133ce8161303b565b9050919050565b60006020820190506133ea600083018461305e565b92915050565b60006133fa61340b565b9050613406828261365d565b919050565b6000604051905090565b600067ffffffffffffffff8211156134305761342f613795565b5b613439826137c4565b9050602081019050919050565b600067ffffffffffffffff82111561346157613460613795565b5b61346a826137c4565b9050602081019050919050565b600081519050919050565b600081519050919050565b600082825260208201905092915050565b600082825260208201905092915050565b600081905092915050565b60006134c5826135df565b91506134d0836135df565b9250827fffffffffffffffffffffffffffffffffffffffffffffffffffffffffffffffff0382111561350557613504613708565b5b828201905092915050565b600061351b826135df565b9150613526836135df565b92508261353657613535613737565b5b828204905092915050565b600061354c826135df565b9150613557836135df565b92508282101561356a57613569613708565b5b828203905092915050565b6000613580826135bf565b9050919050565b60008115159050919050565b60007fffffffff0000000000000000000000000000000000000000000000000000000082169050919050565b600073ffffffffffffffffffffffffffffffffffffffff82169050919050565b6000819050919050565b82818337600083830152505050565b60005b838110156136165780820151818401526020810190506135fb565b83811115613625576000848401525b50505050565b6000600282049050600182168061364357607f821691505b6020821081141561365757613656613766565b5b50919050565b613666826137c4565b810181811067ffffffffffffffff8211171561368557613684613795565b5b80604052505050565b6000613699826135df565b91507fffffffffffffffffffffffffffffffffffffffffffffffffffffffffffffffff8214156136cc576136cb613708565b5b600182019050919050565b60006136e2826135df565b91506136ed836135df565b9250826136fd576136fc613737565b5b828206905092915050565b7f4e487b7100000000000000000000000000000000000000000000000000000000600052601160045260246000fd5b7f4e487b7100000000000000000000000000000000000000000000000000000000600052601260045260246000fd5b7f4e487b7100000000000000000000000000000000000000000000000000000000600052602260045260246000fd5b7f4e487b7100000000000000000000000000000000000000000000000000000000600052604160045260246000fd5b6000601f19601f8301169050919050565b7f5061757361626c653a206e6f7420706175736564000000000000000000000000600082015250565b7f455243373231456e756d657261626c653a206f776e657220696e646578206f7560008201527f74206f6620626f756e6473000000000000000000000000000000000000000000602082015250565b7f4552433732313a207472616e7366657220746f206e6f6e20455243373231526560008201527f63656976657220696d706c656d656e7465720000000000000000000000000000602082015250565b7f4f776e61626c653a206e6577206f776e657220697320746865207a65726f206160008201527f6464726573730000000000000000000000000000000000000000000000000000602082015250565b7f4552433732313a207472616e736665722066726f6d20696e636f72726563742060008201527f6f776e6572000000000000000000000000000000000000000000000000000000602082015250565b7f4552433732313a20746f6b656e20616c7265616479206d696e74656400000000600082015250565b7f4552433732313a207472616e7366657220746f20746865207a65726f2061646460008201527f7265737300000000000000000000000000000000000000000000000000000000602082015250565b7f4552433732313a20617070726f766520746f2063616c6c657200000000000000600082015250565b7f4552433732313a206f70657261746f7220717565727920666f72206e6f6e657860008201527f697374656e7420746f6b656e0000000000000000000000000000000000000000602082015250565b7f5061757361626c653a2070617573656400000000000000000000000000000000600082015250565b7f4552433732313a20617070726f76652063616c6c6572206973206e6f74206f7760008201527f6e6572206e6f7220617070726f76656420666f7220616c6c0000000000000000602082015250565b7f4552433732313a2062616c616e636520717565727920666f7220746865207a6560008201527f726f206164647265737300000000000000000000000000000000000000000000602082015250565b7f4552433732313a206f776e657220717565727920666f72206e6f6e657869737460008201527f656e7420746f6b656e0000000000000000000000000000000000000000000000602082015250565b7f4552433732313a206d696e7420746f20746865207a65726f2061646472657373600082015250565b7f4552433732313a20617070726f76656420717565727920666f72206e6f6e657860008201527f697374656e7420746f6b656e0000000000000000000000000000000000000000602082015250565b7f4f776e61626c653a2063616c6c6572206973206e6f7420746865206f776e6572600082015250565b7f4552433732314d657461646174613a2055524920717565727920666f72206e6f60008201527f6e6578697374656e7420746f6b656e0000000000000000000000000000000000602082015250565b7f4552433732313a20617070726f76616c20746f2063757272656e74206f776e6560008201527f7200000000000000000000000000000000000000000000000000000000000000602082015250565b7f4572726f72202d203330204e465420616c7265616479206d696e7465642e202160008201527f2100000000000000000000000000000000000000000000000000000000000000602082015250565b7f4552433732313a207472616e736665722063616c6c6572206973206e6f74206f60008201527f776e6572206e6f7220617070726f766564000000000000000000000000000000602082015250565b7f455243373231456e756d657261626c653a20676c6f62616c20696e646578206f60008201527f7574206f6620626f756e64730000000000000000000000000000000000000000602082015250565b613d7581613575565b8114613d8057600080fd5b50565b613d8c81613587565b8114613d9757600080fd5b50565b613da381613593565b8114613dae57600080fd5b50565b613dba816135df565b8114613dc557600080fd5b5056fea264697066735822122026ab0aa73440b2bb9bf15774ef78ee981e4462e10a175a3f5e65aa6880933e8264736f6c63430008010033",
  "linkReferences": {},
  "deployedLinkReferences": {}
}