{
  "_format": "hh-sol-artifact-1",
  "contractName": "PS",
  "sourceName": "contracts/PS.sol",
  "abi": [
    {
      "inputs": [],
      "stateMutability": "nonpayable",
      "type": "constructor"
    },
    {
      "anonymous": false,
      "inputs": [
        {
          "indexed": true,
          "internalType": "address",
          "name": "owner",
          "type": "address"
        },
        {
          "indexed": true,
          "internalType": "address",
          "name": "approved",
          "type": "address"
        },
        {
          "indexed": true,
          "internalType": "uint256",
          "name": "tokenId",
          "type": "uint256"
        }
      ],
      "name": "Approval",
      "type": "event"
    },
    {
      "anonymous": false,
      "inputs": [
        {
          "indexed": true,
          "internalType": "address",
          "name": "owner",
          "type": "address"
        },
        {
          "indexed": true,
          "internalType": "address",
          "name": "operator",
          "type": "address"
        },
        {
          "indexed": false,
          "internalType": "bool",
          "name": "approved",
          "type": "bool"
        }
      ],
      "name": "ApprovalForAll",
      "type": "event"
    },
    {
      "anonymous": false,
      "inputs": [
        {
          "indexed": true,
          "internalType": "address",
          "name": "previousOwner",
          "type": "address"
        },
        {
          "indexed": true,
          "internalType": "address",
          "name": "newOwner",
          "type": "address"
        }
      ],
      "name": "OwnershipTransferred",
      "type": "event"
    },
    {
      "anonymous": false,
      "inputs": [
        {
          "indexed": false,
          "internalType": "address",
          "name": "account",
          "type": "address"
        }
      ],
      "name": "Paused",
      "type": "event"
    },
    {
      "anonymous": false,
      "inputs": [
        {
          "indexed": true,
          "internalType": "address",
          "name": "from",
          "type": "address"
        },
        {
          "indexed": true,
          "internalType": "address",
          "name": "to",
          "type": "address"
        },
        {
          "indexed": true,
          "internalType": "uint256",
          "name": "tokenId",
          "type": "uint256"
        }
      ],
      "name": "Transfer",
      "type": "event"
    },
    {
      "anonymous": false,
      "inputs": [
        {
          "indexed": false,
          "internalType": "address",
          "name": "account",
          "type": "address"
        }
      ],
      "name": "Unpaused",
      "type": "event"
    },
    {
      "inputs": [],
      "name": "_baseTokenURI",
      "outputs": [
        {
          "internalType": "string",
          "name": "",
          "type": "string"
        }
      ],
      "stateMutability": "view",
      "type": "function"
    },
    {
      "inputs": [],
      "name": "_supplyInNetwork",
      "outputs": [
        {
          "internalType": "uint256",
          "name": "",
          "type": "uint256"
        }
      ],
      "stateMutability": "view",
      "type": "function"
    },
    {
      "inputs": [
        {
          "internalType": "address",
          "name": "to",
          "type": "address"
        },
        {
          "internalType": "uint256",
          "name": "tokenId",
          "type": "uint256"
        }
      ],
      "name": "approve",
      "outputs": [],
      "stateMutability": "nonpayable",
      "type": "function"
    },
    {
      "inputs": [
        {
          "internalType": "address",
          "name": "owner",
          "type": "address"
        }
      ],
      "name": "balanceOf",
      "outputs": [
        {
          "internalType": "uint256",
          "name": "",
          "type": "uint256"
        }
      ],
      "stateMutability": "view",
      "type": "function"
    },
    {
      "inputs": [
        {
          "internalType": "uint256",
          "name": "tokenId",
          "type": "uint256"
        }
      ],
      "name": "getApproved",
      "outputs": [
        {
          "internalType": "address",
          "name": "",
          "type": "address"
        }
      ],
      "stateMutability": "view",
      "type": "function"
    },
    {
      "inputs": [
        {
          "internalType": "address",
          "name": "owner",
          "type": "address"
        },
        {
          "internalType": "address",
          "name": "operator",
          "type": "address"
        }
      ],
      "name": "isApprovedForAll",
      "outputs": [
        {
          "internalType": "bool",
          "name": "",
          "type": "bool"
        }
      ],
      "stateMutability": "view",
      "type": "function"
    },
    {
      "inputs": [],
      "name": "maxVal",
      "outputs": [
        {
          "internalType": "uint256",
          "name": "",
          "type": "uint256"
        }
      ],
      "stateMutability": "view",
      "type": "function"
    },
    {
      "inputs": [
        {
          "internalType": "address",
          "name": "recipient",
          "type": "address"
        }
      ],
      "name": "mintNFTForUser",
      "outputs": [
        {
          "internalType": "uint256",
          "name": "",
          "type": "uint256"
        }
      ],
      "stateMutability": "nonpayable",
      "type": "function"
    },
    {
      "inputs": [],
      "name": "name",
      "outputs": [
        {
          "internalType": "string",
          "name": "",
          "type": "string"
        }
      ],
      "stateMutability": "view",
      "type": "function"
    },
    {
      "inputs": [],
      "name": "owner",
      "outputs": [
        {
          "internalType": "address",
          "name": "",
          "type": "address"
        }
      ],
      "stateMutability": "view",
      "type": "function"
    },
    {
      "inputs": [
        {
          "internalType": "uint256",
          "name": "tokenId",
          "type": "uint256"
        }
      ],
      "name": "ownerOf",
      "outputs": [
        {
          "internalType": "address",
          "name": "",
          "type": "address"
        }
      ],
      "stateMutability": "view",
      "type": "function"
    },
    {
      "inputs": [],
      "name": "paused",
      "outputs": [
        {
          "internalType": "bool",
          "name": "",
          "type": "bool"
        }
      ],
      "stateMutability": "view",
      "type": "function"
    },
    {
      "inputs": [
        {
          "internalType": "address",
          "name": "recipient",
          "type": "address"
        }
      ],
      "name": "presales",
      "outputs": [
        {
          "internalType": "uint256",
          "name": "",
          "type": "uint256"
        }
      ],
      "stateMutability": "nonpayable",
      "type": "function"
    },
    {
      "inputs": [],
      "name": "renounceOwnership",
      "outputs": [],
      "stateMutability": "nonpayable",
      "type": "function"
    },
    {
      "inputs": [
        {
          "internalType": "address",
          "name": "from",
          "type": "address"
        },
        {
          "internalType": "address",
          "name": "to",
          "type": "address"
        },
        {
          "internalType": "uint256",
          "name": "tokenId",
          "type": "uint256"
        }
      ],
      "name": "safeTransferFrom",
      "outputs": [],
      "stateMutability": "nonpayable",
      "type": "function"
    },
    {
      "inputs": [
        {
          "internalType": "address",
          "name": "from",
          "type": "address"
        },
        {
          "internalType": "address",
          "name": "to",
          "type": "address"
        },
        {
          "internalType": "uint256",
          "name": "tokenId",
          "type": "uint256"
        },
        {
          "internalType": "bytes",
          "name": "_data",
          "type": "bytes"
        }
      ],
      "name": "safeTransferFrom",
      "outputs": [],
      "stateMutability": "nonpayable",
      "type": "function"
    },
    {
      "inputs": [
        {
          "internalType": "address",
          "name": "operator",
          "type": "address"
        },
        {
          "internalType": "bool",
          "name": "approved",
          "type": "bool"
        }
      ],
      "name": "setApprovalForAll",
      "outputs": [],
      "stateMutability": "nonpayable",
      "type": "function"
    },
    {
      "inputs": [
        {
          "internalType": "string",
          "name": "baseURI",
          "type": "string"
        }
      ],
      "name": "setBaseURI",
      "outputs": [],
      "stateMutability": "nonpayable",
      "type": "function"
    },
    {
      "inputs": [
        {
          "internalType": "bytes4",
          "name": "interfaceId",
          "type": "bytes4"
        }
      ],
      "name": "supportsInterface",
      "outputs": [
        {
          "internalType": "bool",
          "name": "",
          "type": "bool"
        }
      ],
      "stateMutability": "view",
      "type": "function"
    },
    {
      "inputs": [],
      "name": "symbol",
      "outputs": [
        {
          "internalType": "string",
          "name": "",
          "type": "string"
        }
      ],
      "stateMutability": "view",
      "type": "function"
    },
    {
      "inputs": [
        {
          "internalType": "uint256",
          "name": "index",
          "type": "uint256"
        }
      ],
      "name": "tokenByIndex",
      "outputs": [
        {
          "internalType": "uint256",
          "name": "",
          "type": "uint256"
        }
      ],
      "stateMutability": "view",
      "type": "function"
    },
    {
      "inputs": [
        {
          "internalType": "address",
          "name": "owner",
          "type": "address"
        },
        {
          "internalType": "uint256",
          "name": "index",
          "type": "uint256"
        }
      ],
      "name": "tokenOfOwnerByIndex",
      "outputs": [
        {
          "internalType": "uint256",
          "name": "",
          "type": "uint256"
        }
      ],
      "stateMutability": "view",
      "type": "function"
    },
    {
      "inputs": [
        {
          "internalType": "uint256",
          "name": "tokenId",
          "type": "uint256"
        }
      ],
      "name": "tokenURI",
      "outputs": [
        {
          "internalType": "string",
          "name": "",
          "type": "string"
        }
      ],
      "stateMutability": "view",
      "type": "function"
    },
    {
      "inputs": [],
      "name": "totalSupply",
      "outputs": [
        {
          "internalType": "uint256",
          "name": "",
          "type": "uint256"
        }
      ],
      "stateMutability": "view",
      "type": "function"
    },
    {
      "inputs": [
        {
          "internalType": "address",
          "name": "from",
          "type": "address"
        },
        {
          "internalType": "address",
          "name": "to",
          "type": "address"
        },
        {
          "internalType": "uint256",
          "name": "tokenId",
          "type": "uint256"
        }
      ],
      "name": "transferFrom",
      "outputs": [],
      "stateMutability": "nonpayable",
      "type": "function"
    },
    {
      "inputs": [
        {
          "internalType": "address",
          "name": "newOwner",
          "type": "address"
        }
      ],
      "name": "transferOwnership",
      "outputs": [],
      "stateMutability": "nonpayable",
      "type": "function"
    }
  ],
  "bytecode": "0x60806040526040518060600160405280602c815260200162003cad602c9139600c90805190602001906200003592919062000202565b506032600d55601e600e556000600f553480156200005257600080fd5b506040518060400160405280600281526020017f50530000000000000000000000000000000000000000000000000000000000008152506040518060400160405280600381526020017f50537400000000000000000000000000000000000000000000000000000000008152508160009080519060200190620000d792919062000202565b508060019080519060200190620000f092919062000202565b50505062000113620001076200013460201b60201c565b6200013c60201b60201c565b6000600a60146101000a81548160ff02191690831515021790555062000317565b600033905090565b6000600a60009054906101000a900473ffffffffffffffffffffffffffffffffffffffff16905081600a60006101000a81548173ffffffffffffffffffffffffffffffffffffffff021916908373ffffffffffffffffffffffffffffffffffffffff1602179055508173ffffffffffffffffffffffffffffffffffffffff168173ffffffffffffffffffffffffffffffffffffffff167f8be0079c531659141344cd1fd0a4f28419497f9722a3daafe3b4186f6b6457e060405160405180910390a35050565b8280546200021090620002b2565b90600052602060002090601f01602090048101928262000234576000855562000280565b82601f106200024f57805160ff191683800117855562000280565b8280016001018555821562000280579182015b828111156200027f57825182559160200191906001019062000262565b5b5090506200028f919062000293565b5090565b5b80821115620002ae57600081600090555060010162000294565b5090565b60006002820490506001821680620002cb57607f821691505b60208210811415620002e257620002e1620002e8565b5b50919050565b7f4e487b7100000000000000000000000000000000000000000000000000000000600052602260045260246000fd5b61398680620003276000396000f3fe608060405234801561001057600080fd5b506004361061018e5760003560e01c8063715018a6116100de578063b88d4fde11610097578063d62a120911610071578063d62a120914610497578063e985e9c5146104b5578063efcd708f146104e5578063f2fde38b146105155761018e565b8063b88d4fde1461042d578063c87b56dd14610449578063cfc86f7b146104795761018e565b8063715018a61461037d5780637d7f981d146103875780638da5cb5b146103b757806395d89b41146103d5578063972c4a22146103f3578063a22cb465146104115761018e565b80632f745c591161014b57806355f804b31161012557806355f804b3146102e35780635c975abb146102ff5780636352211e1461031d57806370a082311461034d5761018e565b80632f745c591461026757806342842e0e146102975780634f6ccce7146102b35761018e565b806301ffc9a71461019357806306fdde03146101c3578063081812fc146101e1578063095ea7b31461021157806318160ddd1461022d57806323b872dd1461024b575b600080fd5b6101ad60048036038101906101a891906127f6565b610531565b6040516101ba9190612cc9565b60405180910390f35b6101cb6105ab565b6040516101d89190612ce4565b60405180910390f35b6101fb60048036038101906101f69190612889565b61063d565b6040516102089190612c62565b60405180910390f35b61022b600480360381019061022691906127ba565b6106c2565b005b6102356107da565b6040516102429190612f86565b60405180910390f35b610265600480360381019061026091906126b4565b6107e7565b005b610281600480360381019061027c91906127ba565b610847565b60405161028e9190612f86565b60405180910390f35b6102b160048036038101906102ac91906126b4565b6108ec565b005b6102cd60048036038101906102c89190612889565b61090c565b6040516102da9190612f86565b60405180910390f35b6102fd60048036038101906102f89190612848565b6109a3565b005b610307610a39565b6040516103149190612cc9565b60405180910390f35b61033760048036038101906103329190612889565b610a50565b6040516103449190612c62565b60405180910390f35b6103676004803603810190610362919061264f565b610b02565b6040516103749190612f86565b60405180910390f35b610385610bba565b005b6103a1600480360381019061039c919061264f565b610c42565b6040516103ae9190612f86565b60405180910390f35b6103bf610cb7565b6040516103cc9190612c62565b60405180910390f35b6103dd610ce1565b6040516103ea9190612ce4565b60405180910390f35b6103fb610d73565b6040516104089190612f86565b60405180910390f35b61042b6004803603810190610426919061277e565b610d79565b005b61044760048036038101906104429190612703565b610d8f565b005b610463600480360381019061045e9190612889565b610df1565b6040516104709190612ce4565b60405180910390f35b610481610e98565b60405161048e9190612ce4565b60405180910390f35b61049f610f26565b6040516104ac9190612f86565b60405180910390f35b6104cf60048036038101906104ca9190612678565b610f2c565b6040516104dc9190612cc9565b60405180910390f35b6104ff60048036038101906104fa919061264f565b610fc0565b60405161050c9190612f86565b60405180910390f35b61052f600480360381019061052a919061264f565b6110c5565b005b60007f780e9d63000000000000000000000000000000000000000000000000000000007bffffffffffffffffffffffffffffffffffffffffffffffffffffffff1916827bffffffffffffffffffffffffffffffffffffffffffffffffffffffff191614806105a457506105a3826111bd565b5b9050919050565b6060600080546105ba906131dc565b80601f01602080910402602001604051908101604052809291908181526020018280546105e6906131dc565b80156106335780601f1061060857610100808354040283529160200191610633565b820191906000526020600020905b81548152906001019060200180831161061657829003601f168201915b5050505050905090565b60006106488261129f565b610687576040517f08c379a000000000000000000000000000000000000000000000000000000000815260040161067e90612ec6565b60405180910390fd5b6004600083815260200190815260200160002060009054906101000a900473ffffffffffffffffffffffffffffffffffffffff169050919050565b60006106cd82610a50565b90508073ffffffffffffffffffffffffffffffffffffffff168373ffffffffffffffffffffffffffffffffffffffff16141561073e576040517f08c379a000000000000000000000000000000000000000000000000000000000815260040161073590612f26565b60405180910390fd5b8073ffffffffffffffffffffffffffffffffffffffff1661075d61130b565b73ffffffffffffffffffffffffffffffffffffffff16148061078c575061078b8161078661130b565b610f2c565b5b6107cb576040517f08c379a00000000000000000000000000000000000000000000000000000000081526004016107c290612e26565b60405180910390fd5b6107d58383611313565b505050565b6000600880549050905090565b6107f86107f261130b565b826113cc565b610837576040517f08c379a000000000000000000000000000000000000000000000000000000000815260040161082e90612f46565b60405180910390fd5b6108428383836114aa565b505050565b600061085283610b02565b8210610893576040517f08c379a000000000000000000000000000000000000000000000000000000000815260040161088a90612d26565b60405180910390fd5b600660008473ffffffffffffffffffffffffffffffffffffffff1673ffffffffffffffffffffffffffffffffffffffff168152602001908152602001600020600083815260200190815260200160002054905092915050565b61090783838360405180602001604052806000815250610d8f565b505050565b60006109166107da565b8210610957576040517f08c379a000000000000000000000000000000000000000000000000000000000815260040161094e90612f66565b60405180910390fd5b60088281548110610991577f4e487b7100000000000000000000000000000000000000000000000000000000600052603260045260246000fd5b90600052602060002001549050919050565b6109ab61130b565b73ffffffffffffffffffffffffffffffffffffffff166109c9610cb7565b73ffffffffffffffffffffffffffffffffffffffff1614610a1f576040517f08c379a0000000000000000000000000000000000000000000000000000000008152600401610a1690612ee6565b60405180910390fd5b80600c9080519060200190610a35929190612473565b5050565b6000600a60149054906101000a900460ff16905090565b6000806002600084815260200190815260200160002060009054906101000a900473ffffffffffffffffffffffffffffffffffffffff169050600073ffffffffffffffffffffffffffffffffffffffff168173ffffffffffffffffffffffffffffffffffffffff161415610af9576040517f08c379a0000000000000000000000000000000000000000000000000000000008152600401610af090612e66565b60405180910390fd5b80915050919050565b60008073ffffffffffffffffffffffffffffffffffffffff168273ffffffffffffffffffffffffffffffffffffffff161415610b73576040517f08c379a0000000000000000000000000000000000000000000000000000000008152600401610b6a90612e46565b60405180910390fd5b600360008373ffffffffffffffffffffffffffffffffffffffff1673ffffffffffffffffffffffffffffffffffffffff168152602001908152602001600020549050919050565b610bc261130b565b73ffffffffffffffffffffffffffffffffffffffff16610be0610cb7565b73ffffffffffffffffffffffffffffffffffffffff1614610c36576040517f08c379a0000000000000000000000000000000000000000000000000000000008152600401610c2d90612ee6565b60405180910390fd5b610c406000611711565b565b600080610c4d6107da565b90506000600182610c5e919061306b565b9050601f8210610ca3576040517f08c379a0000000000000000000000000000000000000000000000000000000008152600401610c9a90612d06565b60405180910390fd5b610cad84826117d7565b8092505050919050565b6000600a60009054906101000a900473ffffffffffffffffffffffffffffffffffffffff16905090565b606060018054610cf0906131dc565b80601f0160208091040260200160405190810160405280929190818152602001828054610d1c906131dc565b8015610d695780601f10610d3e57610100808354040283529160200191610d69565b820191906000526020600020905b815481529060010190602001808311610d4c57829003601f168201915b5050505050905090565b600d5481565b610d8b610d8461130b565b83836119b1565b5050565b610da0610d9a61130b565b836113cc565b610ddf576040517f08c379a0000000000000000000000000000000000000000000000000000000008152600401610dd690612f46565b60405180910390fd5b610deb84848484611b1e565b50505050565b6060610dfc8261129f565b610e3b576040517f08c379a0000000000000000000000000000000000000000000000000000000008152600401610e3290612f06565b60405180910390fd5b6000610e45611b7a565b90506000815111610e655760405180602001604052806000815250610e90565b80610e6f84611c0c565b604051602001610e80929190612c3e565b6040516020818303038152906040525b915050919050565b600c8054610ea5906131dc565b80601f0160208091040260200160405190810160405280929190818152602001828054610ed1906131dc565b8015610f1e5780601f10610ef357610100808354040283529160200191610f1e565b820191906000526020600020905b815481529060010190602001808311610f0157829003601f168201915b505050505081565b600e5481565b6000600560008473ffffffffffffffffffffffffffffffffffffffff1673ffffffffffffffffffffffffffffffffffffffff16815260200190815260200160002060008373ffffffffffffffffffffffffffffffffffffffff1673ffffffffffffffffffffffffffffffffffffffff16815260200190815260200160002060009054906101000a900460ff16905092915050565b6000610fca61130b565b73ffffffffffffffffffffffffffffffffffffffff16610fe8610cb7565b73ffffffffffffffffffffffffffffffffffffffff161461103e576040517f08c379a000000000000000000000000000000000000000000000000000000000815260040161103590612ee6565b60405180910390fd5b600060058110156110be5760006110536107da565b90506000600182611064919061306b565b9050603382106110a9576040517f08c379a00000000000000000000000000000000000000000000000000000000081526004016110a090612e86565b60405180910390fd5b6110b385826117d7565b8093505050506110c0565b505b919050565b6110cd61130b565b73ffffffffffffffffffffffffffffffffffffffff166110eb610cb7565b73ffffffffffffffffffffffffffffffffffffffff1614611141576040517f08c379a000000000000000000000000000000000000000000000000000000000815260040161113890612ee6565b60405180910390fd5b600073ffffffffffffffffffffffffffffffffffffffff168173ffffffffffffffffffffffffffffffffffffffff1614156111b1576040517f08c379a00000000000000000000000000000000000000000000000000000000081526004016111a890612d66565b60405180910390fd5b6111ba81611711565b50565b60007f80ac58cd000000000000000000000000000000000000000000000000000000007bffffffffffffffffffffffffffffffffffffffffffffffffffffffff1916827bffffffffffffffffffffffffffffffffffffffffffffffffffffffff1916148061128857507f5b5e139f000000000000000000000000000000000000000000000000000000007bffffffffffffffffffffffffffffffffffffffffffffffffffffffff1916827bffffffffffffffffffffffffffffffffffffffffffffffffffffffff1916145b80611298575061129782611db9565b5b9050919050565b60008073ffffffffffffffffffffffffffffffffffffffff166002600084815260200190815260200160002060009054906101000a900473ffffffffffffffffffffffffffffffffffffffff1673ffffffffffffffffffffffffffffffffffffffff1614159050919050565b600033905090565b816004600083815260200190815260200160002060006101000a81548173ffffffffffffffffffffffffffffffffffffffff021916908373ffffffffffffffffffffffffffffffffffffffff160217905550808273ffffffffffffffffffffffffffffffffffffffff1661138683610a50565b73ffffffffffffffffffffffffffffffffffffffff167f8c5be1e5ebec7d5bd14f71427d1e84f3dd0314c0f7b2291e5b200ac8c7c3b92560405160405180910390a45050565b60006113d78261129f565b611416576040517f08c379a000000000000000000000000000000000000000000000000000000000815260040161140d90612e06565b60405180910390fd5b600061142183610a50565b90508073ffffffffffffffffffffffffffffffffffffffff168473ffffffffffffffffffffffffffffffffffffffff16148061146357506114628185610f2c565b5b806114a157508373ffffffffffffffffffffffffffffffffffffffff166114898461063d565b73ffffffffffffffffffffffffffffffffffffffff16145b91505092915050565b8273ffffffffffffffffffffffffffffffffffffffff166114ca82610a50565b73ffffffffffffffffffffffffffffffffffffffff1614611520576040517f08c379a000000000000000000000000000000000000000000000000000000000815260040161151790612d86565b60405180910390fd5b600073ffffffffffffffffffffffffffffffffffffffff168273ffffffffffffffffffffffffffffffffffffffff161415611590576040517f08c379a000000000000000000000000000000000000000000000000000000000815260040161158790612dc6565b60405180910390fd5b61159b838383611e23565b6115a6600082611313565b6001600360008573ffffffffffffffffffffffffffffffffffffffff1673ffffffffffffffffffffffffffffffffffffffff16815260200190815260200160002060008282546115f691906130f2565b925050819055506001600360008473ffffffffffffffffffffffffffffffffffffffff1673ffffffffffffffffffffffffffffffffffffffff168152602001908152602001600020600082825461164d919061306b565b92505081905550816002600083815260200190815260200160002060006101000a81548173ffffffffffffffffffffffffffffffffffffffff021916908373ffffffffffffffffffffffffffffffffffffffff160217905550808273ffffffffffffffffffffffffffffffffffffffff168473ffffffffffffffffffffffffffffffffffffffff167fddf252ad1be2c89b69c2b068fc378daa952ba7f163c4a11628f55a4df523b3ef60405160405180910390a461170c838383611f37565b505050565b6000600a60009054906101000a900473ffffffffffffffffffffffffffffffffffffffff16905081600a60006101000a81548173ffffffffffffffffffffffffffffffffffffffff021916908373ffffffffffffffffffffffffffffffffffffffff1602179055508173ffffffffffffffffffffffffffffffffffffffff168173ffffffffffffffffffffffffffffffffffffffff167f8be0079c531659141344cd1fd0a4f28419497f9722a3daafe3b4186f6b6457e060405160405180910390a35050565b600073ffffffffffffffffffffffffffffffffffffffff168273ffffffffffffffffffffffffffffffffffffffff161415611847576040517f08c379a000000000000000000000000000000000000000000000000000000000815260040161183e90612ea6565b60405180910390fd5b6118508161129f565b15611890576040517f08c379a000000000000000000000000000000000000000000000000000000000815260040161188790612da6565b60405180910390fd5b61189c60008383611e23565b6001600360008473ffffffffffffffffffffffffffffffffffffffff1673ffffffffffffffffffffffffffffffffffffffff16815260200190815260200160002060008282546118ec919061306b565b92505081905550816002600083815260200190815260200160002060006101000a81548173ffffffffffffffffffffffffffffffffffffffff021916908373ffffffffffffffffffffffffffffffffffffffff160217905550808273ffffffffffffffffffffffffffffffffffffffff16600073ffffffffffffffffffffffffffffffffffffffff167fddf252ad1be2c89b69c2b068fc378daa952ba7f163c4a11628f55a4df523b3ef60405160405180910390a46119ad60008383611f37565b5050565b8173ffffffffffffffffffffffffffffffffffffffff168373ffffffffffffffffffffffffffffffffffffffff161415611a20576040517f08c379a0000000000000000000000000000000000000000000000000000000008152600401611a1790612de6565b60405180910390fd5b80600560008573ffffffffffffffffffffffffffffffffffffffff1673ffffffffffffffffffffffffffffffffffffffff16815260200190815260200160002060008473ffffffffffffffffffffffffffffffffffffffff1673ffffffffffffffffffffffffffffffffffffffff16815260200190815260200160002060006101000a81548160ff0219169083151502179055508173ffffffffffffffffffffffffffffffffffffffff168373ffffffffffffffffffffffffffffffffffffffff167f17307eab39ab6107e8899845ad3d59bd9653f200f220920489ca2b5937696c3183604051611b119190612cc9565b60405180910390a3505050565b611b298484846114aa565b611b3584848484611f3c565b611b74576040517f08c379a0000000000000000000000000000000000000000000000000000000008152600401611b6b90612d46565b60405180910390fd5b50505050565b6060600c8054611b89906131dc565b80601f0160208091040260200160405190810160405280929190818152602001828054611bb5906131dc565b8015611c025780601f10611bd757610100808354040283529160200191611c02565b820191906000526020600020905b815481529060010190602001808311611be557829003601f168201915b5050505050905090565b60606000821415611c54576040518060400160405280600181526020017f30000000000000000000000000000000000000000000000000000000000000008152509050611db4565b600082905060005b60008214611c86578080611c6f9061323f565b915050600a82611c7f91906130c1565b9150611c5c565b60008167ffffffffffffffff811115611cc8577f4e487b7100000000000000000000000000000000000000000000000000000000600052604160045260246000fd5b6040519080825280601f01601f191660200182016040528015611cfa5781602001600182028036833780820191505090505b5090505b60008514611dad57600182611d1391906130f2565b9150600a85611d229190613288565b6030611d2e919061306b565b60f81b818381518110611d6a577f4e487b7100000000000000000000000000000000000000000000000000000000600052603260045260246000fd5b60200101907effffffffffffffffffffffffffffffffffffffffffffffffffffffffffffff1916908160001a905350600a85611da691906130c1565b9450611cfe565b8093505050505b919050565b60007f01ffc9a7000000000000000000000000000000000000000000000000000000007bffffffffffffffffffffffffffffffffffffffffffffffffffffffff1916827bffffffffffffffffffffffffffffffffffffffffffffffffffffffff1916149050919050565b611e2e8383836120d3565b600073ffffffffffffffffffffffffffffffffffffffff168373ffffffffffffffffffffffffffffffffffffffff161415611e7157611e6c816120d8565b611eb0565b8173ffffffffffffffffffffffffffffffffffffffff168373ffffffffffffffffffffffffffffffffffffffff1614611eaf57611eae8382612121565b5b5b600073ffffffffffffffffffffffffffffffffffffffff168273ffffffffffffffffffffffffffffffffffffffff161415611ef357611eee8161228e565b611f32565b8273ffffffffffffffffffffffffffffffffffffffff168273ffffffffffffffffffffffffffffffffffffffff1614611f3157611f3082826123d1565b5b5b505050565b505050565b6000611f5d8473ffffffffffffffffffffffffffffffffffffffff16612450565b156120c6578373ffffffffffffffffffffffffffffffffffffffff1663150b7a02611f8661130b565b8786866040518563ffffffff1660e01b8152600401611fa89493929190612c7d565b602060405180830381600087803b158015611fc257600080fd5b505af1925050508015611ff357506040513d601f19601f82011682018060405250810190611ff0919061281f565b60015b612076573d8060008114612023576040519150601f19603f3d011682016040523d82523d6000602084013e612028565b606091505b5060008151141561206e576040517f08c379a000000000000000000000000000000000000000000000000000000000815260040161206590612d46565b60405180910390fd5b805181602001fd5b63150b7a0260e01b7bffffffffffffffffffffffffffffffffffffffffffffffffffffffff1916817bffffffffffffffffffffffffffffffffffffffffffffffffffffffff1916149150506120cb565b600190505b949350505050565b505050565b6008805490506009600083815260200190815260200160002081905550600881908060018154018082558091505060019003906000526020600020016000909190919091505550565b6000600161212e84610b02565b61213891906130f2565b905060006007600084815260200190815260200160002054905081811461221d576000600660008673ffffffffffffffffffffffffffffffffffffffff1673ffffffffffffffffffffffffffffffffffffffff168152602001908152602001600020600084815260200190815260200160002054905080600660008773ffffffffffffffffffffffffffffffffffffffff1673ffffffffffffffffffffffffffffffffffffffff168152602001908152602001600020600084815260200190815260200160002081905550816007600083815260200190815260200160002081905550505b6007600084815260200190815260200160002060009055600660008573ffffffffffffffffffffffffffffffffffffffff1673ffffffffffffffffffffffffffffffffffffffff16815260200190815260200160002060008381526020019081526020016000206000905550505050565b600060016008805490506122a291906130f2565b90506000600960008481526020019081526020016000205490506000600883815481106122f8577f4e487b7100000000000000000000000000000000000000000000000000000000600052603260045260246000fd5b906000526020600020015490508060088381548110612340577f4e487b7100000000000000000000000000000000000000000000000000000000600052603260045260246000fd5b9060005260206000200181905550816009600083815260200190815260200160002081905550600960008581526020019081526020016000206000905560088054806123b5577f4e487b7100000000000000000000000000000000000000000000000000000000600052603160045260246000fd5b6001900381819060005260206000200160009055905550505050565b60006123dc83610b02565b905081600660008573ffffffffffffffffffffffffffffffffffffffff1673ffffffffffffffffffffffffffffffffffffffff168152602001908152602001600020600083815260200190815260200160002081905550806007600084815260200190815260200160002081905550505050565b6000808273ffffffffffffffffffffffffffffffffffffffff163b119050919050565b82805461247f906131dc565b90600052602060002090601f0160209004810192826124a157600085556124e8565b82601f106124ba57805160ff19168380011785556124e8565b828001600101855582156124e8579182015b828111156124e75782518255916020019190600101906124cc565b5b5090506124f591906124f9565b5090565b5b808211156125125760008160009055506001016124fa565b5090565b600061252961252484612fc6565b612fa1565b90508281526020810184848401111561254157600080fd5b61254c84828561319a565b509392505050565b600061256761256284612ff7565b612fa1565b90508281526020810184848401111561257f57600080fd5b61258a84828561319a565b509392505050565b6000813590506125a1816138f4565b92915050565b6000813590506125b68161390b565b92915050565b6000813590506125cb81613922565b92915050565b6000815190506125e081613922565b92915050565b600082601f8301126125f757600080fd5b8135612607848260208601612516565b91505092915050565b600082601f83011261262157600080fd5b8135612631848260208601612554565b91505092915050565b60008135905061264981613939565b92915050565b60006020828403121561266157600080fd5b600061266f84828501612592565b91505092915050565b6000806040838503121561268b57600080fd5b600061269985828601612592565b92505060206126aa85828601612592565b9150509250929050565b6000806000606084860312156126c957600080fd5b60006126d786828701612592565b93505060206126e886828701612592565b92505060406126f98682870161263a565b9150509250925092565b6000806000806080858703121561271957600080fd5b600061272787828801612592565b945050602061273887828801612592565b93505060406127498782880161263a565b925050606085013567ffffffffffffffff81111561276657600080fd5b612772878288016125e6565b91505092959194509250565b6000806040838503121561279157600080fd5b600061279f85828601612592565b92505060206127b0858286016125a7565b9150509250929050565b600080604083850312156127cd57600080fd5b60006127db85828601612592565b92505060206127ec8582860161263a565b9150509250929050565b60006020828403121561280857600080fd5b6000612816848285016125bc565b91505092915050565b60006020828403121561283157600080fd5b600061283f848285016125d1565b91505092915050565b60006020828403121561285a57600080fd5b600082013567ffffffffffffffff81111561287457600080fd5b61288084828501612610565b91505092915050565b60006020828403121561289b57600080fd5b60006128a98482850161263a565b91505092915050565b6128bb81613126565b82525050565b6128ca81613138565b82525050565b60006128db82613028565b6128e5818561303e565b93506128f58185602086016131a9565b6128fe81613375565b840191505092915050565b600061291482613033565b61291e818561304f565b935061292e8185602086016131a9565b61293781613375565b840191505092915050565b600061294d82613033565b6129578185613060565b93506129678185602086016131a9565b80840191505092915050565b6000612980601d8361304f565b915061298b82613386565b602082019050919050565b60006129a3602b8361304f565b91506129ae826133af565b604082019050919050565b60006129c660328361304f565b91506129d1826133fe565b604082019050919050565b60006129e960268361304f565b91506129f48261344d565b604082019050919050565b6000612a0c60258361304f565b9150612a178261349c565b604082019050919050565b6000612a2f601c8361304f565b9150612a3a826134eb565b602082019050919050565b6000612a5260248361304f565b9150612a5d82613514565b604082019050919050565b6000612a7560198361304f565b9150612a8082613563565b602082019050919050565b6000612a98602c8361304f565b9150612aa38261358c565b604082019050919050565b6000612abb60388361304f565b9150612ac6826135db565b604082019050919050565b6000612ade602a8361304f565b9150612ae98261362a565b604082019050919050565b6000612b0160298361304f565b9150612b0c82613679565b604082019050919050565b6000612b2460278361304f565b9150612b2f826136c8565b604082019050919050565b6000612b4760208361304f565b9150612b5282613717565b602082019050919050565b6000612b6a602c8361304f565b9150612b7582613740565b604082019050919050565b6000612b8d60208361304f565b9150612b988261378f565b602082019050919050565b6000612bb0602f8361304f565b9150612bbb826137b8565b604082019050919050565b6000612bd360218361304f565b9150612bde82613807565b604082019050919050565b6000612bf660318361304f565b9150612c0182613856565b604082019050919050565b6000612c19602c8361304f565b9150612c24826138a5565b604082019050919050565b612c3881613190565b82525050565b6000612c4a8285612942565b9150612c568284612942565b91508190509392505050565b6000602082019050612c7760008301846128b2565b92915050565b6000608082019050612c9260008301876128b2565b612c9f60208301866128b2565b612cac6040830185612c2f565b8181036060830152612cbe81846128d0565b905095945050505050565b6000602082019050612cde60008301846128c1565b92915050565b60006020820190508181036000830152612cfe8184612909565b905092915050565b60006020820190508181036000830152612d1f81612973565b9050919050565b60006020820190508181036000830152612d3f81612996565b9050919050565b60006020820190508181036000830152612d5f816129b9565b9050919050565b60006020820190508181036000830152612d7f816129dc565b9050919050565b60006020820190508181036000830152612d9f816129ff565b9050919050565b60006020820190508181036000830152612dbf81612a22565b9050919050565b60006020820190508181036000830152612ddf81612a45565b9050919050565b60006020820190508181036000830152612dff81612a68565b9050919050565b60006020820190508181036000830152612e1f81612a8b565b9050919050565b60006020820190508181036000830152612e3f81612aae565b9050919050565b60006020820190508181036000830152612e5f81612ad1565b9050919050565b60006020820190508181036000830152612e7f81612af4565b9050919050565b60006020820190508181036000830152612e9f81612b17565b9050919050565b60006020820190508181036000830152612ebf81612b3a565b9050919050565b60006020820190508181036000830152612edf81612b5d565b9050919050565b60006020820190508181036000830152612eff81612b80565b9050919050565b60006020820190508181036000830152612f1f81612ba3565b9050919050565b60006020820190508181036000830152612f3f81612bc6565b9050919050565b60006020820190508181036000830152612f5f81612be9565b9050919050565b60006020820190508181036000830152612f7f81612c0c565b9050919050565b6000602082019050612f9b6000830184612c2f565b92915050565b6000612fab612fbc565b9050612fb7828261320e565b919050565b6000604051905090565b600067ffffffffffffffff821115612fe157612fe0613346565b5b612fea82613375565b9050602081019050919050565b600067ffffffffffffffff82111561301257613011613346565b5b61301b82613375565b9050602081019050919050565b600081519050919050565b600081519050919050565b600082825260208201905092915050565b600082825260208201905092915050565b600081905092915050565b600061307682613190565b915061308183613190565b9250827fffffffffffffffffffffffffffffffffffffffffffffffffffffffffffffffff038211156130b6576130b56132b9565b5b828201905092915050565b60006130cc82613190565b91506130d783613190565b9250826130e7576130e66132e8565b5b828204905092915050565b60006130fd82613190565b915061310883613190565b92508282101561311b5761311a6132b9565b5b828203905092915050565b600061313182613170565b9050919050565b60008115159050919050565b60007fffffffff0000000000000000000000000000000000000000000000000000000082169050919050565b600073ffffffffffffffffffffffffffffffffffffffff82169050919050565b6000819050919050565b82818337600083830152505050565b60005b838110156131c75780820151818401526020810190506131ac565b838111156131d6576000848401525b50505050565b600060028204905060018216806131f457607f821691505b6020821081141561320857613207613317565b5b50919050565b61321782613375565b810181811067ffffffffffffffff8211171561323657613235613346565b5b80604052505050565b600061324a82613190565b91507fffffffffffffffffffffffffffffffffffffffffffffffffffffffffffffffff82141561327d5761327c6132b9565b5b600182019050919050565b600061329382613190565b915061329e83613190565b9250826132ae576132ad6132e8565b5b828206905092915050565b7f4e487b7100000000000000000000000000000000000000000000000000000000600052601160045260246000fd5b7f4e487b7100000000000000000000000000000000000000000000000000000000600052601260045260246000fd5b7f4e487b7100000000000000000000000000000000000000000000000000000000600052602260045260246000fd5b7f4e487b7100000000000000000000000000000000000000000000000000000000600052604160045260246000fd5b6000601f19601f8301169050919050565b7f4572726f72202d203330204e465420616c7265616479206d696e746564000000600082015250565b7f455243373231456e756d657261626c653a206f776e657220696e646578206f7560008201527f74206f6620626f756e6473000000000000000000000000000000000000000000602082015250565b7f4552433732313a207472616e7366657220746f206e6f6e20455243373231526560008201527f63656976657220696d706c656d656e7465720000000000000000000000000000602082015250565b7f4f776e61626c653a206e6577206f776e657220697320746865207a65726f206160008201527f6464726573730000000000000000000000000000000000000000000000000000602082015250565b7f4552433732313a207472616e736665722066726f6d20696e636f72726563742060008201527f6f776e6572000000000000000000000000000000000000000000000000000000602082015250565b7f4552433732313a20746f6b656e20616c7265616479206d696e74656400000000600082015250565b7f4552433732313a207472616e7366657220746f20746865207a65726f2061646460008201527f7265737300000000000000000000000000000000000000000000000000000000602082015250565b7f4552433732313a20617070726f766520746f2063616c6c657200000000000000600082015250565b7f4552433732313a206f70657261746f7220717565727920666f72206e6f6e657860008201527f697374656e7420746f6b656e0000000000000000000000000000000000000000602082015250565b7f4552433732313a20617070726f76652063616c6c6572206973206e6f74206f7760008201527f6e6572206e6f7220617070726f76656420666f7220616c6c0000000000000000602082015250565b7f4552433732313a2062616c616e636520717565727920666f7220746865207a6560008201527f726f206164647265737300000000000000000000000000000000000000000000602082015250565b7f4552433732313a206f776e657220717565727920666f72206e6f6e657869737460008201527f656e7420746f6b656e0000000000000000000000000000000000000000000000602082015250565b7f4572726f72202d204d61782e206f66203530204e4654277320616c726561647960008201527f206d696e74656400000000000000000000000000000000000000000000000000602082015250565b7f4552433732313a206d696e7420746f20746865207a65726f2061646472657373600082015250565b7f4552433732313a20617070726f76656420717565727920666f72206e6f6e657860008201527f697374656e7420746f6b656e0000000000000000000000000000000000000000602082015250565b7f4f776e61626c653a2063616c6c6572206973206e6f7420746865206f776e6572600082015250565b7f4552433732314d657461646174613a2055524920717565727920666f72206e6f60008201527f6e6578697374656e7420746f6b656e0000000000000000000000000000000000602082015250565b7f4552433732313a20617070726f76616c20746f2063757272656e74206f776e6560008201527f7200000000000000000000000000000000000000000000000000000000000000602082015250565b7f4552433732313a207472616e736665722063616c6c6572206973206e6f74206f60008201527f776e6572206e6f7220617070726f766564000000000000000000000000000000602082015250565b7f455243373231456e756d657261626c653a20676c6f62616c20696e646578206f60008201527f7574206f6620626f756e64730000000000000000000000000000000000000000602082015250565b6138fd81613126565b811461390857600080fd5b50565b61391481613138565b811461391f57600080fd5b50565b61392b81613144565b811461393657600080fd5b50565b61394281613190565b811461394d57600080fd5b5056fea2646970667358221220d690c9b967fb8285fa7b8628aa1408c476c4af857fd669eb2002a8f9370d0f8164736f6c6343000801003368747470733a2f2f626c6f636b636861696e7a656e6c6162732e7a656e7361722e636f6d2f746f6b656e732f",
  "linkReferences": {},
  "deployedLinkReferences": {}
}